{
	"Hello.sol": {
		"MyArr": {
			"abi": [
				{
					"inputs": [
						{
							"internalType": "uint256",
							"name": "value",
							"type": "uint256"
						}
					],
					"name": "addArr",
					"outputs": [],
					"stateMutability": "nonpayable",
					"type": "function"
				},
				{
					"inputs": [],
					"name": "b",
					"outputs": [
						{
							"internalType": "string",
							"name": "",
							"type": "string"
						}
					],
					"stateMutability": "view",
					"type": "function"
				},
				{
					"inputs": [],
					"name": "c",
					"outputs": [
						{
							"internalType": "int256",
							"name": "",
							"type": "int256"
						}
					],
					"stateMutability": "view",
					"type": "function"
				},
				{
					"inputs": [
						{
							"internalType": "uint256",
							"name": "",
							"type": "uint256"
						}
					],
					"name": "data2",
					"outputs": [
						{
							"internalType": "uint256",
							"name": "",
							"type": "uint256"
						}
					],
					"stateMutability": "view",
					"type": "function"
				},
				{
					"inputs": [],
					"name": "getArr",
					"outputs": [
						{
							"internalType": "uint256[]",
							"name": "",
							"type": "uint256[]"
						}
					],
					"stateMutability": "view",
					"type": "function"
				},
				{
					"inputs": [
						{
							"internalType": "uint256",
							"name": "index",
							"type": "uint256"
						}
					],
					"name": "removeArr",
					"outputs": [],
					"stateMutability": "nonpayable",
					"type": "function"
				}
			],
			"devdoc": {
				"kind": "dev",
				"methods": {},
				"version": 1
			},
			"evm": {
				"assembly": "    /* \"Hello.sol\":61:595  contract MyArr {... */\n  mstore(0x40, 0x80)\n  callvalue\n  dup1\n  iszero\n  tag_1\n  jumpi\n  revert(0x00, 0x00)\ntag_1:\n  pop\n  dataSize(sub_0)\n  dup1\n  dataOffset(sub_0)\n  0x00\n  codecopy\n  0x00\n  return\nstop\n\nsub_0: assembly {\n        /* \"Hello.sol\":61:595  contract MyArr {... */\n      mstore(0x40, 0x80)\n      callvalue\n      dup1\n      iszero\n      tag_1\n      jumpi\n      revert(0x00, 0x00)\n    tag_1:\n      pop\n      jumpi(tag_2, lt(calldatasize, 0x04))\n      shr(0xe0, calldataload(0x00))\n      dup1\n      0x1c657043\n      eq\n      tag_3\n      jumpi\n      dup1\n      0x4df7e3d0\n      eq\n      tag_4\n      jumpi\n      dup1\n      0xc3da42b8\n      eq\n      tag_5\n      jumpi\n      dup1\n      0xc8f43d16\n      eq\n      tag_6\n      jumpi\n      dup1\n      0xfb8cbced\n      eq\n      tag_7\n      jumpi\n      dup1\n      0xfb92315a\n      eq\n      tag_8\n      jumpi\n    tag_2:\n      revert(0x00, 0x00)\n        /* \"Hello.sol\":191:429  function removeArr(uint index) public {... */\n    tag_3:\n      tag_9\n      0x04\n      dup1\n      calldatasize\n      sub\n      dup2\n      add\n      swap1\n      tag_10\n      swap2\n      swap1\n      tag_11\n      jump\t// in\n    tag_10:\n      tag_12\n      jump\t// in\n    tag_9:\n      stop\n        /* \"Hello.sol\":529:544  string public b */\n    tag_4:\n      tag_13\n      tag_14\n      jump\t// in\n    tag_13:\n      mload(0x40)\n      tag_15\n      swap2\n      swap1\n      tag_16\n      jump\t// in\n    tag_15:\n      mload(0x40)\n      dup1\n      swap2\n      sub\n      swap1\n      return\n        /* \"Hello.sol\":551:563  int public c */\n    tag_5:\n      tag_17\n      tag_18\n      jump\t// in\n    tag_17:\n      mload(0x40)\n      tag_19\n      swap2\n      swap1\n      tag_20\n      jump\t// in\n    tag_19:\n      mload(0x40)\n      dup1\n      swap2\n      sub\n      swap1\n      return\n        /* \"Hello.sol\":572:591  uint[] public data2 */\n    tag_6:\n      tag_21\n      0x04\n      dup1\n      calldatasize\n      sub\n      dup2\n      add\n      swap1\n      tag_22\n      swap2\n      swap1\n      tag_11\n      jump\t// in\n    tag_22:\n      tag_23\n      jump\t// in\n    tag_21:\n      mload(0x40)\n      tag_24\n      swap2\n      swap1\n      tag_25\n      jump\t// in\n    tag_24:\n      mload(0x40)\n      dup1\n      swap2\n      sub\n      swap1\n      return\n        /* \"Hello.sol\":437:521  function getArr() public view returns (uint[] memory) {... */\n    tag_7:\n      tag_26\n      tag_27\n      jump\t// in\n    tag_26:\n      mload(0x40)\n      tag_28\n      swap2\n      swap1\n      tag_29\n      jump\t// in\n    tag_28:\n      mload(0x40)\n      dup1\n      swap2\n      sub\n      swap1\n      return\n        /* \"Hello.sol\":113:183  function addArr(uint value) public {... */\n    tag_8:\n      tag_30\n      0x04\n      dup1\n      calldatasize\n      sub\n      dup2\n      add\n      swap1\n      tag_31\n      swap2\n      swap1\n      tag_11\n      jump\t// in\n    tag_31:\n      tag_32\n      jump\t// in\n    tag_30:\n      stop\n        /* \"Hello.sol\":191:429  function removeArr(uint index) public {... */\n    tag_12:\n        /* \"Hello.sol\":256:260  data */\n      0x00\n        /* \"Hello.sol\":256:267  data.length */\n      dup1\n      sload\n      swap1\n      pop\n        /* \"Hello.sol\":248:253  index */\n      dup2\n        /* \"Hello.sol\":248:267  index < data.length */\n      lt\n        /* \"Hello.sol\":240:291  require(index < data.length, \"Index out of bounds\") */\n      tag_34\n      jumpi\n      mload(0x40)\n      0x08c379a000000000000000000000000000000000000000000000000000000000\n      dup2\n      mstore\n      0x04\n      add\n      tag_35\n      swap1\n      tag_36\n      jump\t// in\n    tag_35:\n      mload(0x40)\n      dup1\n      swap2\n      sub\n      swap1\n      revert\n    tag_34:\n        /* \"Hello.sol\":309:315  uint i */\n      0x00\n        /* \"Hello.sol\":318:323  index */\n      dup2\n        /* \"Hello.sol\":309:323  uint i = index */\n      swap1\n      pop\n        /* \"Hello.sol\":304:399  for (uint i = index; i < data.length - 1; i++) {... */\n    tag_37:\n        /* \"Hello.sol\":343:344  1 */\n      0x01\n        /* \"Hello.sol\":329:333  data */\n      0x00\n        /* \"Hello.sol\":329:340  data.length */\n      dup1\n      sload\n      swap1\n      pop\n        /* \"Hello.sol\":329:344  data.length - 1 */\n      tag_40\n      swap2\n      swap1\n      tag_41\n      jump\t// in\n    tag_40:\n        /* \"Hello.sol\":325:326  i */\n      dup2\n        /* \"Hello.sol\":325:344  i < data.length - 1 */\n      lt\n        /* \"Hello.sol\":304:399  for (uint i = index; i < data.length - 1; i++) {... */\n      iszero\n      tag_38\n      jumpi\n        /* \"Hello.sol\":376:380  data */\n      0x00\n        /* \"Hello.sol\":385:386  1 */\n      0x01\n        /* \"Hello.sol\":381:382  i */\n      dup3\n        /* \"Hello.sol\":381:386  i + 1 */\n      tag_42\n      swap2\n      swap1\n      tag_43\n      jump\t// in\n    tag_42:\n        /* \"Hello.sol\":376:387  data[i + 1] */\n      dup2\n      sload\n      dup2\n      lt\n      tag_44\n      jumpi\n      tag_45\n      tag_46\n      jump\t// in\n    tag_45:\n    tag_44:\n      swap1\n      0x00\n      mstore\n      keccak256(0x00, 0x20)\n      add\n      sload\n        /* \"Hello.sol\":366:370  data */\n      0x00\n        /* \"Hello.sol\":371:372  i */\n      dup3\n        /* \"Hello.sol\":366:373  data[i] */\n      dup2\n      sload\n      dup2\n      lt\n      tag_48\n      jumpi\n      tag_49\n      tag_46\n      jump\t// in\n    tag_49:\n    tag_48:\n      swap1\n      0x00\n      mstore\n      keccak256(0x00, 0x20)\n      add\n        /* \"Hello.sol\":366:387  data[i] = data[i + 1] */\n      dup2\n      swap1\n      sstore\n      pop\n        /* \"Hello.sol\":346:349  i++ */\n      dup1\n      dup1\n      0x01\n      add\n      swap2\n      pop\n      pop\n        /* \"Hello.sol\":304:399  for (uint i = index; i < data.length - 1; i++) {... */\n      jump(tag_37)\n    tag_38:\n      pop\n        /* \"Hello.sol\":411:415  data */\n      0x00\n        /* \"Hello.sol\":411:421  data.pop() */\n      dup1\n      sload\n      dup1\n      tag_51\n      jumpi\n      tag_52\n      tag_53\n      jump\t// in\n    tag_52:\n    tag_51:\n      0x01\n      swap1\n      sub\n      dup2\n      dup2\n      swap1\n      0x00\n      mstore\n      keccak256(0x00, 0x20)\n      add\n      0x00\n      swap1\n      sstore\n      swap1\n      sstore\n        /* \"Hello.sol\":191:429  function removeArr(uint index) public {... */\n      pop\n      jump\t// out\n        /* \"Hello.sol\":529:544  string public b */\n    tag_14:\n      0x01\n      dup1\n      sload\n      tag_55\n      swap1\n      tag_56\n      jump\t// in\n    tag_55:\n      dup1\n      0x1f\n      add\n      0x20\n      dup1\n      swap2\n      div\n      mul\n      0x20\n      add\n      mload(0x40)\n      swap1\n      dup2\n      add\n      0x40\n      mstore\n      dup1\n      swap3\n      swap2\n      swap1\n      dup2\n      dup2\n      mstore\n      0x20\n      add\n      dup3\n      dup1\n      sload\n      tag_57\n      swap1\n      tag_56\n      jump\t// in\n    tag_57:\n      dup1\n      iszero\n      tag_58\n      jumpi\n      dup1\n      0x1f\n      lt\n      tag_59\n      jumpi\n      0x0100\n      dup1\n      dup4\n      sload\n      div\n      mul\n      dup4\n      mstore\n      swap2\n      0x20\n      add\n      swap2\n      jump(tag_58)\n    tag_59:\n      dup3\n      add\n      swap2\n      swap1\n      0x00\n      mstore\n      keccak256(0x00, 0x20)\n      swap1\n    tag_60:\n      dup2\n      sload\n      dup2\n      mstore\n      swap1\n      0x01\n      add\n      swap1\n      0x20\n      add\n      dup1\n      dup4\n      gt\n      tag_60\n      jumpi\n      dup3\n      swap1\n      sub\n      0x1f\n      and\n      dup3\n      add\n      swap2\n    tag_58:\n      pop\n      pop\n      pop\n      pop\n      pop\n      dup2\n      jump\t// out\n        /* \"Hello.sol\":551:563  int public c */\n    tag_18:\n      sload(0x02)\n      dup2\n      jump\t// out\n        /* \"Hello.sol\":572:591  uint[] public data2 */\n    tag_23:\n      0x03\n      dup2\n      dup2\n      sload\n      dup2\n      lt\n      tag_61\n      jumpi\n      0x00\n      dup1\n      revert\n    tag_61:\n      swap1\n      0x00\n      mstore\n      keccak256(0x00, 0x20)\n      add\n      0x00\n      swap2\n      pop\n      swap1\n      pop\n      sload\n      dup2\n      jump\t// out\n        /* \"Hello.sol\":437:521  function getArr() public view returns (uint[] memory) {... */\n    tag_27:\n        /* \"Hello.sol\":476:489  uint[] memory */\n      0x60\n        /* \"Hello.sol\":509:513  data */\n      0x00\n        /* \"Hello.sol\":502:513  return data */\n      dup1\n      sload\n      dup1\n      0x20\n      mul\n      0x20\n      add\n      mload(0x40)\n      swap1\n      dup2\n      add\n      0x40\n      mstore\n      dup1\n      swap3\n      swap2\n      swap1\n      dup2\n      dup2\n      mstore\n      0x20\n      add\n      dup3\n      dup1\n      sload\n      dup1\n      iszero\n      tag_64\n      jumpi\n      0x20\n      mul\n      dup3\n      add\n      swap2\n      swap1\n      0x00\n      mstore\n      keccak256(0x00, 0x20)\n      swap1\n    tag_65:\n      dup2\n      sload\n      dup2\n      mstore\n      0x20\n      add\n      swap1\n      0x01\n      add\n      swap1\n      dup1\n      dup4\n      gt\n      tag_65\n      jumpi\n    tag_64:\n      pop\n      pop\n      pop\n      pop\n      pop\n      swap1\n      pop\n        /* \"Hello.sol\":437:521  function getArr() public view returns (uint[] memory) {... */\n      swap1\n      jump\t// out\n        /* \"Hello.sol\":113:183  function addArr(uint value) public {... */\n    tag_32:\n        /* \"Hello.sol\":159:163  data */\n      0x00\n        /* \"Hello.sol\":169:174  value */\n      dup2\n        /* \"Hello.sol\":159:175  data.push(value) */\n      swap1\n      dup1\n      0x01\n      dup2\n      sload\n      add\n      dup1\n      dup3\n      sstore\n      dup1\n      swap2\n      pop\n      pop\n      0x01\n      swap1\n      sub\n      swap1\n      0x00\n      mstore\n      keccak256(0x00, 0x20)\n      add\n      0x00\n      swap1\n      swap2\n      swap1\n      swap2\n      swap1\n      swap2\n      pop\n      sstore\n        /* \"Hello.sol\":113:183  function addArr(uint value) public {... */\n      pop\n      jump\t// out\n        /* \"#utility.yul\":88:205   */\n    tag_69:\n        /* \"#utility.yul\":197:198   */\n      0x00\n        /* \"#utility.yul\":194:195   */\n      0x00\n        /* \"#utility.yul\":187:199   */\n      revert\n        /* \"#utility.yul\":334:411   */\n    tag_71:\n        /* \"#utility.yul\":371:378   */\n      0x00\n        /* \"#utility.yul\":400:405   */\n      dup2\n        /* \"#utility.yul\":389:405   */\n      swap1\n      pop\n        /* \"#utility.yul\":334:411   */\n      swap2\n      swap1\n      pop\n      jump\t// out\n        /* \"#utility.yul\":417:539   */\n    tag_72:\n        /* \"#utility.yul\":490:514   */\n      tag_99\n        /* \"#utility.yul\":508:513   */\n      dup2\n        /* \"#utility.yul\":490:514   */\n      tag_71\n      jump\t// in\n    tag_99:\n        /* \"#utility.yul\":483:488   */\n      dup2\n        /* \"#utility.yul\":480:515   */\n      eq\n        /* \"#utility.yul\":470:533   */\n      tag_100\n      jumpi\n        /* \"#utility.yul\":529:530   */\n      0x00\n        /* \"#utility.yul\":526:527   */\n      0x00\n        /* \"#utility.yul\":519:531   */\n      revert\n        /* \"#utility.yul\":470:533   */\n    tag_100:\n        /* \"#utility.yul\":417:539   */\n      pop\n      jump\t// out\n        /* \"#utility.yul\":545:684   */\n    tag_73:\n        /* \"#utility.yul\":591:596   */\n      0x00\n        /* \"#utility.yul\":629:635   */\n      dup2\n        /* \"#utility.yul\":616:636   */\n      calldataload\n        /* \"#utility.yul\":607:636   */\n      swap1\n      pop\n        /* \"#utility.yul\":645:678   */\n      tag_102\n        /* \"#utility.yul\":672:677   */\n      dup2\n        /* \"#utility.yul\":645:678   */\n      tag_72\n      jump\t// in\n    tag_102:\n        /* \"#utility.yul\":545:684   */\n      swap3\n      swap2\n      pop\n      pop\n      jump\t// out\n        /* \"#utility.yul\":690:1019   */\n    tag_11:\n        /* \"#utility.yul\":749:755   */\n      0x00\n        /* \"#utility.yul\":798:800   */\n      0x20\n        /* \"#utility.yul\":786:795   */\n      dup3\n        /* \"#utility.yul\":777:784   */\n      dup5\n        /* \"#utility.yul\":773:796   */\n      sub\n        /* \"#utility.yul\":769:801   */\n      slt\n        /* \"#utility.yul\":766:885   */\n      iszero\n      tag_104\n      jumpi\n        /* \"#utility.yul\":804:883   */\n      tag_105\n      tag_69\n      jump\t// in\n    tag_105:\n        /* \"#utility.yul\":766:885   */\n    tag_104:\n        /* \"#utility.yul\":924:925   */\n      0x00\n        /* \"#utility.yul\":949:1002   */\n      tag_106\n        /* \"#utility.yul\":994:1001   */\n      dup5\n        /* \"#utility.yul\":985:991   */\n      dup3\n        /* \"#utility.yul\":974:983   */\n      dup6\n        /* \"#utility.yul\":970:992   */\n      add\n        /* \"#utility.yul\":949:1002   */\n      tag_73\n      jump\t// in\n    tag_106:\n        /* \"#utility.yul\":939:1002   */\n      swap2\n      pop\n        /* \"#utility.yul\":895:1012   */\n      pop\n        /* \"#utility.yul\":690:1019   */\n      swap3\n      swap2\n      pop\n      pop\n      jump\t// out\n        /* \"#utility.yul\":1025:1124   */\n    tag_74:\n        /* \"#utility.yul\":1077:1083   */\n      0x00\n        /* \"#utility.yul\":1111:1116   */\n      dup2\n        /* \"#utility.yul\":1105:1117   */\n      mload\n        /* \"#utility.yul\":1095:1117   */\n      swap1\n      pop\n        /* \"#utility.yul\":1025:1124   */\n      swap2\n      swap1\n      pop\n      jump\t// out\n        /* \"#utility.yul\":1130:1299   */\n    tag_75:\n        /* \"#utility.yul\":1214:1225   */\n      0x00\n        /* \"#utility.yul\":1248:1254   */\n      dup3\n        /* \"#utility.yul\":1243:1246   */\n      dup3\n        /* \"#utility.yul\":1236:1255   */\n      mstore\n        /* \"#utility.yul\":1288:1292   */\n      0x20\n        /* \"#utility.yul\":1283:1286   */\n      dup3\n        /* \"#utility.yul\":1279:1293   */\n      add\n        /* \"#utility.yul\":1264:1293   */\n      swap1\n      pop\n        /* \"#utility.yul\":1130:1299   */\n      swap3\n      swap2\n      pop\n      pop\n      jump\t// out\n        /* \"#utility.yul\":1305:1444   */\n    tag_76:\n        /* \"#utility.yul\":1394:1400   */\n      dup3\n        /* \"#utility.yul\":1389:1392   */\n      dup2\n        /* \"#utility.yul\":1384:1387   */\n      dup4\n        /* \"#utility.yul\":1378:1401   */\n      mcopy\n        /* \"#utility.yul\":1435:1436   */\n      0x00\n        /* \"#utility.yul\":1426:1432   */\n      dup4\n        /* \"#utility.yul\":1421:1424   */\n      dup4\n        /* \"#utility.yul\":1417:1433   */\n      add\n        /* \"#utility.yul\":1410:1437   */\n      mstore\n        /* \"#utility.yul\":1305:1444   */\n      pop\n      pop\n      pop\n      jump\t// out\n        /* \"#utility.yul\":1450:1552   */\n    tag_77:\n        /* \"#utility.yul\":1491:1497   */\n      0x00\n        /* \"#utility.yul\":1542:1544   */\n      0x1f\n        /* \"#utility.yul\":1538:1545   */\n      not\n        /* \"#utility.yul\":1533:1535   */\n      0x1f\n        /* \"#utility.yul\":1526:1531   */\n      dup4\n        /* \"#utility.yul\":1522:1536   */\n      add\n        /* \"#utility.yul\":1518:1546   */\n      and\n        /* \"#utility.yul\":1508:1546   */\n      swap1\n      pop\n        /* \"#utility.yul\":1450:1552   */\n      swap2\n      swap1\n      pop\n      jump\t// out\n        /* \"#utility.yul\":1558:1935   */\n    tag_78:\n        /* \"#utility.yul\":1646:1649   */\n      0x00\n        /* \"#utility.yul\":1674:1713   */\n      tag_112\n        /* \"#utility.yul\":1707:1712   */\n      dup3\n        /* \"#utility.yul\":1674:1713   */\n      tag_74\n      jump\t// in\n    tag_112:\n        /* \"#utility.yul\":1729:1800   */\n      tag_113\n        /* \"#utility.yul\":1793:1799   */\n      dup2\n        /* \"#utility.yul\":1788:1791   */\n      dup6\n        /* \"#utility.yul\":1729:1800   */\n      tag_75\n      jump\t// in\n    tag_113:\n        /* \"#utility.yul\":1722:1800   */\n      swap4\n      pop\n        /* \"#utility.yul\":1809:1874   */\n      tag_114\n        /* \"#utility.yul\":1867:1873   */\n      dup2\n        /* \"#utility.yul\":1862:1865   */\n      dup6\n        /* \"#utility.yul\":1855:1859   */\n      0x20\n        /* \"#utility.yul\":1848:1853   */\n      dup7\n        /* \"#utility.yul\":1844:1860   */\n      add\n        /* \"#utility.yul\":1809:1874   */\n      tag_76\n      jump\t// in\n    tag_114:\n        /* \"#utility.yul\":1899:1928   */\n      tag_115\n        /* \"#utility.yul\":1921:1927   */\n      dup2\n        /* \"#utility.yul\":1899:1928   */\n      tag_77\n      jump\t// in\n    tag_115:\n        /* \"#utility.yul\":1894:1897   */\n      dup5\n        /* \"#utility.yul\":1890:1929   */\n      add\n        /* \"#utility.yul\":1883:1929   */\n      swap2\n      pop\n        /* \"#utility.yul\":1650:1935   */\n      pop\n        /* \"#utility.yul\":1558:1935   */\n      swap3\n      swap2\n      pop\n      pop\n      jump\t// out\n        /* \"#utility.yul\":1941:2254   */\n    tag_16:\n        /* \"#utility.yul\":2054:2058   */\n      0x00\n        /* \"#utility.yul\":2092:2094   */\n      0x20\n        /* \"#utility.yul\":2081:2090   */\n      dup3\n        /* \"#utility.yul\":2077:2095   */\n      add\n        /* \"#utility.yul\":2069:2095   */\n      swap1\n      pop\n        /* \"#utility.yul\":2141:2150   */\n      dup2\n        /* \"#utility.yul\":2135:2139   */\n      dup2\n        /* \"#utility.yul\":2131:2151   */\n      sub\n        /* \"#utility.yul\":2127:2128   */\n      0x00\n        /* \"#utility.yul\":2116:2125   */\n      dup4\n        /* \"#utility.yul\":2112:2129   */\n      add\n        /* \"#utility.yul\":2105:2152   */\n      mstore\n        /* \"#utility.yul\":2169:2247   */\n      tag_117\n        /* \"#utility.yul\":2242:2246   */\n      dup2\n        /* \"#utility.yul\":2233:2239   */\n      dup5\n        /* \"#utility.yul\":2169:2247   */\n      tag_78\n      jump\t// in\n    tag_117:\n        /* \"#utility.yul\":2161:2247   */\n      swap1\n      pop\n        /* \"#utility.yul\":1941:2254   */\n      swap3\n      swap2\n      pop\n      pop\n      jump\t// out\n        /* \"#utility.yul\":2260:2336   */\n    tag_79:\n        /* \"#utility.yul\":2296:2303   */\n      0x00\n        /* \"#utility.yul\":2325:2330   */\n      dup2\n        /* \"#utility.yul\":2314:2330   */\n      swap1\n      pop\n        /* \"#utility.yul\":2260:2336   */\n      swap2\n      swap1\n      pop\n      jump\t// out\n        /* \"#utility.yul\":2342:2457   */\n    tag_80:\n        /* \"#utility.yul\":2427:2450   */\n      tag_120\n        /* \"#utility.yul\":2444:2449   */\n      dup2\n        /* \"#utility.yul\":2427:2450   */\n      tag_79\n      jump\t// in\n    tag_120:\n        /* \"#utility.yul\":2422:2425   */\n      dup3\n        /* \"#utility.yul\":2415:2451   */\n      mstore\n        /* \"#utility.yul\":2342:2457   */\n      pop\n      pop\n      jump\t// out\n        /* \"#utility.yul\":2463:2681   */\n    tag_20:\n        /* \"#utility.yul\":2554:2558   */\n      0x00\n        /* \"#utility.yul\":2592:2594   */\n      0x20\n        /* \"#utility.yul\":2581:2590   */\n      dup3\n        /* \"#utility.yul\":2577:2595   */\n      add\n        /* \"#utility.yul\":2569:2595   */\n      swap1\n      pop\n        /* \"#utility.yul\":2605:2674   */\n      tag_122\n        /* \"#utility.yul\":2671:2672   */\n      0x00\n        /* \"#utility.yul\":2660:2669   */\n      dup4\n        /* \"#utility.yul\":2656:2673   */\n      add\n        /* \"#utility.yul\":2647:2653   */\n      dup5\n        /* \"#utility.yul\":2605:2674   */\n      tag_80\n      jump\t// in\n    tag_122:\n        /* \"#utility.yul\":2463:2681   */\n      swap3\n      swap2\n      pop\n      pop\n      jump\t// out\n        /* \"#utility.yul\":2687:2805   */\n    tag_81:\n        /* \"#utility.yul\":2774:2798   */\n      tag_124\n        /* \"#utility.yul\":2792:2797   */\n      dup2\n        /* \"#utility.yul\":2774:2798   */\n      tag_71\n      jump\t// in\n    tag_124:\n        /* \"#utility.yul\":2769:2772   */\n      dup3\n        /* \"#utility.yul\":2762:2799   */\n      mstore\n        /* \"#utility.yul\":2687:2805   */\n      pop\n      pop\n      jump\t// out\n        /* \"#utility.yul\":2811:3033   */\n    tag_25:\n        /* \"#utility.yul\":2904:2908   */\n      0x00\n        /* \"#utility.yul\":2942:2944   */\n      0x20\n        /* \"#utility.yul\":2931:2940   */\n      dup3\n        /* \"#utility.yul\":2927:2945   */\n      add\n        /* \"#utility.yul\":2919:2945   */\n      swap1\n      pop\n        /* \"#utility.yul\":2955:3026   */\n      tag_126\n        /* \"#utility.yul\":3023:3024   */\n      0x00\n        /* \"#utility.yul\":3012:3021   */\n      dup4\n        /* \"#utility.yul\":3008:3025   */\n      add\n        /* \"#utility.yul\":2999:3005   */\n      dup5\n        /* \"#utility.yul\":2955:3026   */\n      tag_81\n      jump\t// in\n    tag_126:\n        /* \"#utility.yul\":2811:3033   */\n      swap3\n      swap2\n      pop\n      pop\n      jump\t// out\n        /* \"#utility.yul\":3039:3153   */\n    tag_82:\n        /* \"#utility.yul\":3106:3112   */\n      0x00\n        /* \"#utility.yul\":3140:3145   */\n      dup2\n        /* \"#utility.yul\":3134:3146   */\n      mload\n        /* \"#utility.yul\":3124:3146   */\n      swap1\n      pop\n        /* \"#utility.yul\":3039:3153   */\n      swap2\n      swap1\n      pop\n      jump\t// out\n        /* \"#utility.yul\":3159:3343   */\n    tag_83:\n        /* \"#utility.yul\":3258:3269   */\n      0x00\n        /* \"#utility.yul\":3292:3298   */\n      dup3\n        /* \"#utility.yul\":3287:3290   */\n      dup3\n        /* \"#utility.yul\":3280:3299   */\n      mstore\n        /* \"#utility.yul\":3332:3336   */\n      0x20\n        /* \"#utility.yul\":3327:3330   */\n      dup3\n        /* \"#utility.yul\":3323:3337   */\n      add\n        /* \"#utility.yul\":3308:3337   */\n      swap1\n      pop\n        /* \"#utility.yul\":3159:3343   */\n      swap3\n      swap2\n      pop\n      pop\n      jump\t// out\n        /* \"#utility.yul\":3349:3481   */\n    tag_84:\n        /* \"#utility.yul\":3416:3420   */\n      0x00\n        /* \"#utility.yul\":3439:3442   */\n      dup2\n        /* \"#utility.yul\":3431:3442   */\n      swap1\n      pop\n        /* \"#utility.yul\":3469:3473   */\n      0x20\n        /* \"#utility.yul\":3464:3467   */\n      dup3\n        /* \"#utility.yul\":3460:3474   */\n      add\n        /* \"#utility.yul\":3452:3474   */\n      swap1\n      pop\n        /* \"#utility.yul\":3349:3481   */\n      swap2\n      swap1\n      pop\n      jump\t// out\n        /* \"#utility.yul\":3487:3595   */\n    tag_85:\n        /* \"#utility.yul\":3564:3588   */\n      tag_131\n        /* \"#utility.yul\":3582:3587   */\n      dup2\n        /* \"#utility.yul\":3564:3588   */\n      tag_71\n      jump\t// in\n    tag_131:\n        /* \"#utility.yul\":3559:3562   */\n      dup3\n        /* \"#utility.yul\":3552:3589   */\n      mstore\n        /* \"#utility.yul\":3487:3595   */\n      pop\n      pop\n      jump\t// out\n        /* \"#utility.yul\":3601:3780   */\n    tag_86:\n        /* \"#utility.yul\":3670:3680   */\n      0x00\n        /* \"#utility.yul\":3691:3737   */\n      tag_133\n        /* \"#utility.yul\":3733:3736   */\n      dup4\n        /* \"#utility.yul\":3725:3731   */\n      dup4\n        /* \"#utility.yul\":3691:3737   */\n      tag_85\n      jump\t// in\n    tag_133:\n        /* \"#utility.yul\":3769:3773   */\n      0x20\n        /* \"#utility.yul\":3764:3767   */\n      dup4\n        /* \"#utility.yul\":3760:3774   */\n      add\n        /* \"#utility.yul\":3746:3774   */\n      swap1\n      pop\n        /* \"#utility.yul\":3601:3780   */\n      swap3\n      swap2\n      pop\n      pop\n      jump\t// out\n        /* \"#utility.yul\":3786:3899   */\n    tag_87:\n        /* \"#utility.yul\":3856:3860   */\n      0x00\n        /* \"#utility.yul\":3888:3892   */\n      0x20\n        /* \"#utility.yul\":3883:3886   */\n      dup3\n        /* \"#utility.yul\":3879:3893   */\n      add\n        /* \"#utility.yul\":3871:3893   */\n      swap1\n      pop\n        /* \"#utility.yul\":3786:3899   */\n      swap2\n      swap1\n      pop\n      jump\t// out\n        /* \"#utility.yul\":3935:4667   */\n    tag_88:\n        /* \"#utility.yul\":4054:4057   */\n      0x00\n        /* \"#utility.yul\":4083:4137   */\n      tag_136\n        /* \"#utility.yul\":4131:4136   */\n      dup3\n        /* \"#utility.yul\":4083:4137   */\n      tag_82\n      jump\t// in\n    tag_136:\n        /* \"#utility.yul\":4153:4239   */\n      tag_137\n        /* \"#utility.yul\":4232:4238   */\n      dup2\n        /* \"#utility.yul\":4227:4230   */\n      dup6\n        /* \"#utility.yul\":4153:4239   */\n      tag_83\n      jump\t// in\n    tag_137:\n        /* \"#utility.yul\":4146:4239   */\n      swap4\n      pop\n        /* \"#utility.yul\":4263:4319   */\n      tag_138\n        /* \"#utility.yul\":4313:4318   */\n      dup4\n        /* \"#utility.yul\":4263:4319   */\n      tag_84\n      jump\t// in\n    tag_138:\n        /* \"#utility.yul\":4342:4349   */\n      dup1\n        /* \"#utility.yul\":4373:4374   */\n      0x00\n        /* \"#utility.yul\":4358:4642   */\n    tag_139:\n        /* \"#utility.yul\":4383:4389   */\n      dup4\n        /* \"#utility.yul\":4380:4381   */\n      dup2\n        /* \"#utility.yul\":4377:4390   */\n      lt\n        /* \"#utility.yul\":4358:4642   */\n      iszero\n      tag_141\n      jumpi\n        /* \"#utility.yul\":4459:4465   */\n      dup2\n        /* \"#utility.yul\":4453:4466   */\n      mload\n        /* \"#utility.yul\":4486:4549   */\n      tag_142\n        /* \"#utility.yul\":4545:4548   */\n      dup9\n        /* \"#utility.yul\":4530:4543   */\n      dup3\n        /* \"#utility.yul\":4486:4549   */\n      tag_86\n      jump\t// in\n    tag_142:\n        /* \"#utility.yul\":4479:4549   */\n      swap8\n      pop\n        /* \"#utility.yul\":4572:4632   */\n      tag_143\n        /* \"#utility.yul\":4625:4631   */\n      dup4\n        /* \"#utility.yul\":4572:4632   */\n      tag_87\n      jump\t// in\n    tag_143:\n        /* \"#utility.yul\":4562:4632   */\n      swap3\n      pop\n        /* \"#utility.yul\":4418:4642   */\n      pop\n        /* \"#utility.yul\":4405:4406   */\n      0x01\n        /* \"#utility.yul\":4402:4403   */\n      dup2\n        /* \"#utility.yul\":4398:4407   */\n      add\n        /* \"#utility.yul\":4393:4407   */\n      swap1\n      pop\n        /* \"#utility.yul\":4358:4642   */\n      jump(tag_139)\n    tag_141:\n        /* \"#utility.yul\":4362:4376   */\n      pop\n        /* \"#utility.yul\":4658:4661   */\n      dup6\n        /* \"#utility.yul\":4651:4661   */\n      swap4\n      pop\n        /* \"#utility.yul\":4059:4667   */\n      pop\n      pop\n      pop\n        /* \"#utility.yul\":3935:4667   */\n      swap3\n      swap2\n      pop\n      pop\n      jump\t// out\n        /* \"#utility.yul\":4673:5046   */\n    tag_29:\n        /* \"#utility.yul\":4816:4820   */\n      0x00\n        /* \"#utility.yul\":4854:4856   */\n      0x20\n        /* \"#utility.yul\":4843:4852   */\n      dup3\n        /* \"#utility.yul\":4839:4857   */\n      add\n        /* \"#utility.yul\":4831:4857   */\n      swap1\n      pop\n        /* \"#utility.yul\":4903:4912   */\n      dup2\n        /* \"#utility.yul\":4897:4901   */\n      dup2\n        /* \"#utility.yul\":4893:4913   */\n      sub\n        /* \"#utility.yul\":4889:4890   */\n      0x00\n        /* \"#utility.yul\":4878:4887   */\n      dup4\n        /* \"#utility.yul\":4874:4891   */\n      add\n        /* \"#utility.yul\":4867:4914   */\n      mstore\n        /* \"#utility.yul\":4931:5039   */\n      tag_145\n        /* \"#utility.yul\":5034:5038   */\n      dup2\n        /* \"#utility.yul\":5025:5031   */\n      dup5\n        /* \"#utility.yul\":4931:5039   */\n      tag_88\n      jump\t// in\n    tag_145:\n        /* \"#utility.yul\":4923:5039   */\n      swap1\n      pop\n        /* \"#utility.yul\":4673:5046   */\n      swap3\n      swap2\n      pop\n      pop\n      jump\t// out\n        /* \"#utility.yul\":5052:5221   */\n    tag_89:\n        /* \"#utility.yul\":5192:5213   */\n      0x496e646578206f7574206f6620626f756e647300000000000000000000000000\n        /* \"#utility.yul\":5188:5189   */\n      0x00\n        /* \"#utility.yul\":5180:5186   */\n      dup3\n        /* \"#utility.yul\":5176:5190   */\n      add\n        /* \"#utility.yul\":5169:5214   */\n      mstore\n        /* \"#utility.yul\":5052:5221   */\n      pop\n      jump\t// out\n        /* \"#utility.yul\":5227:5593   */\n    tag_90:\n        /* \"#utility.yul\":5369:5372   */\n      0x00\n        /* \"#utility.yul\":5390:5457   */\n      tag_148\n        /* \"#utility.yul\":5454:5456   */\n      0x13\n        /* \"#utility.yul\":5449:5452   */\n      dup4\n        /* \"#utility.yul\":5390:5457   */\n      tag_75\n      jump\t// in\n    tag_148:\n        /* \"#utility.yul\":5383:5457   */\n      swap2\n      pop\n        /* \"#utility.yul\":5466:5559   */\n      tag_149\n        /* \"#utility.yul\":5555:5558   */\n      dup3\n        /* \"#utility.yul\":5466:5559   */\n      tag_89\n      jump\t// in\n    tag_149:\n        /* \"#utility.yul\":5584:5586   */\n      0x20\n        /* \"#utility.yul\":5579:5582   */\n      dup3\n        /* \"#utility.yul\":5575:5587   */\n      add\n        /* \"#utility.yul\":5568:5587   */\n      swap1\n      pop\n        /* \"#utility.yul\":5227:5593   */\n      swap2\n      swap1\n      pop\n      jump\t// out\n        /* \"#utility.yul\":5599:6018   */\n    tag_36:\n        /* \"#utility.yul\":5765:5769   */\n      0x00\n        /* \"#utility.yul\":5803:5805   */\n      0x20\n        /* \"#utility.yul\":5792:5801   */\n      dup3\n        /* \"#utility.yul\":5788:5806   */\n      add\n        /* \"#utility.yul\":5780:5806   */\n      swap1\n      pop\n        /* \"#utility.yul\":5852:5861   */\n      dup2\n        /* \"#utility.yul\":5846:5850   */\n      dup2\n        /* \"#utility.yul\":5842:5862   */\n      sub\n        /* \"#utility.yul\":5838:5839   */\n      0x00\n        /* \"#utility.yul\":5827:5836   */\n      dup4\n        /* \"#utility.yul\":5823:5840   */\n      add\n        /* \"#utility.yul\":5816:5863   */\n      mstore\n        /* \"#utility.yul\":5880:6011   */\n      tag_151\n        /* \"#utility.yul\":6006:6010   */\n      dup2\n        /* \"#utility.yul\":5880:6011   */\n      tag_90\n      jump\t// in\n    tag_151:\n        /* \"#utility.yul\":5872:6011   */\n      swap1\n      pop\n        /* \"#utility.yul\":5599:6018   */\n      swap2\n      swap1\n      pop\n      jump\t// out\n        /* \"#utility.yul\":6024:6204   */\n    tag_91:\n        /* \"#utility.yul\":6072:6149   */\n      0x4e487b7100000000000000000000000000000000000000000000000000000000\n        /* \"#utility.yul\":6069:6070   */\n      0x00\n        /* \"#utility.yul\":6062:6150   */\n      mstore\n        /* \"#utility.yul\":6169:6173   */\n      0x11\n        /* \"#utility.yul\":6166:6167   */\n      0x04\n        /* \"#utility.yul\":6159:6174   */\n      mstore\n        /* \"#utility.yul\":6193:6197   */\n      0x24\n        /* \"#utility.yul\":6190:6191   */\n      0x00\n        /* \"#utility.yul\":6183:6198   */\n      revert\n        /* \"#utility.yul\":6210:6404   */\n    tag_41:\n        /* \"#utility.yul\":6250:6254   */\n      0x00\n        /* \"#utility.yul\":6270:6290   */\n      tag_154\n        /* \"#utility.yul\":6288:6289   */\n      dup3\n        /* \"#utility.yul\":6270:6290   */\n      tag_71\n      jump\t// in\n    tag_154:\n        /* \"#utility.yul\":6265:6290   */\n      swap2\n      pop\n        /* \"#utility.yul\":6304:6324   */\n      tag_155\n        /* \"#utility.yul\":6322:6323   */\n      dup4\n        /* \"#utility.yul\":6304:6324   */\n      tag_71\n      jump\t// in\n    tag_155:\n        /* \"#utility.yul\":6299:6324   */\n      swap3\n      pop\n        /* \"#utility.yul\":6348:6349   */\n      dup3\n        /* \"#utility.yul\":6345:6346   */\n      dup3\n        /* \"#utility.yul\":6341:6350   */\n      sub\n        /* \"#utility.yul\":6333:6350   */\n      swap1\n      pop\n        /* \"#utility.yul\":6372:6373   */\n      dup2\n        /* \"#utility.yul\":6366:6370   */\n      dup2\n        /* \"#utility.yul\":6363:6374   */\n      gt\n        /* \"#utility.yul\":6360:6397   */\n      iszero\n      tag_156\n      jumpi\n        /* \"#utility.yul\":6377:6395   */\n      tag_157\n      tag_91\n      jump\t// in\n    tag_157:\n        /* \"#utility.yul\":6360:6397   */\n    tag_156:\n        /* \"#utility.yul\":6210:6404   */\n      swap3\n      swap2\n      pop\n      pop\n      jump\t// out\n        /* \"#utility.yul\":6410:6601   */\n    tag_43:\n        /* \"#utility.yul\":6450:6453   */\n      0x00\n        /* \"#utility.yul\":6469:6489   */\n      tag_159\n        /* \"#utility.yul\":6487:6488   */\n      dup3\n        /* \"#utility.yul\":6469:6489   */\n      tag_71\n      jump\t// in\n    tag_159:\n        /* \"#utility.yul\":6464:6489   */\n      swap2\n      pop\n        /* \"#utility.yul\":6503:6523   */\n      tag_160\n        /* \"#utility.yul\":6521:6522   */\n      dup4\n        /* \"#utility.yul\":6503:6523   */\n      tag_71\n      jump\t// in\n    tag_160:\n        /* \"#utility.yul\":6498:6523   */\n      swap3\n      pop\n        /* \"#utility.yul\":6546:6547   */\n      dup3\n        /* \"#utility.yul\":6543:6544   */\n      dup3\n        /* \"#utility.yul\":6539:6548   */\n      add\n        /* \"#utility.yul\":6532:6548   */\n      swap1\n      pop\n        /* \"#utility.yul\":6567:6570   */\n      dup1\n        /* \"#utility.yul\":6564:6565   */\n      dup3\n        /* \"#utility.yul\":6561:6571   */\n      gt\n        /* \"#utility.yul\":6558:6594   */\n      iszero\n      tag_161\n      jumpi\n        /* \"#utility.yul\":6574:6592   */\n      tag_162\n      tag_91\n      jump\t// in\n    tag_162:\n        /* \"#utility.yul\":6558:6594   */\n    tag_161:\n        /* \"#utility.yul\":6410:6601   */\n      swap3\n      swap2\n      pop\n      pop\n      jump\t// out\n        /* \"#utility.yul\":6607:6787   */\n    tag_46:\n        /* \"#utility.yul\":6655:6732   */\n      0x4e487b7100000000000000000000000000000000000000000000000000000000\n        /* \"#utility.yul\":6652:6653   */\n      0x00\n        /* \"#utility.yul\":6645:6733   */\n      mstore\n        /* \"#utility.yul\":6752:6756   */\n      0x32\n        /* \"#utility.yul\":6749:6750   */\n      0x04\n        /* \"#utility.yul\":6742:6757   */\n      mstore\n        /* \"#utility.yul\":6776:6780   */\n      0x24\n        /* \"#utility.yul\":6773:6774   */\n      0x00\n        /* \"#utility.yul\":6766:6781   */\n      revert\n        /* \"#utility.yul\":6793:6973   */\n    tag_53:\n        /* \"#utility.yul\":6841:6918   */\n      0x4e487b7100000000000000000000000000000000000000000000000000000000\n        /* \"#utility.yul\":6838:6839   */\n      0x00\n        /* \"#utility.yul\":6831:6919   */\n      mstore\n        /* \"#utility.yul\":6938:6942   */\n      0x31\n        /* \"#utility.yul\":6935:6936   */\n      0x04\n        /* \"#utility.yul\":6928:6943   */\n      mstore\n        /* \"#utility.yul\":6962:6966   */\n      0x24\n        /* \"#utility.yul\":6959:6960   */\n      0x00\n        /* \"#utility.yul\":6952:6967   */\n      revert\n        /* \"#utility.yul\":6979:7159   */\n    tag_92:\n        /* \"#utility.yul\":7027:7104   */\n      0x4e487b7100000000000000000000000000000000000000000000000000000000\n        /* \"#utility.yul\":7024:7025   */\n      0x00\n        /* \"#utility.yul\":7017:7105   */\n      mstore\n        /* \"#utility.yul\":7124:7128   */\n      0x22\n        /* \"#utility.yul\":7121:7122   */\n      0x04\n        /* \"#utility.yul\":7114:7129   */\n      mstore\n        /* \"#utility.yul\":7148:7152   */\n      0x24\n        /* \"#utility.yul\":7145:7146   */\n      0x00\n        /* \"#utility.yul\":7138:7153   */\n      revert\n        /* \"#utility.yul\":7165:7485   */\n    tag_56:\n        /* \"#utility.yul\":7209:7215   */\n      0x00\n        /* \"#utility.yul\":7246:7247   */\n      0x02\n        /* \"#utility.yul\":7240:7244   */\n      dup3\n        /* \"#utility.yul\":7236:7248   */\n      div\n        /* \"#utility.yul\":7226:7248   */\n      swap1\n      pop\n        /* \"#utility.yul\":7293:7294   */\n      0x01\n        /* \"#utility.yul\":7287:7291   */\n      dup3\n        /* \"#utility.yul\":7283:7295   */\n      and\n        /* \"#utility.yul\":7314:7332   */\n      dup1\n        /* \"#utility.yul\":7304:7385   */\n      tag_167\n      jumpi\n        /* \"#utility.yul\":7370:7374   */\n      0x7f\n        /* \"#utility.yul\":7362:7368   */\n      dup3\n        /* \"#utility.yul\":7358:7375   */\n      and\n        /* \"#utility.yul\":7348:7375   */\n      swap2\n      pop\n        /* \"#utility.yul\":7304:7385   */\n    tag_167:\n        /* \"#utility.yul\":7432:7434   */\n      0x20\n        /* \"#utility.yul\":7424:7430   */\n      dup3\n        /* \"#utility.yul\":7421:7435   */\n      lt\n        /* \"#utility.yul\":7401:7419   */\n      dup2\n        /* \"#utility.yul\":7398:7436   */\n      sub\n        /* \"#utility.yul\":7395:7479   */\n      tag_168\n      jumpi\n        /* \"#utility.yul\":7451:7469   */\n      tag_169\n      tag_92\n      jump\t// in\n    tag_169:\n        /* \"#utility.yul\":7395:7479   */\n    tag_168:\n        /* \"#utility.yul\":7216:7485   */\n      pop\n        /* \"#utility.yul\":7165:7485   */\n      swap2\n      swap1\n      pop\n      jump\t// out\n\n    auxdata: 0xa26469706673582212203048054ebf23d3174fd80963bf906565fc218c210e0c5051755e177a588627e764736f6c634300081e0033\n}\n",
				"bytecode": {
					"linkReferences": {},
					"object": "6080604052348015600e575f5ffd5b5061073e8061001c5f395ff3fe608060405234801561000f575f5ffd5b5060043610610060575f3560e01c80631c657043146100645780634df7e3d014610080578063c3da42b81461009e578063c8f43d16146100bc578063fb8cbced146100ec578063fb92315a1461010a575b5f5ffd5b61007e6004803603810190610079919061036b565b610126565b005b610088610205565b6040516100959190610406565b60405180910390f35b6100a6610291565b6040516100b3919061043e565b60405180910390f35b6100d660048036038101906100d1919061036b565b610297565b6040516100e39190610466565b60405180910390f35b6100f46102b7565b6040516101019190610536565b60405180910390f35b610124600480360381019061011f919061036b565b61030c565b005b5f80549050811061016c576040517f08c379a0000000000000000000000000000000000000000000000000000000008152600401610163906105a0565b60405180910390fd5b5f8190505b60015f8054905061018291906105eb565b8110156101dd575f600182610197919061061e565b815481106101a8576101a7610651565b5b905f5260205f2001545f82815481106101c4576101c3610651565b5b905f5260205f2001819055508080600101915050610171565b505f8054806101ef576101ee61067e565b5b600190038181905f5260205f20015f9055905550565b60018054610212906106d8565b80601f016020809104026020016040519081016040528092919081815260200182805461023e906106d8565b80156102895780601f1061026057610100808354040283529160200191610289565b820191905f5260205f20905b81548152906001019060200180831161026c57829003601f168201915b505050505081565b60025481565b600381815481106102a6575f80fd5b905f5260205f20015f915090505481565b60605f80548060200260200160405190810160405280929190818152602001828054801561030257602002820191905f5260205f20905b8154815260200190600101908083116102ee575b5050505050905090565b5f81908060018154018082558091505060019003905f5260205f20015f909190919091505550565b5f5ffd5b5f819050919050565b61034a81610338565b8114610354575f5ffd5b50565b5f8135905061036581610341565b92915050565b5f602082840312156103805761037f610334565b5b5f61038d84828501610357565b91505092915050565b5f81519050919050565b5f82825260208201905092915050565b8281835e5f83830152505050565b5f601f19601f8301169050919050565b5f6103d882610396565b6103e281856103a0565b93506103f28185602086016103b0565b6103fb816103be565b840191505092915050565b5f6020820190508181035f83015261041e81846103ce565b905092915050565b5f819050919050565b61043881610426565b82525050565b5f6020820190506104515f83018461042f565b92915050565b61046081610338565b82525050565b5f6020820190506104795f830184610457565b92915050565b5f81519050919050565b5f82825260208201905092915050565b5f819050602082019050919050565b6104b181610338565b82525050565b5f6104c283836104a8565b60208301905092915050565b5f602082019050919050565b5f6104e48261047f565b6104ee8185610489565b93506104f983610499565b805f5b8381101561052957815161051088826104b7565b975061051b836104ce565b9250506001810190506104fc565b5085935050505092915050565b5f6020820190508181035f83015261054e81846104da565b905092915050565b7f496e646578206f7574206f6620626f756e6473000000000000000000000000005f82015250565b5f61058a6013836103a0565b915061059582610556565b602082019050919050565b5f6020820190508181035f8301526105b78161057e565b9050919050565b7f4e487b71000000000000000000000000000000000000000000000000000000005f52601160045260245ffd5b5f6105f582610338565b915061060083610338565b9250828203905081811115610618576106176105be565b5b92915050565b5f61062882610338565b915061063383610338565b925082820190508082111561064b5761064a6105be565b5b92915050565b7f4e487b71000000000000000000000000000000000000000000000000000000005f52603260045260245ffd5b7f4e487b71000000000000000000000000000000000000000000000000000000005f52603160045260245ffd5b7f4e487b71000000000000000000000000000000000000000000000000000000005f52602260045260245ffd5b5f60028204905060018216806106ef57607f821691505b602082108103610702576107016106ab565b5b5091905056fea26469706673582212203048054ebf23d3174fd80963bf906565fc218c210e0c5051755e177a588627e764736f6c634300081e0033",
					"opcodes": "PUSH1 0x80 PUSH1 0x40 MSTORE CALLVALUE DUP1 ISZERO PUSH1 0xE JUMPI PUSH0 PUSH0 REVERT JUMPDEST POP PUSH2 0x73E DUP1 PUSH2 0x1C PUSH0 CODECOPY PUSH0 RETURN INVALID PUSH1 0x80 PUSH1 0x40 MSTORE CALLVALUE DUP1 ISZERO PUSH2 0xF JUMPI PUSH0 PUSH0 REVERT JUMPDEST POP PUSH1 0x4 CALLDATASIZE LT PUSH2 0x60 JUMPI PUSH0 CALLDATALOAD PUSH1 0xE0 SHR DUP1 PUSH4 0x1C657043 EQ PUSH2 0x64 JUMPI DUP1 PUSH4 0x4DF7E3D0 EQ PUSH2 0x80 JUMPI DUP1 PUSH4 0xC3DA42B8 EQ PUSH2 0x9E JUMPI DUP1 PUSH4 0xC8F43D16 EQ PUSH2 0xBC JUMPI DUP1 PUSH4 0xFB8CBCED EQ PUSH2 0xEC JUMPI DUP1 PUSH4 0xFB92315A EQ PUSH2 0x10A JUMPI JUMPDEST PUSH0 PUSH0 REVERT JUMPDEST PUSH2 0x7E PUSH1 0x4 DUP1 CALLDATASIZE SUB DUP2 ADD SWAP1 PUSH2 0x79 SWAP2 SWAP1 PUSH2 0x36B JUMP JUMPDEST PUSH2 0x126 JUMP JUMPDEST STOP JUMPDEST PUSH2 0x88 PUSH2 0x205 JUMP JUMPDEST PUSH1 0x40 MLOAD PUSH2 0x95 SWAP2 SWAP1 PUSH2 0x406 JUMP JUMPDEST PUSH1 0x40 MLOAD DUP1 SWAP2 SUB SWAP1 RETURN JUMPDEST PUSH2 0xA6 PUSH2 0x291 JUMP JUMPDEST PUSH1 0x40 MLOAD PUSH2 0xB3 SWAP2 SWAP1 PUSH2 0x43E JUMP JUMPDEST PUSH1 0x40 MLOAD DUP1 SWAP2 SUB SWAP1 RETURN JUMPDEST PUSH2 0xD6 PUSH1 0x4 DUP1 CALLDATASIZE SUB DUP2 ADD SWAP1 PUSH2 0xD1 SWAP2 SWAP1 PUSH2 0x36B JUMP JUMPDEST PUSH2 0x297 JUMP JUMPDEST PUSH1 0x40 MLOAD PUSH2 0xE3 SWAP2 SWAP1 PUSH2 0x466 JUMP JUMPDEST PUSH1 0x40 MLOAD DUP1 SWAP2 SUB SWAP1 RETURN JUMPDEST PUSH2 0xF4 PUSH2 0x2B7 JUMP JUMPDEST PUSH1 0x40 MLOAD PUSH2 0x101 SWAP2 SWAP1 PUSH2 0x536 JUMP JUMPDEST PUSH1 0x40 MLOAD DUP1 SWAP2 SUB SWAP1 RETURN JUMPDEST PUSH2 0x124 PUSH1 0x4 DUP1 CALLDATASIZE SUB DUP2 ADD SWAP1 PUSH2 0x11F SWAP2 SWAP1 PUSH2 0x36B JUMP JUMPDEST PUSH2 0x30C JUMP JUMPDEST STOP JUMPDEST PUSH0 DUP1 SLOAD SWAP1 POP DUP2 LT PUSH2 0x16C JUMPI PUSH1 0x40 MLOAD PUSH32 0x8C379A000000000000000000000000000000000000000000000000000000000 DUP2 MSTORE PUSH1 0x4 ADD PUSH2 0x163 SWAP1 PUSH2 0x5A0 JUMP JUMPDEST PUSH1 0x40 MLOAD DUP1 SWAP2 SUB SWAP1 REVERT JUMPDEST PUSH0 DUP2 SWAP1 POP JUMPDEST PUSH1 0x1 PUSH0 DUP1 SLOAD SWAP1 POP PUSH2 0x182 SWAP2 SWAP1 PUSH2 0x5EB JUMP JUMPDEST DUP2 LT ISZERO PUSH2 0x1DD JUMPI PUSH0 PUSH1 0x1 DUP3 PUSH2 0x197 SWAP2 SWAP1 PUSH2 0x61E JUMP JUMPDEST DUP2 SLOAD DUP2 LT PUSH2 0x1A8 JUMPI PUSH2 0x1A7 PUSH2 0x651 JUMP JUMPDEST JUMPDEST SWAP1 PUSH0 MSTORE PUSH1 0x20 PUSH0 KECCAK256 ADD SLOAD PUSH0 DUP3 DUP2 SLOAD DUP2 LT PUSH2 0x1C4 JUMPI PUSH2 0x1C3 PUSH2 0x651 JUMP JUMPDEST JUMPDEST SWAP1 PUSH0 MSTORE PUSH1 0x20 PUSH0 KECCAK256 ADD DUP2 SWAP1 SSTORE POP DUP1 DUP1 PUSH1 0x1 ADD SWAP2 POP POP PUSH2 0x171 JUMP JUMPDEST POP PUSH0 DUP1 SLOAD DUP1 PUSH2 0x1EF JUMPI PUSH2 0x1EE PUSH2 0x67E JUMP JUMPDEST JUMPDEST PUSH1 0x1 SWAP1 SUB DUP2 DUP2 SWAP1 PUSH0 MSTORE PUSH1 0x20 PUSH0 KECCAK256 ADD PUSH0 SWAP1 SSTORE SWAP1 SSTORE POP JUMP JUMPDEST PUSH1 0x1 DUP1 SLOAD PUSH2 0x212 SWAP1 PUSH2 0x6D8 JUMP JUMPDEST DUP1 PUSH1 0x1F ADD PUSH1 0x20 DUP1 SWAP2 DIV MUL PUSH1 0x20 ADD PUSH1 0x40 MLOAD SWAP1 DUP2 ADD PUSH1 0x40 MSTORE DUP1 SWAP3 SWAP2 SWAP1 DUP2 DUP2 MSTORE PUSH1 0x20 ADD DUP3 DUP1 SLOAD PUSH2 0x23E SWAP1 PUSH2 0x6D8 JUMP JUMPDEST DUP1 ISZERO PUSH2 0x289 JUMPI DUP1 PUSH1 0x1F LT PUSH2 0x260 JUMPI PUSH2 0x100 DUP1 DUP4 SLOAD DIV MUL DUP4 MSTORE SWAP2 PUSH1 0x20 ADD SWAP2 PUSH2 0x289 JUMP JUMPDEST DUP3 ADD SWAP2 SWAP1 PUSH0 MSTORE PUSH1 0x20 PUSH0 KECCAK256 SWAP1 JUMPDEST DUP2 SLOAD DUP2 MSTORE SWAP1 PUSH1 0x1 ADD SWAP1 PUSH1 0x20 ADD DUP1 DUP4 GT PUSH2 0x26C JUMPI DUP3 SWAP1 SUB PUSH1 0x1F AND DUP3 ADD SWAP2 JUMPDEST POP POP POP POP POP DUP2 JUMP JUMPDEST PUSH1 0x2 SLOAD DUP2 JUMP JUMPDEST PUSH1 0x3 DUP2 DUP2 SLOAD DUP2 LT PUSH2 0x2A6 JUMPI PUSH0 DUP1 REVERT JUMPDEST SWAP1 PUSH0 MSTORE PUSH1 0x20 PUSH0 KECCAK256 ADD PUSH0 SWAP2 POP SWAP1 POP SLOAD DUP2 JUMP JUMPDEST PUSH1 0x60 PUSH0 DUP1 SLOAD DUP1 PUSH1 0x20 MUL PUSH1 0x20 ADD PUSH1 0x40 MLOAD SWAP1 DUP2 ADD PUSH1 0x40 MSTORE DUP1 SWAP3 SWAP2 SWAP1 DUP2 DUP2 MSTORE PUSH1 0x20 ADD DUP3 DUP1 SLOAD DUP1 ISZERO PUSH2 0x302 JUMPI PUSH1 0x20 MUL DUP3 ADD SWAP2 SWAP1 PUSH0 MSTORE PUSH1 0x20 PUSH0 KECCAK256 SWAP1 JUMPDEST DUP2 SLOAD DUP2 MSTORE PUSH1 0x20 ADD SWAP1 PUSH1 0x1 ADD SWAP1 DUP1 DUP4 GT PUSH2 0x2EE JUMPI JUMPDEST POP POP POP POP POP SWAP1 POP SWAP1 JUMP JUMPDEST PUSH0 DUP2 SWAP1 DUP1 PUSH1 0x1 DUP2 SLOAD ADD DUP1 DUP3 SSTORE DUP1 SWAP2 POP POP PUSH1 0x1 SWAP1 SUB SWAP1 PUSH0 MSTORE PUSH1 0x20 PUSH0 KECCAK256 ADD PUSH0 SWAP1 SWAP2 SWAP1 SWAP2 SWAP1 SWAP2 POP SSTORE POP JUMP JUMPDEST PUSH0 PUSH0 REVERT JUMPDEST PUSH0 DUP2 SWAP1 POP SWAP2 SWAP1 POP JUMP JUMPDEST PUSH2 0x34A DUP2 PUSH2 0x338 JUMP JUMPDEST DUP2 EQ PUSH2 0x354 JUMPI PUSH0 PUSH0 REVERT JUMPDEST POP JUMP JUMPDEST PUSH0 DUP2 CALLDATALOAD SWAP1 POP PUSH2 0x365 DUP2 PUSH2 0x341 JUMP JUMPDEST SWAP3 SWAP2 POP POP JUMP JUMPDEST PUSH0 PUSH1 0x20 DUP3 DUP5 SUB SLT ISZERO PUSH2 0x380 JUMPI PUSH2 0x37F PUSH2 0x334 JUMP JUMPDEST JUMPDEST PUSH0 PUSH2 0x38D DUP5 DUP3 DUP6 ADD PUSH2 0x357 JUMP JUMPDEST SWAP2 POP POP SWAP3 SWAP2 POP POP JUMP JUMPDEST PUSH0 DUP2 MLOAD SWAP1 POP SWAP2 SWAP1 POP JUMP JUMPDEST PUSH0 DUP3 DUP3 MSTORE PUSH1 0x20 DUP3 ADD SWAP1 POP SWAP3 SWAP2 POP POP JUMP JUMPDEST DUP3 DUP2 DUP4 MCOPY PUSH0 DUP4 DUP4 ADD MSTORE POP POP POP JUMP JUMPDEST PUSH0 PUSH1 0x1F NOT PUSH1 0x1F DUP4 ADD AND SWAP1 POP SWAP2 SWAP1 POP JUMP JUMPDEST PUSH0 PUSH2 0x3D8 DUP3 PUSH2 0x396 JUMP JUMPDEST PUSH2 0x3E2 DUP2 DUP6 PUSH2 0x3A0 JUMP JUMPDEST SWAP4 POP PUSH2 0x3F2 DUP2 DUP6 PUSH1 0x20 DUP7 ADD PUSH2 0x3B0 JUMP JUMPDEST PUSH2 0x3FB DUP2 PUSH2 0x3BE JUMP JUMPDEST DUP5 ADD SWAP2 POP POP SWAP3 SWAP2 POP POP JUMP JUMPDEST PUSH0 PUSH1 0x20 DUP3 ADD SWAP1 POP DUP2 DUP2 SUB PUSH0 DUP4 ADD MSTORE PUSH2 0x41E DUP2 DUP5 PUSH2 0x3CE JUMP JUMPDEST SWAP1 POP SWAP3 SWAP2 POP POP JUMP JUMPDEST PUSH0 DUP2 SWAP1 POP SWAP2 SWAP1 POP JUMP JUMPDEST PUSH2 0x438 DUP2 PUSH2 0x426 JUMP JUMPDEST DUP3 MSTORE POP POP JUMP JUMPDEST PUSH0 PUSH1 0x20 DUP3 ADD SWAP1 POP PUSH2 0x451 PUSH0 DUP4 ADD DUP5 PUSH2 0x42F JUMP JUMPDEST SWAP3 SWAP2 POP POP JUMP JUMPDEST PUSH2 0x460 DUP2 PUSH2 0x338 JUMP JUMPDEST DUP3 MSTORE POP POP JUMP JUMPDEST PUSH0 PUSH1 0x20 DUP3 ADD SWAP1 POP PUSH2 0x479 PUSH0 DUP4 ADD DUP5 PUSH2 0x457 JUMP JUMPDEST SWAP3 SWAP2 POP POP JUMP JUMPDEST PUSH0 DUP2 MLOAD SWAP1 POP SWAP2 SWAP1 POP JUMP JUMPDEST PUSH0 DUP3 DUP3 MSTORE PUSH1 0x20 DUP3 ADD SWAP1 POP SWAP3 SWAP2 POP POP JUMP JUMPDEST PUSH0 DUP2 SWAP1 POP PUSH1 0x20 DUP3 ADD SWAP1 POP SWAP2 SWAP1 POP JUMP JUMPDEST PUSH2 0x4B1 DUP2 PUSH2 0x338 JUMP JUMPDEST DUP3 MSTORE POP POP JUMP JUMPDEST PUSH0 PUSH2 0x4C2 DUP4 DUP4 PUSH2 0x4A8 JUMP JUMPDEST PUSH1 0x20 DUP4 ADD SWAP1 POP SWAP3 SWAP2 POP POP JUMP JUMPDEST PUSH0 PUSH1 0x20 DUP3 ADD SWAP1 POP SWAP2 SWAP1 POP JUMP JUMPDEST PUSH0 PUSH2 0x4E4 DUP3 PUSH2 0x47F JUMP JUMPDEST PUSH2 0x4EE DUP2 DUP6 PUSH2 0x489 JUMP JUMPDEST SWAP4 POP PUSH2 0x4F9 DUP4 PUSH2 0x499 JUMP JUMPDEST DUP1 PUSH0 JUMPDEST DUP4 DUP2 LT ISZERO PUSH2 0x529 JUMPI DUP2 MLOAD PUSH2 0x510 DUP9 DUP3 PUSH2 0x4B7 JUMP JUMPDEST SWAP8 POP PUSH2 0x51B DUP4 PUSH2 0x4CE JUMP JUMPDEST SWAP3 POP POP PUSH1 0x1 DUP2 ADD SWAP1 POP PUSH2 0x4FC JUMP JUMPDEST POP DUP6 SWAP4 POP POP POP POP SWAP3 SWAP2 POP POP JUMP JUMPDEST PUSH0 PUSH1 0x20 DUP3 ADD SWAP1 POP DUP2 DUP2 SUB PUSH0 DUP4 ADD MSTORE PUSH2 0x54E DUP2 DUP5 PUSH2 0x4DA JUMP JUMPDEST SWAP1 POP SWAP3 SWAP2 POP POP JUMP JUMPDEST PUSH32 0x496E646578206F7574206F6620626F756E647300000000000000000000000000 PUSH0 DUP3 ADD MSTORE POP JUMP JUMPDEST PUSH0 PUSH2 0x58A PUSH1 0x13 DUP4 PUSH2 0x3A0 JUMP JUMPDEST SWAP2 POP PUSH2 0x595 DUP3 PUSH2 0x556 JUMP JUMPDEST PUSH1 0x20 DUP3 ADD SWAP1 POP SWAP2 SWAP1 POP JUMP JUMPDEST PUSH0 PUSH1 0x20 DUP3 ADD SWAP1 POP DUP2 DUP2 SUB PUSH0 DUP4 ADD MSTORE PUSH2 0x5B7 DUP2 PUSH2 0x57E JUMP JUMPDEST SWAP1 POP SWAP2 SWAP1 POP JUMP JUMPDEST PUSH32 0x4E487B7100000000000000000000000000000000000000000000000000000000 PUSH0 MSTORE PUSH1 0x11 PUSH1 0x4 MSTORE PUSH1 0x24 PUSH0 REVERT JUMPDEST PUSH0 PUSH2 0x5F5 DUP3 PUSH2 0x338 JUMP JUMPDEST SWAP2 POP PUSH2 0x600 DUP4 PUSH2 0x338 JUMP JUMPDEST SWAP3 POP DUP3 DUP3 SUB SWAP1 POP DUP2 DUP2 GT ISZERO PUSH2 0x618 JUMPI PUSH2 0x617 PUSH2 0x5BE JUMP JUMPDEST JUMPDEST SWAP3 SWAP2 POP POP JUMP JUMPDEST PUSH0 PUSH2 0x628 DUP3 PUSH2 0x338 JUMP JUMPDEST SWAP2 POP PUSH2 0x633 DUP4 PUSH2 0x338 JUMP JUMPDEST SWAP3 POP DUP3 DUP3 ADD SWAP1 POP DUP1 DUP3 GT ISZERO PUSH2 0x64B JUMPI PUSH2 0x64A PUSH2 0x5BE JUMP JUMPDEST JUMPDEST SWAP3 SWAP2 POP POP JUMP JUMPDEST PUSH32 0x4E487B7100000000000000000000000000000000000000000000000000000000 PUSH0 MSTORE PUSH1 0x32 PUSH1 0x4 MSTORE PUSH1 0x24 PUSH0 REVERT JUMPDEST PUSH32 0x4E487B7100000000000000000000000000000000000000000000000000000000 PUSH0 MSTORE PUSH1 0x31 PUSH1 0x4 MSTORE PUSH1 0x24 PUSH0 REVERT JUMPDEST PUSH32 0x4E487B7100000000000000000000000000000000000000000000000000000000 PUSH0 MSTORE PUSH1 0x22 PUSH1 0x4 MSTORE PUSH1 0x24 PUSH0 REVERT JUMPDEST PUSH0 PUSH1 0x2 DUP3 DIV SWAP1 POP PUSH1 0x1 DUP3 AND DUP1 PUSH2 0x6EF JUMPI PUSH1 0x7F DUP3 AND SWAP2 POP JUMPDEST PUSH1 0x20 DUP3 LT DUP2 SUB PUSH2 0x702 JUMPI PUSH2 0x701 PUSH2 0x6AB JUMP JUMPDEST JUMPDEST POP SWAP2 SWAP1 POP JUMP INVALID LOG2 PUSH5 0x6970667358 0x22 SLT KECCAK256 ADDRESS BASEFEE SDIV 0x4E 0xBF 0x23 0xD3 OR 0x4F 0xD8 MULMOD PUSH4 0xBF906565 0xFC 0x21 DUP13 0x21 0xE 0xC POP MLOAD PUSH22 0x5E177A588627E764736F6C634300081E003300000000 "
				},
				"gasEstimates": {
					"creation": {
						"codeDepositCost": "370800",
						"executionCost": "403",
						"totalCost": "371203"
					},
					"external": {
						"addArr(uint256)": "46908",
						"b()": "infinite",
						"c()": "2447",
						"data2(uint256)": "infinite",
						"getArr()": "infinite",
						"removeArr(uint256)": "infinite"
					}
				},
				"methodIdentifiers": {
					"addArr(uint256)": "fb92315a",
					"b()": "4df7e3d0",
					"c()": "c3da42b8",
					"data2(uint256)": "c8f43d16",
					"getArr()": "fb8cbced",
					"removeArr(uint256)": "1c657043"
				}
			},
			"storageLayout": {
				"storage": [
					{
						"astId": 4,
						"contract": "Hello.sol:MyArr",
						"label": "data",
						"offset": 0,
						"slot": "0",
						"type": "t_array(t_uint256)dyn_storage"
					},
					{
						"astId": 71,
						"contract": "Hello.sol:MyArr",
						"label": "b",
						"offset": 0,
						"slot": "1",
						"type": "t_string_storage"
					},
					{
						"astId": 73,
						"contract": "Hello.sol:MyArr",
						"label": "c",
						"offset": 0,
						"slot": "2",
						"type": "t_int256"
					},
					{
						"astId": 76,
						"contract": "Hello.sol:MyArr",
						"label": "data2",
						"offset": 0,
						"slot": "3",
						"type": "t_array(t_uint256)dyn_storage"
					}
				],
				"types": {
					"t_array(t_uint256)dyn_storage": {
						"base": "t_uint256",
						"encoding": "dynamic_array",
						"label": "uint256[]",
						"numberOfBytes": "32"
					},
					"t_int256": {
						"encoding": "inplace",
						"label": "int256",
						"numberOfBytes": "32"
					},
					"t_string_storage": {
						"encoding": "bytes",
						"label": "string",
						"numberOfBytes": "32"
					},
					"t_uint256": {
						"encoding": "inplace",
						"label": "uint256",
						"numberOfBytes": "32"
					}
				}
			},
			"userdoc": {
				"kind": "user",
				"methods": {},
				"version": 1
			}
		}
	}
}