{
	"Todo.sol": {
		"MyTodo": {
			"abi": [
				{
					"inputs": [
						{
							"internalType": "string",
							"name": "_text",
							"type": "string"
						}
					],
					"name": "create",
					"outputs": [],
					"stateMutability": "nonpayable",
					"type": "function"
				},
				{
					"inputs": [
						{
							"internalType": "uint256",
							"name": "_index",
							"type": "uint256"
						}
					],
					"name": "delTodo",
					"outputs": [],
					"stateMutability": "nonpayable",
					"type": "function"
				},
				{
					"inputs": [],
					"name": "getCount",
					"outputs": [
						{
							"internalType": "uint256",
							"name": "",
							"type": "uint256"
						}
					],
					"stateMutability": "view",
					"type": "function"
				},
				{
					"inputs": [
						{
							"internalType": "uint256",
							"name": "",
							"type": "uint256"
						}
					],
					"name": "todos",
					"outputs": [
						{
							"internalType": "string",
							"name": "text",
							"type": "string"
						},
						{
							"internalType": "bool",
							"name": "completed",
							"type": "bool"
						}
					],
					"stateMutability": "view",
					"type": "function"
				},
				{
					"inputs": [
						{
							"internalType": "uint256",
							"name": "_index",
							"type": "uint256"
						},
						{
							"internalType": "string",
							"name": "_text",
							"type": "string"
						}
					],
					"name": "update",
					"outputs": [],
					"stateMutability": "nonpayable",
					"type": "function"
				}
			],
			"devdoc": {
				"kind": "dev",
				"methods": {},
				"version": 1
			},
			"evm": {
				"assembly": "    /* \"Todo.sol\":58:814  contract MyTodo {... */\n  mstore(0x40, 0x80)\n  callvalue\n  dup1\n  iszero\n  tag_1\n  jumpi\n  revert(0x00, 0x00)\ntag_1:\n  pop\n  dataSize(sub_0)\n  dup1\n  dataOffset(sub_0)\n  0x00\n  codecopy\n  0x00\n  return\nstop\n\nsub_0: assembly {\n        /* \"Todo.sol\":58:814  contract MyTodo {... */\n      mstore(0x40, 0x80)\n      callvalue\n      dup1\n      iszero\n      tag_1\n      jumpi\n      revert(0x00, 0x00)\n    tag_1:\n      pop\n      jumpi(tag_2, lt(calldatasize, 0x04))\n      shr(0xe0, calldataload(0x00))\n      dup1\n      0x5f21f8c2\n      eq\n      tag_3\n      jumpi\n      dup1\n      0xa87d942c\n      eq\n      tag_4\n      jumpi\n      dup1\n      0xb6a46b3b\n      eq\n      tag_5\n      jumpi\n      dup1\n      0xbc8bc2b4\n      eq\n      tag_6\n      jumpi\n      dup1\n      0xf745630f\n      eq\n      tag_7\n      jumpi\n    tag_2:\n      revert(0x00, 0x00)\n        /* \"Todo.sol\":648:722  function delTodo(uint _index) public {... */\n    tag_3:\n      tag_8\n      0x04\n      dup1\n      calldatasize\n      sub\n      dup2\n      add\n      swap1\n      tag_9\n      swap2\n      swap1\n      tag_10\n      jump\t// in\n    tag_9:\n      tag_11\n      jump\t// in\n    tag_8:\n      stop\n        /* \"Todo.sol\":728:811  function getCount() public view returns (uint) {... */\n    tag_4:\n      tag_12\n      tag_13\n      jump\t// in\n    tag_12:\n      mload(0x40)\n      tag_14\n      swap2\n      swap1\n      tag_15\n      jump\t// in\n    tag_14:\n      mload(0x40)\n      dup1\n      swap2\n      sub\n      swap1\n      return\n        /* \"Todo.sol\":176:452  function create(string calldata _text) public {... */\n    tag_5:\n      tag_16\n      0x04\n      dup1\n      calldatasize\n      sub\n      dup2\n      add\n      swap1\n      tag_17\n      swap2\n      swap1\n      tag_18\n      jump\t// in\n    tag_17:\n      tag_19\n      jump\t// in\n    tag_16:\n      stop\n        /* \"Todo.sol\":150:169  Todo[] public todos */\n    tag_6:\n      tag_20\n      0x04\n      dup1\n      calldatasize\n      sub\n      dup2\n      add\n      swap1\n      tag_21\n      swap2\n      swap1\n      tag_10\n      jump\t// in\n    tag_21:\n      tag_22\n      jump\t// in\n    tag_20:\n      mload(0x40)\n      tag_23\n      swap3\n      swap2\n      swap1\n      tag_24\n      jump\t// in\n    tag_23:\n      mload(0x40)\n      dup1\n      swap2\n      sub\n      swap1\n      return\n        /* \"Todo.sol\":462:628  function update(uint _index, string calldata _text) public {... */\n    tag_7:\n      tag_25\n      0x04\n      dup1\n      calldatasize\n      sub\n      dup2\n      add\n      swap1\n      tag_26\n      swap2\n      swap1\n      tag_27\n      jump\t// in\n    tag_26:\n      tag_28\n      jump\t// in\n    tag_25:\n      stop\n        /* \"Todo.sol\":648:722  function delTodo(uint _index) public {... */\n    tag_11:\n        /* \"Todo.sol\":702:707  todos */\n      0x00\n        /* \"Todo.sol\":708:714  _index */\n      dup2\n        /* \"Todo.sol\":702:715  todos[_index] */\n      dup2\n      sload\n      dup2\n      lt\n      tag_30\n      jumpi\n      tag_31\n      tag_32\n      jump\t// in\n    tag_31:\n    tag_30:\n      swap1\n      0x00\n      mstore\n      keccak256(0x00, 0x20)\n      swap1\n      0x02\n      mul\n      add\n      0x00\n        /* \"Todo.sol\":695:715  delete todos[_index] */\n      0x00\n      dup3\n      add\n      0x00\n      tag_34\n      swap2\n      swap1\n      tag_35\n      jump\t// in\n    tag_34:\n      0x01\n      dup3\n      add\n      exp(0x0100, 0x00)\n      dup2\n      sload\n      swap1\n      0xff\n      mul\n      not\n      and\n      swap1\n      sstore\n      pop\n      pop\n        /* \"Todo.sol\":648:722  function delTodo(uint _index) public {... */\n      pop\n      jump\t// out\n        /* \"Todo.sol\":728:811  function getCount() public view returns (uint) {... */\n    tag_13:\n        /* \"Todo.sol\":769:773  uint */\n      0x00\n        /* \"Todo.sol\":792:797  todos */\n      0x00\n        /* \"Todo.sol\":792:804  todos.length */\n      dup1\n      sload\n      swap1\n      pop\n        /* \"Todo.sol\":785:804  return todos.length */\n      swap1\n      pop\n        /* \"Todo.sol\":728:811  function getCount() public view returns (uint) {... */\n      swap1\n      jump\t// out\n        /* \"Todo.sol\":176:452  function create(string calldata _text) public {... */\n    tag_19:\n        /* \"Todo.sol\":232:237  todos */\n      0x00\n        /* \"Todo.sol\":243:261  Todo(_text, false) */\n      mload(0x40)\n      dup1\n      0x40\n      add\n      0x40\n      mstore\n      dup1\n        /* \"Todo.sol\":248:253  _text */\n      dup5\n      dup5\n        /* \"Todo.sol\":243:261  Todo(_text, false) */\n      dup1\n      dup1\n      0x1f\n      add\n      0x20\n      dup1\n      swap2\n      div\n      mul\n      0x20\n      add\n      mload(0x40)\n      swap1\n      dup2\n      add\n      0x40\n      mstore\n      dup1\n      swap4\n      swap3\n      swap2\n      swap1\n      dup2\n      dup2\n      mstore\n      0x20\n      add\n      dup4\n      dup4\n      dup1\n      dup3\n      dup5\n      calldatacopy\n      0x00\n      dup2\n      dup5\n      add\n      mstore\n      not(0x1f)\n      0x1f\n      dup3\n      add\n      and\n      swap1\n      pop\n      dup1\n      dup4\n      add\n      swap3\n      pop\n      pop\n      pop\n      pop\n      pop\n      pop\n      pop\n      dup2\n      mstore\n      0x20\n      add\n        /* \"Todo.sol\":255:260  false */\n      0x00\n        /* \"Todo.sol\":243:261  Todo(_text, false) */\n      iszero\n      iszero\n      dup2\n      mstore\n      pop\n        /* \"Todo.sol\":232:262  todos.push(Todo(_text, false)) */\n      swap1\n      dup1\n      0x01\n      dup2\n      sload\n      add\n      dup1\n      dup3\n      sstore\n      dup1\n      swap2\n      pop\n      pop\n      0x01\n      swap1\n      sub\n      swap1\n      0x00\n      mstore\n      keccak256(0x00, 0x20)\n      swap1\n      0x02\n      mul\n      add\n      0x00\n      swap1\n      swap2\n      swap1\n      swap2\n      swap1\n      swap2\n      pop\n      0x00\n      dup3\n      add\n      mload\n      dup2\n      0x00\n      add\n      swap1\n      dup2\n      tag_39\n      swap2\n      swap1\n      tag_40\n      jump\t// in\n    tag_39:\n      pop\n      0x20\n      dup3\n      add\n      mload\n      dup2\n      0x01\n      add\n      exp(0x0100, 0x00)\n      dup2\n      sload\n      dup2\n      0xff\n      mul\n      not\n      and\n      swap1\n      dup4\n      iszero\n      iszero\n      mul\n      or\n      swap1\n      sstore\n      pop\n      pop\n      pop\n        /* \"Todo.sol\":273:278  todos */\n      0x00\n        /* \"Todo.sol\":284:321  Todo({text: _text, completed: false}) */\n      mload(0x40)\n      dup1\n      0x40\n      add\n      0x40\n      mstore\n      dup1\n        /* \"Todo.sol\":296:301  _text */\n      dup5\n      dup5\n        /* \"Todo.sol\":284:321  Todo({text: _text, completed: false}) */\n      dup1\n      dup1\n      0x1f\n      add\n      0x20\n      dup1\n      swap2\n      div\n      mul\n      0x20\n      add\n      mload(0x40)\n      swap1\n      dup2\n      add\n      0x40\n      mstore\n      dup1\n      swap4\n      swap3\n      swap2\n      swap1\n      dup2\n      dup2\n      mstore\n      0x20\n      add\n      dup4\n      dup4\n      dup1\n      dup3\n      dup5\n      calldatacopy\n      0x00\n      dup2\n      dup5\n      add\n      mstore\n      not(0x1f)\n      0x1f\n      dup3\n      add\n      and\n      swap1\n      pop\n      dup1\n      dup4\n      add\n      swap3\n      pop\n      pop\n      pop\n      pop\n      pop\n      pop\n      pop\n      dup2\n      mstore\n      0x20\n      add\n        /* \"Todo.sol\":314:319  false */\n      0x00\n        /* \"Todo.sol\":284:321  Todo({text: _text, completed: false}) */\n      iszero\n      iszero\n      dup2\n      mstore\n      pop\n        /* \"Todo.sol\":273:322  todos.push(Todo({text: _text, completed: false})) */\n      swap1\n      dup1\n      0x01\n      dup2\n      sload\n      add\n      dup1\n      dup3\n      sstore\n      dup1\n      swap2\n      pop\n      pop\n      0x01\n      swap1\n      sub\n      swap1\n      0x00\n      mstore\n      keccak256(0x00, 0x20)\n      swap1\n      0x02\n      mul\n      add\n      0x00\n      swap1\n      swap2\n      swap1\n      swap2\n      swap1\n      swap2\n      pop\n      0x00\n      dup3\n      add\n      mload\n      dup2\n      0x00\n      add\n      swap1\n      dup2\n      tag_42\n      swap2\n      swap1\n      tag_40\n      jump\t// in\n    tag_42:\n      pop\n      0x20\n      dup3\n      add\n      mload\n      dup2\n      0x01\n      add\n      exp(0x0100, 0x00)\n      dup2\n      sload\n      dup2\n      0xff\n      mul\n      not\n      and\n      swap1\n      dup4\n      iszero\n      iszero\n      mul\n      or\n      swap1\n      sstore\n      pop\n      pop\n      pop\n        /* \"Todo.sol\":333:349  Todo memory todo */\n      tag_43\n      tag_44\n      jump\t// in\n    tag_43:\n        /* \"Todo.sol\":383:388  _text */\n      dup3\n      dup3\n        /* \"Todo.sol\":371:388  todo.text = _text */\n      dup1\n      dup1\n      0x1f\n      add\n      0x20\n      dup1\n      swap2\n      div\n      mul\n      0x20\n      add\n      mload(0x40)\n      swap1\n      dup2\n      add\n      0x40\n      mstore\n      dup1\n      swap4\n      swap3\n      swap2\n      swap1\n      dup2\n      dup2\n      mstore\n      0x20\n      add\n      dup4\n      dup4\n      dup1\n      dup3\n      dup5\n      calldatacopy\n      0x00\n      dup2\n      dup5\n      add\n      mstore\n      not(0x1f)\n      0x1f\n      dup3\n      add\n      and\n      swap1\n      pop\n      dup1\n      dup4\n      add\n      swap3\n      pop\n      pop\n      pop\n      pop\n      pop\n      pop\n      pop\n        /* \"Todo.sol\":371:375  todo */\n      dup2\n        /* \"Todo.sol\":371:380  todo.text */\n      0x00\n      add\n        /* \"Todo.sol\":371:388  todo.text = _text */\n      dup2\n      swap1\n      mstore\n      pop\n        /* \"Todo.sol\":415:419  true */\n      0x01\n        /* \"Todo.sol\":398:402  todo */\n      dup2\n        /* \"Todo.sol\":398:412  todo.completed */\n      0x20\n      add\n        /* \"Todo.sol\":398:419  todo.completed = true */\n      swap1\n      iszero\n      iszero\n      swap1\n      dup2\n      iszero\n      iszero\n      dup2\n      mstore\n      pop\n      pop\n        /* \"Todo.sol\":429:434  todos */\n      0x00\n        /* \"Todo.sol\":440:444  todo */\n      dup2\n        /* \"Todo.sol\":429:445  todos.push(todo) */\n      swap1\n      dup1\n      0x01\n      dup2\n      sload\n      add\n      dup1\n      dup3\n      sstore\n      dup1\n      swap2\n      pop\n      pop\n      0x01\n      swap1\n      sub\n      swap1\n      0x00\n      mstore\n      keccak256(0x00, 0x20)\n      swap1\n      0x02\n      mul\n      add\n      0x00\n      swap1\n      swap2\n      swap1\n      swap2\n      swap1\n      swap2\n      pop\n      0x00\n      dup3\n      add\n      mload\n      dup2\n      0x00\n      add\n      swap1\n      dup2\n      tag_46\n      swap2\n      swap1\n      tag_40\n      jump\t// in\n    tag_46:\n      pop\n      0x20\n      dup3\n      add\n      mload\n      dup2\n      0x01\n      add\n      exp(0x0100, 0x00)\n      dup2\n      sload\n      dup2\n      0xff\n      mul\n      not\n      and\n      swap1\n      dup4\n      iszero\n      iszero\n      mul\n      or\n      swap1\n      sstore\n      pop\n      pop\n      pop\n        /* \"Todo.sol\":222:452  {... */\n      pop\n        /* \"Todo.sol\":176:452  function create(string calldata _text) public {... */\n      pop\n      pop\n      jump\t// out\n        /* \"Todo.sol\":150:169  Todo[] public todos */\n    tag_22:\n      0x00\n      dup2\n      dup2\n      sload\n      dup2\n      lt\n      tag_47\n      jumpi\n      0x00\n      dup1\n      revert\n    tag_47:\n      swap1\n      0x00\n      mstore\n      keccak256(0x00, 0x20)\n      swap1\n      0x02\n      mul\n      add\n      0x00\n      swap2\n      pop\n      swap1\n      pop\n      dup1\n      0x00\n      add\n      dup1\n      sload\n      tag_49\n      swap1\n      tag_50\n      jump\t// in\n    tag_49:\n      dup1\n      0x1f\n      add\n      0x20\n      dup1\n      swap2\n      div\n      mul\n      0x20\n      add\n      mload(0x40)\n      swap1\n      dup2\n      add\n      0x40\n      mstore\n      dup1\n      swap3\n      swap2\n      swap1\n      dup2\n      dup2\n      mstore\n      0x20\n      add\n      dup3\n      dup1\n      sload\n      tag_51\n      swap1\n      tag_50\n      jump\t// in\n    tag_51:\n      dup1\n      iszero\n      tag_52\n      jumpi\n      dup1\n      0x1f\n      lt\n      tag_53\n      jumpi\n      0x0100\n      dup1\n      dup4\n      sload\n      div\n      mul\n      dup4\n      mstore\n      swap2\n      0x20\n      add\n      swap2\n      jump(tag_52)\n    tag_53:\n      dup3\n      add\n      swap2\n      swap1\n      0x00\n      mstore\n      keccak256(0x00, 0x20)\n      swap1\n    tag_54:\n      dup2\n      sload\n      dup2\n      mstore\n      swap1\n      0x01\n      add\n      swap1\n      0x20\n      add\n      dup1\n      dup4\n      gt\n      tag_54\n      jumpi\n      dup3\n      swap1\n      sub\n      0x1f\n      and\n      dup3\n      add\n      swap2\n    tag_52:\n      pop\n      pop\n      pop\n      pop\n      pop\n      swap1\n      dup1\n      0x01\n      add\n      0x00\n      swap1\n      sload\n      swap1\n      0x0100\n      exp\n      swap1\n      div\n      0xff\n      and\n      swap1\n      pop\n      dup3\n      jump\t// out\n        /* \"Todo.sol\":462:628  function update(uint _index, string calldata _text) public {... */\n    tag_28:\n        /* \"Todo.sol\":531:547  Todo memory todo */\n      0x00\n        /* \"Todo.sol\":550:555  todos */\n      0x00\n        /* \"Todo.sol\":556:562  _index */\n      dup5\n        /* \"Todo.sol\":550:563  todos[_index] */\n      dup2\n      sload\n      dup2\n      lt\n      tag_56\n      jumpi\n      tag_57\n      tag_32\n      jump\t// in\n    tag_57:\n    tag_56:\n      swap1\n      0x00\n      mstore\n      keccak256(0x00, 0x20)\n      swap1\n      0x02\n      mul\n      add\n        /* \"Todo.sol\":531:563  Todo memory todo = todos[_index] */\n      mload(0x40)\n      dup1\n      0x40\n      add\n      0x40\n      mstore\n      swap1\n      dup2\n      0x00\n      dup3\n      add\n      dup1\n      sload\n      tag_59\n      swap1\n      tag_50\n      jump\t// in\n    tag_59:\n      dup1\n      0x1f\n      add\n      0x20\n      dup1\n      swap2\n      div\n      mul\n      0x20\n      add\n      mload(0x40)\n      swap1\n      dup2\n      add\n      0x40\n      mstore\n      dup1\n      swap3\n      swap2\n      swap1\n      dup2\n      dup2\n      mstore\n      0x20\n      add\n      dup3\n      dup1\n      sload\n      tag_60\n      swap1\n      tag_50\n      jump\t// in\n    tag_60:\n      dup1\n      iszero\n      tag_61\n      jumpi\n      dup1\n      0x1f\n      lt\n      tag_62\n      jumpi\n      0x0100\n      dup1\n      dup4\n      sload\n      div\n      mul\n      dup4\n      mstore\n      swap2\n      0x20\n      add\n      swap2\n      jump(tag_61)\n    tag_62:\n      dup3\n      add\n      swap2\n      swap1\n      0x00\n      mstore\n      keccak256(0x00, 0x20)\n      swap1\n    tag_63:\n      dup2\n      sload\n      dup2\n      mstore\n      swap1\n      0x01\n      add\n      swap1\n      0x20\n      add\n      dup1\n      dup4\n      gt\n      tag_63\n      jumpi\n      dup3\n      swap1\n      sub\n      0x1f\n      and\n      dup3\n      add\n      swap2\n    tag_61:\n      pop\n      pop\n      pop\n      pop\n      pop\n      dup2\n      mstore\n      0x20\n      add\n      0x01\n      dup3\n      add\n      0x00\n      swap1\n      sload\n      swap1\n      0x0100\n      exp\n      swap1\n      div\n      0xff\n      and\n      iszero\n      iszero\n      iszero\n      iszero\n      dup2\n      mstore\n      pop\n      pop\n      swap1\n      pop\n        /* \"Todo.sol\":585:590  _text */\n      dup3\n      dup3\n        /* \"Todo.sol\":573:590  todo.text = _text */\n      dup1\n      dup1\n      0x1f\n      add\n      0x20\n      dup1\n      swap2\n      div\n      mul\n      0x20\n      add\n      mload(0x40)\n      swap1\n      dup2\n      add\n      0x40\n      mstore\n      dup1\n      swap4\n      swap3\n      swap2\n      swap1\n      dup2\n      dup2\n      mstore\n      0x20\n      add\n      dup4\n      dup4\n      dup1\n      dup3\n      dup5\n      calldatacopy\n      0x00\n      dup2\n      dup5\n      add\n      mstore\n      not(0x1f)\n      0x1f\n      dup3\n      add\n      and\n      swap1\n      pop\n      dup1\n      dup4\n      add\n      swap3\n      pop\n      pop\n      pop\n      pop\n      pop\n      pop\n      pop\n        /* \"Todo.sol\":573:577  todo */\n      dup2\n        /* \"Todo.sol\":573:582  todo.text */\n      0x00\n      add\n        /* \"Todo.sol\":573:590  todo.text = _text */\n      dup2\n      swap1\n      mstore\n      pop\n        /* \"Todo.sol\":617:621  todo */\n      dup1\n        /* \"Todo.sol\":601:606  todos */\n      0x00\n        /* \"Todo.sol\":607:613  _index */\n      dup6\n        /* \"Todo.sol\":601:614  todos[_index] */\n      dup2\n      sload\n      dup2\n      lt\n      tag_64\n      jumpi\n      tag_65\n      tag_32\n      jump\t// in\n    tag_65:\n    tag_64:\n      swap1\n      0x00\n      mstore\n      keccak256(0x00, 0x20)\n      swap1\n      0x02\n      mul\n      add\n        /* \"Todo.sol\":601:621  todos[_index] = todo */\n      0x00\n      dup3\n      add\n      mload\n      dup2\n      0x00\n      add\n      swap1\n      dup2\n      tag_67\n      swap2\n      swap1\n      tag_40\n      jump\t// in\n    tag_67:\n      pop\n      0x20\n      dup3\n      add\n      mload\n      dup2\n      0x01\n      add\n      exp(0x0100, 0x00)\n      dup2\n      sload\n      dup2\n      0xff\n      mul\n      not\n      and\n      swap1\n      dup4\n      iszero\n      iszero\n      mul\n      or\n      swap1\n      sstore\n      pop\n      swap1\n      pop\n      pop\n        /* \"Todo.sol\":521:628  {... */\n      pop\n        /* \"Todo.sol\":462:628  function update(uint _index, string calldata _text) public {... */\n      pop\n      pop\n      pop\n      jump\t// out\n    tag_35:\n      pop\n      dup1\n      sload\n      tag_68\n      swap1\n      tag_50\n      jump\t// in\n    tag_68:\n      0x00\n      dup3\n      sstore\n      dup1\n      0x1f\n      lt\n      tag_70\n      jumpi\n      pop\n      jump(tag_69)\n    tag_70:\n      0x1f\n      add\n      0x20\n      swap1\n      div\n      swap1\n      0x00\n      mstore\n      keccak256(0x00, 0x20)\n      swap1\n      dup2\n      add\n      swap1\n      tag_71\n      swap2\n      swap1\n      tag_72\n      jump\t// in\n    tag_71:\n    tag_69:\n      pop\n      jump\t// out\n    tag_44:\n      mload(0x40)\n      dup1\n      0x40\n      add\n      0x40\n      mstore\n      dup1\n      0x60\n      dup2\n      mstore\n      0x20\n      add\n      iszero(iszero(0x00))\n      dup2\n      mstore\n      pop\n      swap1\n      jump\t// out\n    tag_72:\n    tag_73:\n      dup1\n      dup3\n      gt\n      iszero\n      tag_74\n      jumpi\n      0x00\n      dup2\n      0x00\n      swap1\n      sstore\n      pop\n      0x01\n      add\n      jump(tag_73)\n    tag_74:\n      pop\n      swap1\n      jump\t// out\n        /* \"#utility.yul\":88:205   */\n    tag_76:\n        /* \"#utility.yul\":197:198   */\n      0x00\n        /* \"#utility.yul\":194:195   */\n      0x00\n        /* \"#utility.yul\":187:199   */\n      revert\n        /* \"#utility.yul\":211:328   */\n    tag_77:\n        /* \"#utility.yul\":320:321   */\n      0x00\n        /* \"#utility.yul\":317:318   */\n      0x00\n        /* \"#utility.yul\":310:322   */\n      revert\n        /* \"#utility.yul\":334:411   */\n    tag_78:\n        /* \"#utility.yul\":371:378   */\n      0x00\n        /* \"#utility.yul\":400:405   */\n      dup2\n        /* \"#utility.yul\":389:405   */\n      swap1\n      pop\n        /* \"#utility.yul\":334:411   */\n      swap2\n      swap1\n      pop\n      jump\t// out\n        /* \"#utility.yul\":417:539   */\n    tag_79:\n        /* \"#utility.yul\":490:514   */\n      tag_116\n        /* \"#utility.yul\":508:513   */\n      dup2\n        /* \"#utility.yul\":490:514   */\n      tag_78\n      jump\t// in\n    tag_116:\n        /* \"#utility.yul\":483:488   */\n      dup2\n        /* \"#utility.yul\":480:515   */\n      eq\n        /* \"#utility.yul\":470:533   */\n      tag_117\n      jumpi\n        /* \"#utility.yul\":529:530   */\n      0x00\n        /* \"#utility.yul\":526:527   */\n      0x00\n        /* \"#utility.yul\":519:531   */\n      revert\n        /* \"#utility.yul\":470:533   */\n    tag_117:\n        /* \"#utility.yul\":417:539   */\n      pop\n      jump\t// out\n        /* \"#utility.yul\":545:684   */\n    tag_80:\n        /* \"#utility.yul\":591:596   */\n      0x00\n        /* \"#utility.yul\":629:635   */\n      dup2\n        /* \"#utility.yul\":616:636   */\n      calldataload\n        /* \"#utility.yul\":607:636   */\n      swap1\n      pop\n        /* \"#utility.yul\":645:678   */\n      tag_119\n        /* \"#utility.yul\":672:677   */\n      dup2\n        /* \"#utility.yul\":645:678   */\n      tag_79\n      jump\t// in\n    tag_119:\n        /* \"#utility.yul\":545:684   */\n      swap3\n      swap2\n      pop\n      pop\n      jump\t// out\n        /* \"#utility.yul\":690:1019   */\n    tag_10:\n        /* \"#utility.yul\":749:755   */\n      0x00\n        /* \"#utility.yul\":798:800   */\n      0x20\n        /* \"#utility.yul\":786:795   */\n      dup3\n        /* \"#utility.yul\":777:784   */\n      dup5\n        /* \"#utility.yul\":773:796   */\n      sub\n        /* \"#utility.yul\":769:801   */\n      slt\n        /* \"#utility.yul\":766:885   */\n      iszero\n      tag_121\n      jumpi\n        /* \"#utility.yul\":804:883   */\n      tag_122\n      tag_76\n      jump\t// in\n    tag_122:\n        /* \"#utility.yul\":766:885   */\n    tag_121:\n        /* \"#utility.yul\":924:925   */\n      0x00\n        /* \"#utility.yul\":949:1002   */\n      tag_123\n        /* \"#utility.yul\":994:1001   */\n      dup5\n        /* \"#utility.yul\":985:991   */\n      dup3\n        /* \"#utility.yul\":974:983   */\n      dup6\n        /* \"#utility.yul\":970:992   */\n      add\n        /* \"#utility.yul\":949:1002   */\n      tag_80\n      jump\t// in\n    tag_123:\n        /* \"#utility.yul\":939:1002   */\n      swap2\n      pop\n        /* \"#utility.yul\":895:1012   */\n      pop\n        /* \"#utility.yul\":690:1019   */\n      swap3\n      swap2\n      pop\n      pop\n      jump\t// out\n        /* \"#utility.yul\":1025:1143   */\n    tag_81:\n        /* \"#utility.yul\":1112:1136   */\n      tag_125\n        /* \"#utility.yul\":1130:1135   */\n      dup2\n        /* \"#utility.yul\":1112:1136   */\n      tag_78\n      jump\t// in\n    tag_125:\n        /* \"#utility.yul\":1107:1110   */\n      dup3\n        /* \"#utility.yul\":1100:1137   */\n      mstore\n        /* \"#utility.yul\":1025:1143   */\n      pop\n      pop\n      jump\t// out\n        /* \"#utility.yul\":1149:1371   */\n    tag_15:\n        /* \"#utility.yul\":1242:1246   */\n      0x00\n        /* \"#utility.yul\":1280:1282   */\n      0x20\n        /* \"#utility.yul\":1269:1278   */\n      dup3\n        /* \"#utility.yul\":1265:1283   */\n      add\n        /* \"#utility.yul\":1257:1283   */\n      swap1\n      pop\n        /* \"#utility.yul\":1293:1364   */\n      tag_127\n        /* \"#utility.yul\":1361:1362   */\n      0x00\n        /* \"#utility.yul\":1350:1359   */\n      dup4\n        /* \"#utility.yul\":1346:1363   */\n      add\n        /* \"#utility.yul\":1337:1343   */\n      dup5\n        /* \"#utility.yul\":1293:1364   */\n      tag_81\n      jump\t// in\n    tag_127:\n        /* \"#utility.yul\":1149:1371   */\n      swap3\n      swap2\n      pop\n      pop\n      jump\t// out\n        /* \"#utility.yul\":1377:1494   */\n    tag_82:\n        /* \"#utility.yul\":1486:1487   */\n      0x00\n        /* \"#utility.yul\":1483:1484   */\n      0x00\n        /* \"#utility.yul\":1476:1488   */\n      revert\n        /* \"#utility.yul\":1500:1617   */\n    tag_83:\n        /* \"#utility.yul\":1609:1610   */\n      0x00\n        /* \"#utility.yul\":1606:1607   */\n      0x00\n        /* \"#utility.yul\":1599:1611   */\n      revert\n        /* \"#utility.yul\":1623:1740   */\n    tag_84:\n        /* \"#utility.yul\":1732:1733   */\n      0x00\n        /* \"#utility.yul\":1729:1730   */\n      0x00\n        /* \"#utility.yul\":1722:1734   */\n      revert\n        /* \"#utility.yul\":1760:2313   */\n    tag_85:\n        /* \"#utility.yul\":1818:1826   */\n      0x00\n        /* \"#utility.yul\":1828:1834   */\n      0x00\n        /* \"#utility.yul\":1878:1881   */\n      dup4\n        /* \"#utility.yul\":1871:1875   */\n      0x1f\n        /* \"#utility.yul\":1863:1869   */\n      dup5\n        /* \"#utility.yul\":1859:1876   */\n      add\n        /* \"#utility.yul\":1855:1882   */\n      slt\n        /* \"#utility.yul\":1845:1967   */\n      tag_132\n      jumpi\n        /* \"#utility.yul\":1886:1965   */\n      tag_133\n      tag_82\n      jump\t// in\n    tag_133:\n        /* \"#utility.yul\":1845:1967   */\n    tag_132:\n        /* \"#utility.yul\":1999:2005   */\n      dup3\n        /* \"#utility.yul\":1986:2006   */\n      calldataload\n        /* \"#utility.yul\":1976:2006   */\n      swap1\n      pop\n        /* \"#utility.yul\":2029:2047   */\n      0xffffffffffffffff\n        /* \"#utility.yul\":2021:2027   */\n      dup2\n        /* \"#utility.yul\":2018:2048   */\n      gt\n        /* \"#utility.yul\":2015:2132   */\n      iszero\n      tag_134\n      jumpi\n        /* \"#utility.yul\":2051:2130   */\n      tag_135\n      tag_83\n      jump\t// in\n    tag_135:\n        /* \"#utility.yul\":2015:2132   */\n    tag_134:\n        /* \"#utility.yul\":2165:2169   */\n      0x20\n        /* \"#utility.yul\":2157:2163   */\n      dup4\n        /* \"#utility.yul\":2153:2170   */\n      add\n        /* \"#utility.yul\":2141:2170   */\n      swap2\n      pop\n        /* \"#utility.yul\":2219:2222   */\n      dup4\n        /* \"#utility.yul\":2211:2215   */\n      0x01\n        /* \"#utility.yul\":2203:2209   */\n      dup3\n        /* \"#utility.yul\":2199:2216   */\n      mul\n        /* \"#utility.yul\":2189:2197   */\n      dup4\n        /* \"#utility.yul\":2185:2217   */\n      add\n        /* \"#utility.yul\":2182:2223   */\n      gt\n        /* \"#utility.yul\":2179:2307   */\n      iszero\n      tag_136\n      jumpi\n        /* \"#utility.yul\":2226:2305   */\n      tag_137\n      tag_84\n      jump\t// in\n    tag_137:\n        /* \"#utility.yul\":2179:2307   */\n    tag_136:\n        /* \"#utility.yul\":1760:2313   */\n      swap3\n      pop\n      swap3\n      swap1\n      pop\n      jump\t// out\n        /* \"#utility.yul\":2319:2848   */\n    tag_18:\n        /* \"#utility.yul\":2390:2396   */\n      0x00\n        /* \"#utility.yul\":2398:2404   */\n      0x00\n        /* \"#utility.yul\":2447:2449   */\n      0x20\n        /* \"#utility.yul\":2435:2444   */\n      dup4\n        /* \"#utility.yul\":2426:2433   */\n      dup6\n        /* \"#utility.yul\":2422:2445   */\n      sub\n        /* \"#utility.yul\":2418:2450   */\n      slt\n        /* \"#utility.yul\":2415:2534   */\n      iszero\n      tag_139\n      jumpi\n        /* \"#utility.yul\":2453:2532   */\n      tag_140\n      tag_76\n      jump\t// in\n    tag_140:\n        /* \"#utility.yul\":2415:2534   */\n    tag_139:\n        /* \"#utility.yul\":2601:2602   */\n      0x00\n        /* \"#utility.yul\":2590:2599   */\n      dup4\n        /* \"#utility.yul\":2586:2603   */\n      add\n        /* \"#utility.yul\":2573:2604   */\n      calldataload\n        /* \"#utility.yul\":2631:2649   */\n      0xffffffffffffffff\n        /* \"#utility.yul\":2623:2629   */\n      dup2\n        /* \"#utility.yul\":2620:2650   */\n      gt\n        /* \"#utility.yul\":2617:2734   */\n      iszero\n      tag_141\n      jumpi\n        /* \"#utility.yul\":2653:2732   */\n      tag_142\n      tag_77\n      jump\t// in\n    tag_142:\n        /* \"#utility.yul\":2617:2734   */\n    tag_141:\n        /* \"#utility.yul\":2766:2831   */\n      tag_143\n        /* \"#utility.yul\":2823:2830   */\n      dup6\n        /* \"#utility.yul\":2814:2820   */\n      dup3\n        /* \"#utility.yul\":2803:2812   */\n      dup7\n        /* \"#utility.yul\":2799:2821   */\n      add\n        /* \"#utility.yul\":2766:2831   */\n      tag_85\n      jump\t// in\n    tag_143:\n        /* \"#utility.yul\":2748:2831   */\n      swap3\n      pop\n      swap3\n      pop\n        /* \"#utility.yul\":2544:2841   */\n      pop\n        /* \"#utility.yul\":2319:2848   */\n      swap3\n      pop\n      swap3\n      swap1\n      pop\n      jump\t// out\n        /* \"#utility.yul\":2854:2953   */\n    tag_86:\n        /* \"#utility.yul\":2906:2912   */\n      0x00\n        /* \"#utility.yul\":2940:2945   */\n      dup2\n        /* \"#utility.yul\":2934:2946   */\n      mload\n        /* \"#utility.yul\":2924:2946   */\n      swap1\n      pop\n        /* \"#utility.yul\":2854:2953   */\n      swap2\n      swap1\n      pop\n      jump\t// out\n        /* \"#utility.yul\":2959:3128   */\n    tag_87:\n        /* \"#utility.yul\":3043:3054   */\n      0x00\n        /* \"#utility.yul\":3077:3083   */\n      dup3\n        /* \"#utility.yul\":3072:3075   */\n      dup3\n        /* \"#utility.yul\":3065:3084   */\n      mstore\n        /* \"#utility.yul\":3117:3121   */\n      0x20\n        /* \"#utility.yul\":3112:3115   */\n      dup3\n        /* \"#utility.yul\":3108:3122   */\n      add\n        /* \"#utility.yul\":3093:3122   */\n      swap1\n      pop\n        /* \"#utility.yul\":2959:3128   */\n      swap3\n      swap2\n      pop\n      pop\n      jump\t// out\n        /* \"#utility.yul\":3134:3273   */\n    tag_88:\n        /* \"#utility.yul\":3223:3229   */\n      dup3\n        /* \"#utility.yul\":3218:3221   */\n      dup2\n        /* \"#utility.yul\":3213:3216   */\n      dup4\n        /* \"#utility.yul\":3207:3230   */\n      mcopy\n        /* \"#utility.yul\":3264:3265   */\n      0x00\n        /* \"#utility.yul\":3255:3261   */\n      dup4\n        /* \"#utility.yul\":3250:3253   */\n      dup4\n        /* \"#utility.yul\":3246:3262   */\n      add\n        /* \"#utility.yul\":3239:3266   */\n      mstore\n        /* \"#utility.yul\":3134:3273   */\n      pop\n      pop\n      pop\n      jump\t// out\n        /* \"#utility.yul\":3279:3381   */\n    tag_89:\n        /* \"#utility.yul\":3320:3326   */\n      0x00\n        /* \"#utility.yul\":3371:3373   */\n      0x1f\n        /* \"#utility.yul\":3367:3374   */\n      not\n        /* \"#utility.yul\":3362:3364   */\n      0x1f\n        /* \"#utility.yul\":3355:3360   */\n      dup4\n        /* \"#utility.yul\":3351:3365   */\n      add\n        /* \"#utility.yul\":3347:3375   */\n      and\n        /* \"#utility.yul\":3337:3375   */\n      swap1\n      pop\n        /* \"#utility.yul\":3279:3381   */\n      swap2\n      swap1\n      pop\n      jump\t// out\n        /* \"#utility.yul\":3387:3764   */\n    tag_90:\n        /* \"#utility.yul\":3475:3478   */\n      0x00\n        /* \"#utility.yul\":3503:3542   */\n      tag_149\n        /* \"#utility.yul\":3536:3541   */\n      dup3\n        /* \"#utility.yul\":3503:3542   */\n      tag_86\n      jump\t// in\n    tag_149:\n        /* \"#utility.yul\":3558:3629   */\n      tag_150\n        /* \"#utility.yul\":3622:3628   */\n      dup2\n        /* \"#utility.yul\":3617:3620   */\n      dup6\n        /* \"#utility.yul\":3558:3629   */\n      tag_87\n      jump\t// in\n    tag_150:\n        /* \"#utility.yul\":3551:3629   */\n      swap4\n      pop\n        /* \"#utility.yul\":3638:3703   */\n      tag_151\n        /* \"#utility.yul\":3696:3702   */\n      dup2\n        /* \"#utility.yul\":3691:3694   */\n      dup6\n        /* \"#utility.yul\":3684:3688   */\n      0x20\n        /* \"#utility.yul\":3677:3682   */\n      dup7\n        /* \"#utility.yul\":3673:3689   */\n      add\n        /* \"#utility.yul\":3638:3703   */\n      tag_88\n      jump\t// in\n    tag_151:\n        /* \"#utility.yul\":3728:3757   */\n      tag_152\n        /* \"#utility.yul\":3750:3756   */\n      dup2\n        /* \"#utility.yul\":3728:3757   */\n      tag_89\n      jump\t// in\n    tag_152:\n        /* \"#utility.yul\":3723:3726   */\n      dup5\n        /* \"#utility.yul\":3719:3758   */\n      add\n        /* \"#utility.yul\":3712:3758   */\n      swap2\n      pop\n        /* \"#utility.yul\":3479:3764   */\n      pop\n        /* \"#utility.yul\":3387:3764   */\n      swap3\n      swap2\n      pop\n      pop\n      jump\t// out\n        /* \"#utility.yul\":3770:3860   */\n    tag_91:\n        /* \"#utility.yul\":3804:3811   */\n      0x00\n        /* \"#utility.yul\":3847:3852   */\n      dup2\n        /* \"#utility.yul\":3840:3853   */\n      iszero\n        /* \"#utility.yul\":3833:3854   */\n      iszero\n        /* \"#utility.yul\":3822:3854   */\n      swap1\n      pop\n        /* \"#utility.yul\":3770:3860   */\n      swap2\n      swap1\n      pop\n      jump\t// out\n        /* \"#utility.yul\":3866:3975   */\n    tag_92:\n        /* \"#utility.yul\":3947:3968   */\n      tag_155\n        /* \"#utility.yul\":3962:3967   */\n      dup2\n        /* \"#utility.yul\":3947:3968   */\n      tag_91\n      jump\t// in\n    tag_155:\n        /* \"#utility.yul\":3942:3945   */\n      dup3\n        /* \"#utility.yul\":3935:3969   */\n      mstore\n        /* \"#utility.yul\":3866:3975   */\n      pop\n      pop\n      jump\t// out\n        /* \"#utility.yul\":3981:4392   */\n    tag_24:\n        /* \"#utility.yul\":4116:4120   */\n      0x00\n        /* \"#utility.yul\":4154:4156   */\n      0x40\n        /* \"#utility.yul\":4143:4152   */\n      dup3\n        /* \"#utility.yul\":4139:4157   */\n      add\n        /* \"#utility.yul\":4131:4157   */\n      swap1\n      pop\n        /* \"#utility.yul\":4203:4212   */\n      dup2\n        /* \"#utility.yul\":4197:4201   */\n      dup2\n        /* \"#utility.yul\":4193:4213   */\n      sub\n        /* \"#utility.yul\":4189:4190   */\n      0x00\n        /* \"#utility.yul\":4178:4187   */\n      dup4\n        /* \"#utility.yul\":4174:4191   */\n      add\n        /* \"#utility.yul\":4167:4214   */\n      mstore\n        /* \"#utility.yul\":4231:4309   */\n      tag_157\n        /* \"#utility.yul\":4304:4308   */\n      dup2\n        /* \"#utility.yul\":4295:4301   */\n      dup6\n        /* \"#utility.yul\":4231:4309   */\n      tag_90\n      jump\t// in\n    tag_157:\n        /* \"#utility.yul\":4223:4309   */\n      swap1\n      pop\n        /* \"#utility.yul\":4319:4385   */\n      tag_158\n        /* \"#utility.yul\":4381:4383   */\n      0x20\n        /* \"#utility.yul\":4370:4379   */\n      dup4\n        /* \"#utility.yul\":4366:4384   */\n      add\n        /* \"#utility.yul\":4357:4363   */\n      dup5\n        /* \"#utility.yul\":4319:4385   */\n      tag_92\n      jump\t// in\n    tag_158:\n        /* \"#utility.yul\":3981:4392   */\n      swap4\n      swap3\n      pop\n      pop\n      pop\n      jump\t// out\n        /* \"#utility.yul\":4398:5072   */\n    tag_27:\n        /* \"#utility.yul\":4478:4484   */\n      0x00\n        /* \"#utility.yul\":4486:4492   */\n      0x00\n        /* \"#utility.yul\":4494:4500   */\n      0x00\n        /* \"#utility.yul\":4543:4545   */\n      0x40\n        /* \"#utility.yul\":4531:4540   */\n      dup5\n        /* \"#utility.yul\":4522:4529   */\n      dup7\n        /* \"#utility.yul\":4518:4541   */\n      sub\n        /* \"#utility.yul\":4514:4546   */\n      slt\n        /* \"#utility.yul\":4511:4630   */\n      iszero\n      tag_160\n      jumpi\n        /* \"#utility.yul\":4549:4628   */\n      tag_161\n      tag_76\n      jump\t// in\n    tag_161:\n        /* \"#utility.yul\":4511:4630   */\n    tag_160:\n        /* \"#utility.yul\":4669:4670   */\n      0x00\n        /* \"#utility.yul\":4694:4747   */\n      tag_162\n        /* \"#utility.yul\":4739:4746   */\n      dup7\n        /* \"#utility.yul\":4730:4736   */\n      dup3\n        /* \"#utility.yul\":4719:4728   */\n      dup8\n        /* \"#utility.yul\":4715:4737   */\n      add\n        /* \"#utility.yul\":4694:4747   */\n      tag_80\n      jump\t// in\n    tag_162:\n        /* \"#utility.yul\":4684:4747   */\n      swap4\n      pop\n        /* \"#utility.yul\":4640:4757   */\n      pop\n        /* \"#utility.yul\":4824:4826   */\n      0x20\n        /* \"#utility.yul\":4813:4822   */\n      dup5\n        /* \"#utility.yul\":4809:4827   */\n      add\n        /* \"#utility.yul\":4796:4828   */\n      calldataload\n        /* \"#utility.yul\":4855:4873   */\n      0xffffffffffffffff\n        /* \"#utility.yul\":4847:4853   */\n      dup2\n        /* \"#utility.yul\":4844:4874   */\n      gt\n        /* \"#utility.yul\":4841:4958   */\n      iszero\n      tag_163\n      jumpi\n        /* \"#utility.yul\":4877:4956   */\n      tag_164\n      tag_77\n      jump\t// in\n    tag_164:\n        /* \"#utility.yul\":4841:4958   */\n    tag_163:\n        /* \"#utility.yul\":4990:5055   */\n      tag_165\n        /* \"#utility.yul\":5047:5054   */\n      dup7\n        /* \"#utility.yul\":5038:5044   */\n      dup3\n        /* \"#utility.yul\":5027:5036   */\n      dup8\n        /* \"#utility.yul\":5023:5045   */\n      add\n        /* \"#utility.yul\":4990:5055   */\n      tag_85\n      jump\t// in\n    tag_165:\n        /* \"#utility.yul\":4972:5055   */\n      swap3\n      pop\n      swap3\n      pop\n        /* \"#utility.yul\":4767:5065   */\n      pop\n        /* \"#utility.yul\":4398:5072   */\n      swap3\n      pop\n      swap3\n      pop\n      swap3\n      jump\t// out\n        /* \"#utility.yul\":5078:5258   */\n    tag_32:\n        /* \"#utility.yul\":5126:5203   */\n      0x4e487b7100000000000000000000000000000000000000000000000000000000\n        /* \"#utility.yul\":5123:5124   */\n      0x00\n        /* \"#utility.yul\":5116:5204   */\n      mstore\n        /* \"#utility.yul\":5223:5227   */\n      0x32\n        /* \"#utility.yul\":5220:5221   */\n      0x04\n        /* \"#utility.yul\":5213:5228   */\n      mstore\n        /* \"#utility.yul\":5247:5251   */\n      0x24\n        /* \"#utility.yul\":5244:5245   */\n      0x00\n        /* \"#utility.yul\":5237:5252   */\n      revert\n        /* \"#utility.yul\":5264:5444   */\n    tag_93:\n        /* \"#utility.yul\":5312:5389   */\n      0x4e487b7100000000000000000000000000000000000000000000000000000000\n        /* \"#utility.yul\":5309:5310   */\n      0x00\n        /* \"#utility.yul\":5302:5390   */\n      mstore\n        /* \"#utility.yul\":5409:5413   */\n      0x41\n        /* \"#utility.yul\":5406:5407   */\n      0x04\n        /* \"#utility.yul\":5399:5414   */\n      mstore\n        /* \"#utility.yul\":5433:5437   */\n      0x24\n        /* \"#utility.yul\":5430:5431   */\n      0x00\n        /* \"#utility.yul\":5423:5438   */\n      revert\n        /* \"#utility.yul\":5450:5630   */\n    tag_94:\n        /* \"#utility.yul\":5498:5575   */\n      0x4e487b7100000000000000000000000000000000000000000000000000000000\n        /* \"#utility.yul\":5495:5496   */\n      0x00\n        /* \"#utility.yul\":5488:5576   */\n      mstore\n        /* \"#utility.yul\":5595:5599   */\n      0x22\n        /* \"#utility.yul\":5592:5593   */\n      0x04\n        /* \"#utility.yul\":5585:5600   */\n      mstore\n        /* \"#utility.yul\":5619:5623   */\n      0x24\n        /* \"#utility.yul\":5616:5617   */\n      0x00\n        /* \"#utility.yul\":5609:5624   */\n      revert\n        /* \"#utility.yul\":5636:5956   */\n    tag_50:\n        /* \"#utility.yul\":5680:5686   */\n      0x00\n        /* \"#utility.yul\":5717:5718   */\n      0x02\n        /* \"#utility.yul\":5711:5715   */\n      dup3\n        /* \"#utility.yul\":5707:5719   */\n      div\n        /* \"#utility.yul\":5697:5719   */\n      swap1\n      pop\n        /* \"#utility.yul\":5764:5765   */\n      0x01\n        /* \"#utility.yul\":5758:5762   */\n      dup3\n        /* \"#utility.yul\":5754:5766   */\n      and\n        /* \"#utility.yul\":5785:5803   */\n      dup1\n        /* \"#utility.yul\":5775:5856   */\n      tag_170\n      jumpi\n        /* \"#utility.yul\":5841:5845   */\n      0x7f\n        /* \"#utility.yul\":5833:5839   */\n      dup3\n        /* \"#utility.yul\":5829:5846   */\n      and\n        /* \"#utility.yul\":5819:5846   */\n      swap2\n      pop\n        /* \"#utility.yul\":5775:5856   */\n    tag_170:\n        /* \"#utility.yul\":5903:5905   */\n      0x20\n        /* \"#utility.yul\":5895:5901   */\n      dup3\n        /* \"#utility.yul\":5892:5906   */\n      lt\n        /* \"#utility.yul\":5872:5890   */\n      dup2\n        /* \"#utility.yul\":5869:5907   */\n      sub\n        /* \"#utility.yul\":5866:5950   */\n      tag_171\n      jumpi\n        /* \"#utility.yul\":5922:5940   */\n      tag_172\n      tag_94\n      jump\t// in\n    tag_172:\n        /* \"#utility.yul\":5866:5950   */\n    tag_171:\n        /* \"#utility.yul\":5687:5956   */\n      pop\n        /* \"#utility.yul\":5636:5956   */\n      swap2\n      swap1\n      pop\n      jump\t// out\n        /* \"#utility.yul\":5962:6103   */\n    tag_95:\n        /* \"#utility.yul\":6011:6015   */\n      0x00\n        /* \"#utility.yul\":6034:6037   */\n      dup2\n        /* \"#utility.yul\":6026:6037   */\n      swap1\n      pop\n        /* \"#utility.yul\":6057:6060   */\n      dup2\n        /* \"#utility.yul\":6054:6055   */\n      0x00\n        /* \"#utility.yul\":6047:6061   */\n      mstore\n        /* \"#utility.yul\":6091:6095   */\n      0x20\n        /* \"#utility.yul\":6088:6089   */\n      0x00\n        /* \"#utility.yul\":6078:6096   */\n      keccak256\n        /* \"#utility.yul\":6070:6096   */\n      swap1\n      pop\n        /* \"#utility.yul\":5962:6103   */\n      swap2\n      swap1\n      pop\n      jump\t// out\n        /* \"#utility.yul\":6109:6202   */\n    tag_96:\n        /* \"#utility.yul\":6146:6152   */\n      0x00\n        /* \"#utility.yul\":6193:6195   */\n      0x20\n        /* \"#utility.yul\":6188:6190   */\n      0x1f\n        /* \"#utility.yul\":6181:6186   */\n      dup4\n        /* \"#utility.yul\":6177:6191   */\n      add\n        /* \"#utility.yul\":6173:6196   */\n      div\n        /* \"#utility.yul\":6163:6196   */\n      swap1\n      pop\n        /* \"#utility.yul\":6109:6202   */\n      swap2\n      swap1\n      pop\n      jump\t// out\n        /* \"#utility.yul\":6208:6315   */\n    tag_97:\n        /* \"#utility.yul\":6252:6260   */\n      0x00\n        /* \"#utility.yul\":6302:6307   */\n      dup3\n        /* \"#utility.yul\":6296:6300   */\n      dup3\n        /* \"#utility.yul\":6292:6308   */\n      shl\n        /* \"#utility.yul\":6271:6308   */\n      swap1\n      pop\n        /* \"#utility.yul\":6208:6315   */\n      swap3\n      swap2\n      pop\n      pop\n      jump\t// out\n        /* \"#utility.yul\":6321:6714   */\n    tag_98:\n        /* \"#utility.yul\":6390:6396   */\n      0x00\n        /* \"#utility.yul\":6440:6441   */\n      0x08\n        /* \"#utility.yul\":6428:6438   */\n      dup4\n        /* \"#utility.yul\":6424:6442   */\n      mul\n        /* \"#utility.yul\":6463:6560   */\n      tag_177\n        /* \"#utility.yul\":6493:6559   */\n      0xffffffffffffffffffffffffffffffffffffffffffffffffffffffffffffffff\n        /* \"#utility.yul\":6482:6491   */\n      dup3\n        /* \"#utility.yul\":6463:6560   */\n      tag_97\n      jump\t// in\n    tag_177:\n        /* \"#utility.yul\":6581:6620   */\n      tag_178\n        /* \"#utility.yul\":6611:6619   */\n      dup7\n        /* \"#utility.yul\":6600:6609   */\n      dup4\n        /* \"#utility.yul\":6581:6620   */\n      tag_97\n      jump\t// in\n    tag_178:\n        /* \"#utility.yul\":6569:6620   */\n      swap6\n      pop\n        /* \"#utility.yul\":6653:6657   */\n      dup1\n        /* \"#utility.yul\":6649:6658   */\n      not\n        /* \"#utility.yul\":6642:6647   */\n      dup5\n        /* \"#utility.yul\":6638:6659   */\n      and\n        /* \"#utility.yul\":6629:6659   */\n      swap4\n      pop\n        /* \"#utility.yul\":6702:6706   */\n      dup1\n        /* \"#utility.yul\":6692:6700   */\n      dup7\n        /* \"#utility.yul\":6688:6707   */\n      and\n        /* \"#utility.yul\":6681:6686   */\n      dup5\n        /* \"#utility.yul\":6678:6708   */\n      or\n        /* \"#utility.yul\":6668:6708   */\n      swap3\n      pop\n        /* \"#utility.yul\":6397:6714   */\n      pop\n      pop\n        /* \"#utility.yul\":6321:6714   */\n      swap4\n      swap3\n      pop\n      pop\n      pop\n      jump\t// out\n        /* \"#utility.yul\":6720:6780   */\n    tag_99:\n        /* \"#utility.yul\":6748:6751   */\n      0x00\n        /* \"#utility.yul\":6769:6774   */\n      dup2\n        /* \"#utility.yul\":6762:6774   */\n      swap1\n      pop\n        /* \"#utility.yul\":6720:6780   */\n      swap2\n      swap1\n      pop\n      jump\t// out\n        /* \"#utility.yul\":6786:6928   */\n    tag_100:\n        /* \"#utility.yul\":6836:6845   */\n      0x00\n        /* \"#utility.yul\":6869:6922   */\n      tag_181\n        /* \"#utility.yul\":6887:6921   */\n      tag_182\n        /* \"#utility.yul\":6896:6920   */\n      tag_183\n        /* \"#utility.yul\":6914:6919   */\n      dup5\n        /* \"#utility.yul\":6896:6920   */\n      tag_78\n      jump\t// in\n    tag_183:\n        /* \"#utility.yul\":6887:6921   */\n      tag_99\n      jump\t// in\n    tag_182:\n        /* \"#utility.yul\":6869:6922   */\n      tag_78\n      jump\t// in\n    tag_181:\n        /* \"#utility.yul\":6856:6922   */\n      swap1\n      pop\n        /* \"#utility.yul\":6786:6928   */\n      swap2\n      swap1\n      pop\n      jump\t// out\n        /* \"#utility.yul\":6934:7009   */\n    tag_101:\n        /* \"#utility.yul\":6977:6980   */\n      0x00\n        /* \"#utility.yul\":6998:7003   */\n      dup2\n        /* \"#utility.yul\":6991:7003   */\n      swap1\n      pop\n        /* \"#utility.yul\":6934:7009   */\n      swap2\n      swap1\n      pop\n      jump\t// out\n        /* \"#utility.yul\":7015:7284   */\n    tag_102:\n        /* \"#utility.yul\":7125:7164   */\n      tag_186\n        /* \"#utility.yul\":7156:7163   */\n      dup4\n        /* \"#utility.yul\":7125:7164   */\n      tag_100\n      jump\t// in\n    tag_186:\n        /* \"#utility.yul\":7186:7277   */\n      tag_187\n        /* \"#utility.yul\":7235:7276   */\n      tag_188\n        /* \"#utility.yul\":7259:7275   */\n      dup3\n        /* \"#utility.yul\":7235:7276   */\n      tag_101\n      jump\t// in\n    tag_188:\n        /* \"#utility.yul\":7227:7233   */\n      dup5\n        /* \"#utility.yul\":7220:7224   */\n      dup5\n        /* \"#utility.yul\":7214:7225   */\n      sload\n        /* \"#utility.yul\":7186:7277   */\n      tag_98\n      jump\t// in\n    tag_187:\n        /* \"#utility.yul\":7180:7184   */\n      dup3\n        /* \"#utility.yul\":7173:7278   */\n      sstore\n        /* \"#utility.yul\":7091:7284   */\n      pop\n        /* \"#utility.yul\":7015:7284   */\n      pop\n      pop\n      pop\n      jump\t// out\n        /* \"#utility.yul\":7290:7363   */\n    tag_103:\n        /* \"#utility.yul\":7335:7338   */\n      0x00\n        /* \"#utility.yul\":7356:7357   */\n      0x00\n        /* \"#utility.yul\":7349:7357   */\n      swap1\n      pop\n        /* \"#utility.yul\":7290:7363   */\n      swap1\n      jump\t// out\n        /* \"#utility.yul\":7369:7558   */\n    tag_104:\n        /* \"#utility.yul\":7446:7478   */\n      tag_191\n      tag_103\n      jump\t// in\n    tag_191:\n        /* \"#utility.yul\":7487:7552   */\n      tag_192\n        /* \"#utility.yul\":7545:7551   */\n      dup2\n        /* \"#utility.yul\":7537:7543   */\n      dup5\n        /* \"#utility.yul\":7531:7535   */\n      dup5\n        /* \"#utility.yul\":7487:7552   */\n      tag_102\n      jump\t// in\n    tag_192:\n        /* \"#utility.yul\":7422:7558   */\n      pop\n        /* \"#utility.yul\":7369:7558   */\n      pop\n      pop\n      jump\t// out\n        /* \"#utility.yul\":7564:7750   */\n    tag_105:\n        /* \"#utility.yul\":7624:7744   */\n    tag_194:\n        /* \"#utility.yul\":7641:7644   */\n      dup2\n        /* \"#utility.yul\":7634:7639   */\n      dup2\n        /* \"#utility.yul\":7631:7645   */\n      lt\n        /* \"#utility.yul\":7624:7744   */\n      iszero\n      tag_196\n      jumpi\n        /* \"#utility.yul\":7695:7734   */\n      tag_197\n        /* \"#utility.yul\":7732:7733   */\n      0x00\n        /* \"#utility.yul\":7725:7730   */\n      dup3\n        /* \"#utility.yul\":7695:7734   */\n      tag_104\n      jump\t// in\n    tag_197:\n        /* \"#utility.yul\":7668:7669   */\n      0x01\n        /* \"#utility.yul\":7661:7666   */\n      dup2\n        /* \"#utility.yul\":7657:7670   */\n      add\n        /* \"#utility.yul\":7648:7670   */\n      swap1\n      pop\n        /* \"#utility.yul\":7624:7744   */\n      jump(tag_194)\n    tag_196:\n        /* \"#utility.yul\":7564:7750   */\n      pop\n      pop\n      jump\t// out\n        /* \"#utility.yul\":7756:8299   */\n    tag_106:\n        /* \"#utility.yul\":7857:7859   */\n      0x1f\n        /* \"#utility.yul\":7852:7855   */\n      dup3\n        /* \"#utility.yul\":7849:7860   */\n      gt\n        /* \"#utility.yul\":7846:8292   */\n      iszero\n      tag_199\n      jumpi\n        /* \"#utility.yul\":7891:7929   */\n      tag_200\n        /* \"#utility.yul\":7923:7928   */\n      dup2\n        /* \"#utility.yul\":7891:7929   */\n      tag_95\n      jump\t// in\n    tag_200:\n        /* \"#utility.yul\":7975:8004   */\n      tag_201\n        /* \"#utility.yul\":7993:8003   */\n      dup5\n        /* \"#utility.yul\":7975:8004   */\n      tag_96\n      jump\t// in\n    tag_201:\n        /* \"#utility.yul\":7965:7973   */\n      dup2\n        /* \"#utility.yul\":7961:8005   */\n      add\n        /* \"#utility.yul\":8158:8160   */\n      0x20\n        /* \"#utility.yul\":8146:8156   */\n      dup6\n        /* \"#utility.yul\":8143:8161   */\n      lt\n        /* \"#utility.yul\":8140:8189   */\n      iszero\n      tag_202\n      jumpi\n        /* \"#utility.yul\":8179:8187   */\n      dup2\n        /* \"#utility.yul\":8164:8187   */\n      swap1\n      pop\n        /* \"#utility.yul\":8140:8189   */\n    tag_202:\n        /* \"#utility.yul\":8202:8282   */\n      tag_203\n        /* \"#utility.yul\":8258:8280   */\n      tag_204\n        /* \"#utility.yul\":8276:8279   */\n      dup6\n        /* \"#utility.yul\":8258:8280   */\n      tag_96\n      jump\t// in\n    tag_204:\n        /* \"#utility.yul\":8248:8256   */\n      dup4\n        /* \"#utility.yul\":8244:8281   */\n      add\n        /* \"#utility.yul\":8231:8242   */\n      dup3\n        /* \"#utility.yul\":8202:8282   */\n      tag_105\n      jump\t// in\n    tag_203:\n        /* \"#utility.yul\":7861:8292   */\n      pop\n      pop\n        /* \"#utility.yul\":7846:8292   */\n    tag_199:\n        /* \"#utility.yul\":7756:8299   */\n      pop\n      pop\n      pop\n      jump\t// out\n        /* \"#utility.yul\":8305:8422   */\n    tag_107:\n        /* \"#utility.yul\":8359:8367   */\n      0x00\n        /* \"#utility.yul\":8409:8414   */\n      dup3\n        /* \"#utility.yul\":8403:8407   */\n      dup3\n        /* \"#utility.yul\":8399:8415   */\n      shr\n        /* \"#utility.yul\":8378:8415   */\n      swap1\n      pop\n        /* \"#utility.yul\":8305:8422   */\n      swap3\n      swap2\n      pop\n      pop\n      jump\t// out\n        /* \"#utility.yul\":8428:8597   */\n    tag_108:\n        /* \"#utility.yul\":8472:8478   */\n      0x00\n        /* \"#utility.yul\":8505:8556   */\n      tag_207\n        /* \"#utility.yul\":8553:8554   */\n      0x00\n        /* \"#utility.yul\":8549:8555   */\n      not\n        /* \"#utility.yul\":8541:8546   */\n      dup5\n        /* \"#utility.yul\":8538:8539   */\n      0x08\n        /* \"#utility.yul\":8534:8547   */\n      mul\n        /* \"#utility.yul\":8505:8556   */\n      tag_107\n      jump\t// in\n    tag_207:\n        /* \"#utility.yul\":8501:8557   */\n      not\n        /* \"#utility.yul\":8586:8590   */\n      dup1\n        /* \"#utility.yul\":8580:8584   */\n      dup4\n        /* \"#utility.yul\":8576:8591   */\n      and\n        /* \"#utility.yul\":8566:8591   */\n      swap2\n      pop\n        /* \"#utility.yul\":8479:8597   */\n      pop\n        /* \"#utility.yul\":8428:8597   */\n      swap3\n      swap2\n      pop\n      pop\n      jump\t// out\n        /* \"#utility.yul\":8602:8897   */\n    tag_109:\n        /* \"#utility.yul\":8678:8682   */\n      0x00\n        /* \"#utility.yul\":8824:8853   */\n      tag_209\n        /* \"#utility.yul\":8849:8852   */\n      dup4\n        /* \"#utility.yul\":8843:8847   */\n      dup4\n        /* \"#utility.yul\":8824:8853   */\n      tag_108\n      jump\t// in\n    tag_209:\n        /* \"#utility.yul\":8816:8853   */\n      swap2\n      pop\n        /* \"#utility.yul\":8886:8889   */\n      dup3\n        /* \"#utility.yul\":8883:8884   */\n      0x02\n        /* \"#utility.yul\":8879:8890   */\n      mul\n        /* \"#utility.yul\":8873:8877   */\n      dup3\n        /* \"#utility.yul\":8870:8891   */\n      or\n        /* \"#utility.yul\":8862:8891   */\n      swap1\n      pop\n        /* \"#utility.yul\":8602:8897   */\n      swap3\n      swap2\n      pop\n      pop\n      jump\t// out\n        /* \"#utility.yul\":8902:10297   */\n    tag_40:\n        /* \"#utility.yul\":9019:9056   */\n      tag_211\n        /* \"#utility.yul\":9052:9055   */\n      dup3\n        /* \"#utility.yul\":9019:9056   */\n      tag_86\n      jump\t// in\n    tag_211:\n        /* \"#utility.yul\":9121:9139   */\n      0xffffffffffffffff\n        /* \"#utility.yul\":9113:9119   */\n      dup2\n        /* \"#utility.yul\":9110:9140   */\n      gt\n        /* \"#utility.yul\":9107:9163   */\n      iszero\n      tag_212\n      jumpi\n        /* \"#utility.yul\":9143:9161   */\n      tag_213\n      tag_93\n      jump\t// in\n    tag_213:\n        /* \"#utility.yul\":9107:9163   */\n    tag_212:\n        /* \"#utility.yul\":9187:9225   */\n      tag_214\n        /* \"#utility.yul\":9219:9223   */\n      dup3\n        /* \"#utility.yul\":9213:9224   */\n      sload\n        /* \"#utility.yul\":9187:9225   */\n      tag_50\n      jump\t// in\n    tag_214:\n        /* \"#utility.yul\":9272:9339   */\n      tag_215\n        /* \"#utility.yul\":9332:9338   */\n      dup3\n        /* \"#utility.yul\":9324:9330   */\n      dup3\n        /* \"#utility.yul\":9318:9322   */\n      dup6\n        /* \"#utility.yul\":9272:9339   */\n      tag_106\n      jump\t// in\n    tag_215:\n        /* \"#utility.yul\":9366:9367   */\n      0x00\n        /* \"#utility.yul\":9390:9394   */\n      0x20\n        /* \"#utility.yul\":9377:9394   */\n      swap1\n      pop\n        /* \"#utility.yul\":9422:9424   */\n      0x1f\n        /* \"#utility.yul\":9414:9420   */\n      dup4\n        /* \"#utility.yul\":9411:9425   */\n      gt\n        /* \"#utility.yul\":9439:9440   */\n      0x01\n        /* \"#utility.yul\":9434:10052   */\n      dup2\n      eq\n      tag_217\n      jumpi\n        /* \"#utility.yul\":10096:10097   */\n      0x00\n        /* \"#utility.yul\":10113:10119   */\n      dup5\n        /* \"#utility.yul\":10110:10187   */\n      iszero\n      tag_218\n      jumpi\n        /* \"#utility.yul\":10162:10171   */\n      dup3\n        /* \"#utility.yul\":10157:10160   */\n      dup8\n        /* \"#utility.yul\":10153:10172   */\n      add\n        /* \"#utility.yul\":10147:10173   */\n      mload\n        /* \"#utility.yul\":10138:10173   */\n      swap1\n      pop\n        /* \"#utility.yul\":10110:10187   */\n    tag_218:\n        /* \"#utility.yul\":10213:10280   */\n      tag_219\n        /* \"#utility.yul\":10273:10279   */\n      dup6\n        /* \"#utility.yul\":10266:10271   */\n      dup3\n        /* \"#utility.yul\":10213:10280   */\n      tag_109\n      jump\t// in\n    tag_219:\n        /* \"#utility.yul\":10207:10211   */\n      dup7\n        /* \"#utility.yul\":10200:10281   */\n      sstore\n        /* \"#utility.yul\":10069:10291   */\n      pop\n        /* \"#utility.yul\":9404:10291   */\n      jump(tag_216)\n        /* \"#utility.yul\":9434:10052   */\n    tag_217:\n        /* \"#utility.yul\":9486:9490   */\n      0x1f\n        /* \"#utility.yul\":9482:9491   */\n      not\n        /* \"#utility.yul\":9474:9480   */\n      dup5\n        /* \"#utility.yul\":9470:9492   */\n      and\n        /* \"#utility.yul\":9520:9557   */\n      tag_220\n        /* \"#utility.yul\":9552:9556   */\n      dup7\n        /* \"#utility.yul\":9520:9557   */\n      tag_95\n      jump\t// in\n    tag_220:\n        /* \"#utility.yul\":9579:9580   */\n      0x00\n        /* \"#utility.yul\":9593:9801   */\n    tag_221:\n        /* \"#utility.yul\":9607:9614   */\n      dup3\n        /* \"#utility.yul\":9604:9605   */\n      dup2\n        /* \"#utility.yul\":9601:9615   */\n      lt\n        /* \"#utility.yul\":9593:9801   */\n      iszero\n      tag_223\n      jumpi\n        /* \"#utility.yul\":9686:9695   */\n      dup5\n        /* \"#utility.yul\":9681:9684   */\n      dup10\n        /* \"#utility.yul\":9677:9696   */\n      add\n        /* \"#utility.yul\":9671:9697   */\n      mload\n        /* \"#utility.yul\":9663:9669   */\n      dup3\n        /* \"#utility.yul\":9656:9698   */\n      sstore\n        /* \"#utility.yul\":9737:9738   */\n      0x01\n        /* \"#utility.yul\":9729:9735   */\n      dup3\n        /* \"#utility.yul\":9725:9739   */\n      add\n        /* \"#utility.yul\":9715:9739   */\n      swap2\n      pop\n        /* \"#utility.yul\":9784:9786   */\n      0x20\n        /* \"#utility.yul\":9773:9782   */\n      dup6\n        /* \"#utility.yul\":9769:9787   */\n      add\n        /* \"#utility.yul\":9756:9787   */\n      swap5\n      pop\n        /* \"#utility.yul\":9630:9634   */\n      0x20\n        /* \"#utility.yul\":9627:9628   */\n      dup2\n        /* \"#utility.yul\":9623:9635   */\n      add\n        /* \"#utility.yul\":9618:9635   */\n      swap1\n      pop\n        /* \"#utility.yul\":9593:9801   */\n      jump(tag_221)\n    tag_223:\n        /* \"#utility.yul\":9829:9835   */\n      dup7\n        /* \"#utility.yul\":9820:9827   */\n      dup4\n        /* \"#utility.yul\":9817:9836   */\n      lt\n        /* \"#utility.yul\":9814:9993   */\n      iszero\n      tag_224\n      jumpi\n        /* \"#utility.yul\":9887:9896   */\n      dup5\n        /* \"#utility.yul\":9882:9885   */\n      dup10\n        /* \"#utility.yul\":9878:9897   */\n      add\n        /* \"#utility.yul\":9872:9898   */\n      mload\n        /* \"#utility.yul\":9930:9978   */\n      tag_225\n        /* \"#utility.yul\":9972:9976   */\n      0x1f\n        /* \"#utility.yul\":9964:9970   */\n      dup10\n        /* \"#utility.yul\":9960:9977   */\n      and\n        /* \"#utility.yul\":9949:9958   */\n      dup3\n        /* \"#utility.yul\":9930:9978   */\n      tag_108\n      jump\t// in\n    tag_225:\n        /* \"#utility.yul\":9922:9928   */\n      dup4\n        /* \"#utility.yul\":9915:9979   */\n      sstore\n        /* \"#utility.yul\":9837:9993   */\n      pop\n        /* \"#utility.yul\":9814:9993   */\n    tag_224:\n        /* \"#utility.yul\":10039:10040   */\n      0x01\n        /* \"#utility.yul\":10035:10036   */\n      0x02\n        /* \"#utility.yul\":10027:10033   */\n      dup9\n        /* \"#utility.yul\":10023:10037   */\n      mul\n        /* \"#utility.yul\":10019:10041   */\n      add\n        /* \"#utility.yul\":10013:10017   */\n      dup9\n        /* \"#utility.yul\":10006:10042   */\n      sstore\n        /* \"#utility.yul\":9441:10052   */\n      pop\n      pop\n      pop\n        /* \"#utility.yul\":9404:10291   */\n    tag_216:\n      pop\n        /* \"#utility.yul\":8994:10297   */\n      pop\n      pop\n      pop\n        /* \"#utility.yul\":8902:10297   */\n      pop\n      pop\n      jump\t// out\n\n    auxdata: 0xa2646970667358221220bb6c7d8bae0ea18a0f8b90f767f0b25f2a4b98e227b20b7ae5c6f13c426d14f964736f6c634300081e0033\n}\n",
				"bytecode": {
					"linkReferences": {},
					"object": "6080604052348015600e575f5ffd5b50610bda8061001c5f395ff3fe608060405234801561000f575f5ffd5b5060043610610055575f3560e01c80635f21f8c214610059578063a87d942c14610075578063b6a46b3b14610093578063bc8bc2b4146100af578063f745630f146100e0575b5f5ffd5b610073600480360381019061006e919061066a565b6100fc565b005b61007d610142565b60405161008a91906106a4565b60405180910390f35b6100ad60048036038101906100a8919061071e565b61014d565b005b6100c960048036038101906100c4919061066a565b61037f565b6040516100d79291906107f3565b60405180910390f35b6100fa60048036038101906100f59190610821565b61043f565b005b5f818154811061010f5761010e61087e565b5b905f5260205f2090600202015f5f82015f61012a91906105bc565b600182015f6101000a81549060ff0219169055505050565b5f5f80549050905090565b5f604051806040016040528084848080601f0160208091040260200160405190810160405280939291908181526020018383808284375f81840152601f19601f8201169050808301925050505050505081526020015f1515815250908060018154018082558091505060019003905f5260205f2090600202015f909190919091505f820151815f0190816101e19190610ad5565b506020820151816001015f6101000a81548160ff02191690831515021790555050505f604051806040016040528084848080601f0160208091040260200160405190810160405280939291908181526020018383808284375f81840152601f19601f8201169050808301925050505050505081526020015f1515815250908060018154018082558091505060019003905f5260205f2090600202015f909190919091505f820151815f0190816102979190610ad5565b506020820151816001015f6101000a81548160ff02191690831515021790555050506102c16105f9565b82828080601f0160208091040260200160405190810160405280939291908181526020018383808284375f81840152601f19601f82011690508083019250505050505050815f018190525060018160200190151590811515815250505f81908060018154018082558091505060019003905f5260205f2090600202015f909190919091505f820151815f0190816103589190610ad5565b506020820151816001015f6101000a81548160ff0219169083151502179055505050505050565b5f818154811061038d575f80fd5b905f5260205f2090600202015f91509050805f0180546103ac90610905565b80601f01602080910402602001604051908101604052809291908181526020018280546103d890610905565b80156104235780601f106103fa57610100808354040283529160200191610423565b820191905f5260205f20905b81548152906001019060200180831161040657829003601f168201915b505050505090806001015f9054906101000a900460ff16905082565b5f5f84815481106104535761045261087e565b5b905f5260205f2090600202016040518060400160405290815f8201805461047990610905565b80601f01602080910402602001604051908101604052809291908181526020018280546104a590610905565b80156104f05780601f106104c7576101008083540402835291602001916104f0565b820191905f5260205f20905b8154815290600101906020018083116104d357829003601f168201915b50505050508152602001600182015f9054906101000a900460ff161515151581525050905082828080601f0160208091040260200160405190810160405280939291908181526020018383808284375f81840152601f19601f82011690508083019250505050505050815f0181905250805f85815481106105745761057361087e565b5b905f5260205f2090600202015f820151815f0190816105939190610ad5565b506020820151816001015f6101000a81548160ff02191690831515021790555090505050505050565b5080546105c890610905565b5f825580601f106105d957506105f6565b601f0160209004905f5260205f20908101906105f59190610614565b5b50565b6040518060400160405280606081526020015f151581525090565b5b8082111561062b575f815f905550600101610615565b5090565b5f5ffd5b5f5ffd5b5f819050919050565b61064981610637565b8114610653575f5ffd5b50565b5f8135905061066481610640565b92915050565b5f6020828403121561067f5761067e61062f565b5b5f61068c84828501610656565b91505092915050565b61069e81610637565b82525050565b5f6020820190506106b75f830184610695565b92915050565b5f5ffd5b5f5ffd5b5f5ffd5b5f5f83601f8401126106de576106dd6106bd565b5b8235905067ffffffffffffffff8111156106fb576106fa6106c1565b5b602083019150836001820283011115610717576107166106c5565b5b9250929050565b5f5f602083850312156107345761073361062f565b5b5f83013567ffffffffffffffff81111561075157610750610633565b5b61075d858286016106c9565b92509250509250929050565b5f81519050919050565b5f82825260208201905092915050565b8281835e5f83830152505050565b5f601f19601f8301169050919050565b5f6107ab82610769565b6107b58185610773565b93506107c5818560208601610783565b6107ce81610791565b840191505092915050565b5f8115159050919050565b6107ed816107d9565b82525050565b5f6040820190508181035f83015261080b81856107a1565b905061081a60208301846107e4565b9392505050565b5f5f5f604084860312156108385761083761062f565b5b5f61084586828701610656565b935050602084013567ffffffffffffffff81111561086657610865610633565b5b610872868287016106c9565b92509250509250925092565b7f4e487b71000000000000000000000000000000000000000000000000000000005f52603260045260245ffd5b7f4e487b71000000000000000000000000000000000000000000000000000000005f52604160045260245ffd5b7f4e487b71000000000000000000000000000000000000000000000000000000005f52602260045260245ffd5b5f600282049050600182168061091c57607f821691505b60208210810361092f5761092e6108d8565b5b50919050565b5f819050815f5260205f209050919050565b5f6020601f8301049050919050565b5f82821b905092915050565b5f600883026109917fffffffffffffffffffffffffffffffffffffffffffffffffffffffffffffffff82610956565b61099b8683610956565b95508019841693508086168417925050509392505050565b5f819050919050565b5f6109d66109d16109cc84610637565b6109b3565b610637565b9050919050565b5f819050919050565b6109ef836109bc565b610a036109fb826109dd565b848454610962565b825550505050565b5f5f905090565b610a1a610a0b565b610a258184846109e6565b505050565b5b81811015610a4857610a3d5f82610a12565b600181019050610a2b565b5050565b601f821115610a8d57610a5e81610935565b610a6784610947565b81016020851015610a76578190505b610a8a610a8285610947565b830182610a2a565b50505b505050565b5f82821c905092915050565b5f610aad5f1984600802610a92565b1980831691505092915050565b5f610ac58383610a9e565b9150826002028217905092915050565b610ade82610769565b67ffffffffffffffff811115610af757610af66108ab565b5b610b018254610905565b610b0c828285610a4c565b5f60209050601f831160018114610b3d575f8415610b2b578287015190505b610b358582610aba565b865550610b9c565b601f198416610b4b86610935565b5f5b82811015610b7257848901518255600182019150602085019450602081019050610b4d565b86831015610b8f5784890151610b8b601f891682610a9e565b8355505b6001600288020188555050505b50505050505056fea2646970667358221220bb6c7d8bae0ea18a0f8b90f767f0b25f2a4b98e227b20b7ae5c6f13c426d14f964736f6c634300081e0033",
					"opcodes": "PUSH1 0x80 PUSH1 0x40 MSTORE CALLVALUE DUP1 ISZERO PUSH1 0xE JUMPI PUSH0 PUSH0 REVERT JUMPDEST POP PUSH2 0xBDA DUP1 PUSH2 0x1C PUSH0 CODECOPY PUSH0 RETURN INVALID PUSH1 0x80 PUSH1 0x40 MSTORE CALLVALUE DUP1 ISZERO PUSH2 0xF JUMPI PUSH0 PUSH0 REVERT JUMPDEST POP PUSH1 0x4 CALLDATASIZE LT PUSH2 0x55 JUMPI PUSH0 CALLDATALOAD PUSH1 0xE0 SHR DUP1 PUSH4 0x5F21F8C2 EQ PUSH2 0x59 JUMPI DUP1 PUSH4 0xA87D942C EQ PUSH2 0x75 JUMPI DUP1 PUSH4 0xB6A46B3B EQ PUSH2 0x93 JUMPI DUP1 PUSH4 0xBC8BC2B4 EQ PUSH2 0xAF JUMPI DUP1 PUSH4 0xF745630F EQ PUSH2 0xE0 JUMPI JUMPDEST PUSH0 PUSH0 REVERT JUMPDEST PUSH2 0x73 PUSH1 0x4 DUP1 CALLDATASIZE SUB DUP2 ADD SWAP1 PUSH2 0x6E SWAP2 SWAP1 PUSH2 0x66A JUMP JUMPDEST PUSH2 0xFC JUMP JUMPDEST STOP JUMPDEST PUSH2 0x7D PUSH2 0x142 JUMP JUMPDEST PUSH1 0x40 MLOAD PUSH2 0x8A SWAP2 SWAP1 PUSH2 0x6A4 JUMP JUMPDEST PUSH1 0x40 MLOAD DUP1 SWAP2 SUB SWAP1 RETURN JUMPDEST PUSH2 0xAD PUSH1 0x4 DUP1 CALLDATASIZE SUB DUP2 ADD SWAP1 PUSH2 0xA8 SWAP2 SWAP1 PUSH2 0x71E JUMP JUMPDEST PUSH2 0x14D JUMP JUMPDEST STOP JUMPDEST PUSH2 0xC9 PUSH1 0x4 DUP1 CALLDATASIZE SUB DUP2 ADD SWAP1 PUSH2 0xC4 SWAP2 SWAP1 PUSH2 0x66A JUMP JUMPDEST PUSH2 0x37F JUMP JUMPDEST PUSH1 0x40 MLOAD PUSH2 0xD7 SWAP3 SWAP2 SWAP1 PUSH2 0x7F3 JUMP JUMPDEST PUSH1 0x40 MLOAD DUP1 SWAP2 SUB SWAP1 RETURN JUMPDEST PUSH2 0xFA PUSH1 0x4 DUP1 CALLDATASIZE SUB DUP2 ADD SWAP1 PUSH2 0xF5 SWAP2 SWAP1 PUSH2 0x821 JUMP JUMPDEST PUSH2 0x43F JUMP JUMPDEST STOP JUMPDEST PUSH0 DUP2 DUP2 SLOAD DUP2 LT PUSH2 0x10F JUMPI PUSH2 0x10E PUSH2 0x87E JUMP JUMPDEST JUMPDEST SWAP1 PUSH0 MSTORE PUSH1 0x20 PUSH0 KECCAK256 SWAP1 PUSH1 0x2 MUL ADD PUSH0 PUSH0 DUP3 ADD PUSH0 PUSH2 0x12A SWAP2 SWAP1 PUSH2 0x5BC JUMP JUMPDEST PUSH1 0x1 DUP3 ADD PUSH0 PUSH2 0x100 EXP DUP2 SLOAD SWAP1 PUSH1 0xFF MUL NOT AND SWAP1 SSTORE POP POP POP JUMP JUMPDEST PUSH0 PUSH0 DUP1 SLOAD SWAP1 POP SWAP1 POP SWAP1 JUMP JUMPDEST PUSH0 PUSH1 0x40 MLOAD DUP1 PUSH1 0x40 ADD PUSH1 0x40 MSTORE DUP1 DUP5 DUP5 DUP1 DUP1 PUSH1 0x1F ADD PUSH1 0x20 DUP1 SWAP2 DIV MUL PUSH1 0x20 ADD PUSH1 0x40 MLOAD SWAP1 DUP2 ADD PUSH1 0x40 MSTORE DUP1 SWAP4 SWAP3 SWAP2 SWAP1 DUP2 DUP2 MSTORE PUSH1 0x20 ADD DUP4 DUP4 DUP1 DUP3 DUP5 CALLDATACOPY PUSH0 DUP2 DUP5 ADD MSTORE PUSH1 0x1F NOT PUSH1 0x1F DUP3 ADD AND SWAP1 POP DUP1 DUP4 ADD SWAP3 POP POP POP POP POP POP POP DUP2 MSTORE PUSH1 0x20 ADD PUSH0 ISZERO ISZERO DUP2 MSTORE POP SWAP1 DUP1 PUSH1 0x1 DUP2 SLOAD ADD DUP1 DUP3 SSTORE DUP1 SWAP2 POP POP PUSH1 0x1 SWAP1 SUB SWAP1 PUSH0 MSTORE PUSH1 0x20 PUSH0 KECCAK256 SWAP1 PUSH1 0x2 MUL ADD PUSH0 SWAP1 SWAP2 SWAP1 SWAP2 SWAP1 SWAP2 POP PUSH0 DUP3 ADD MLOAD DUP2 PUSH0 ADD SWAP1 DUP2 PUSH2 0x1E1 SWAP2 SWAP1 PUSH2 0xAD5 JUMP JUMPDEST POP PUSH1 0x20 DUP3 ADD MLOAD DUP2 PUSH1 0x1 ADD PUSH0 PUSH2 0x100 EXP DUP2 SLOAD DUP2 PUSH1 0xFF MUL NOT AND SWAP1 DUP4 ISZERO ISZERO MUL OR SWAP1 SSTORE POP POP POP PUSH0 PUSH1 0x40 MLOAD DUP1 PUSH1 0x40 ADD PUSH1 0x40 MSTORE DUP1 DUP5 DUP5 DUP1 DUP1 PUSH1 0x1F ADD PUSH1 0x20 DUP1 SWAP2 DIV MUL PUSH1 0x20 ADD PUSH1 0x40 MLOAD SWAP1 DUP2 ADD PUSH1 0x40 MSTORE DUP1 SWAP4 SWAP3 SWAP2 SWAP1 DUP2 DUP2 MSTORE PUSH1 0x20 ADD DUP4 DUP4 DUP1 DUP3 DUP5 CALLDATACOPY PUSH0 DUP2 DUP5 ADD MSTORE PUSH1 0x1F NOT PUSH1 0x1F DUP3 ADD AND SWAP1 POP DUP1 DUP4 ADD SWAP3 POP POP POP POP POP POP POP DUP2 MSTORE PUSH1 0x20 ADD PUSH0 ISZERO ISZERO DUP2 MSTORE POP SWAP1 DUP1 PUSH1 0x1 DUP2 SLOAD ADD DUP1 DUP3 SSTORE DUP1 SWAP2 POP POP PUSH1 0x1 SWAP1 SUB SWAP1 PUSH0 MSTORE PUSH1 0x20 PUSH0 KECCAK256 SWAP1 PUSH1 0x2 MUL ADD PUSH0 SWAP1 SWAP2 SWAP1 SWAP2 SWAP1 SWAP2 POP PUSH0 DUP3 ADD MLOAD DUP2 PUSH0 ADD SWAP1 DUP2 PUSH2 0x297 SWAP2 SWAP1 PUSH2 0xAD5 JUMP JUMPDEST POP PUSH1 0x20 DUP3 ADD MLOAD DUP2 PUSH1 0x1 ADD PUSH0 PUSH2 0x100 EXP DUP2 SLOAD DUP2 PUSH1 0xFF MUL NOT AND SWAP1 DUP4 ISZERO ISZERO MUL OR SWAP1 SSTORE POP POP POP PUSH2 0x2C1 PUSH2 0x5F9 JUMP JUMPDEST DUP3 DUP3 DUP1 DUP1 PUSH1 0x1F ADD PUSH1 0x20 DUP1 SWAP2 DIV MUL PUSH1 0x20 ADD PUSH1 0x40 MLOAD SWAP1 DUP2 ADD PUSH1 0x40 MSTORE DUP1 SWAP4 SWAP3 SWAP2 SWAP1 DUP2 DUP2 MSTORE PUSH1 0x20 ADD DUP4 DUP4 DUP1 DUP3 DUP5 CALLDATACOPY PUSH0 DUP2 DUP5 ADD MSTORE PUSH1 0x1F NOT PUSH1 0x1F DUP3 ADD AND SWAP1 POP DUP1 DUP4 ADD SWAP3 POP POP POP POP POP POP POP DUP2 PUSH0 ADD DUP2 SWAP1 MSTORE POP PUSH1 0x1 DUP2 PUSH1 0x20 ADD SWAP1 ISZERO ISZERO SWAP1 DUP2 ISZERO ISZERO DUP2 MSTORE POP POP PUSH0 DUP2 SWAP1 DUP1 PUSH1 0x1 DUP2 SLOAD ADD DUP1 DUP3 SSTORE DUP1 SWAP2 POP POP PUSH1 0x1 SWAP1 SUB SWAP1 PUSH0 MSTORE PUSH1 0x20 PUSH0 KECCAK256 SWAP1 PUSH1 0x2 MUL ADD PUSH0 SWAP1 SWAP2 SWAP1 SWAP2 SWAP1 SWAP2 POP PUSH0 DUP3 ADD MLOAD DUP2 PUSH0 ADD SWAP1 DUP2 PUSH2 0x358 SWAP2 SWAP1 PUSH2 0xAD5 JUMP JUMPDEST POP PUSH1 0x20 DUP3 ADD MLOAD DUP2 PUSH1 0x1 ADD PUSH0 PUSH2 0x100 EXP DUP2 SLOAD DUP2 PUSH1 0xFF MUL NOT AND SWAP1 DUP4 ISZERO ISZERO MUL OR SWAP1 SSTORE POP POP POP POP POP POP JUMP JUMPDEST PUSH0 DUP2 DUP2 SLOAD DUP2 LT PUSH2 0x38D JUMPI PUSH0 DUP1 REVERT JUMPDEST SWAP1 PUSH0 MSTORE PUSH1 0x20 PUSH0 KECCAK256 SWAP1 PUSH1 0x2 MUL ADD PUSH0 SWAP2 POP SWAP1 POP DUP1 PUSH0 ADD DUP1 SLOAD PUSH2 0x3AC SWAP1 PUSH2 0x905 JUMP JUMPDEST DUP1 PUSH1 0x1F ADD PUSH1 0x20 DUP1 SWAP2 DIV MUL PUSH1 0x20 ADD PUSH1 0x40 MLOAD SWAP1 DUP2 ADD PUSH1 0x40 MSTORE DUP1 SWAP3 SWAP2 SWAP1 DUP2 DUP2 MSTORE PUSH1 0x20 ADD DUP3 DUP1 SLOAD PUSH2 0x3D8 SWAP1 PUSH2 0x905 JUMP JUMPDEST DUP1 ISZERO PUSH2 0x423 JUMPI DUP1 PUSH1 0x1F LT PUSH2 0x3FA JUMPI PUSH2 0x100 DUP1 DUP4 SLOAD DIV MUL DUP4 MSTORE SWAP2 PUSH1 0x20 ADD SWAP2 PUSH2 0x423 JUMP JUMPDEST DUP3 ADD SWAP2 SWAP1 PUSH0 MSTORE PUSH1 0x20 PUSH0 KECCAK256 SWAP1 JUMPDEST DUP2 SLOAD DUP2 MSTORE SWAP1 PUSH1 0x1 ADD SWAP1 PUSH1 0x20 ADD DUP1 DUP4 GT PUSH2 0x406 JUMPI DUP3 SWAP1 SUB PUSH1 0x1F AND DUP3 ADD SWAP2 JUMPDEST POP POP POP POP POP SWAP1 DUP1 PUSH1 0x1 ADD PUSH0 SWAP1 SLOAD SWAP1 PUSH2 0x100 EXP SWAP1 DIV PUSH1 0xFF AND SWAP1 POP DUP3 JUMP JUMPDEST PUSH0 PUSH0 DUP5 DUP2 SLOAD DUP2 LT PUSH2 0x453 JUMPI PUSH2 0x452 PUSH2 0x87E JUMP JUMPDEST JUMPDEST SWAP1 PUSH0 MSTORE PUSH1 0x20 PUSH0 KECCAK256 SWAP1 PUSH1 0x2 MUL ADD PUSH1 0x40 MLOAD DUP1 PUSH1 0x40 ADD PUSH1 0x40 MSTORE SWAP1 DUP2 PUSH0 DUP3 ADD DUP1 SLOAD PUSH2 0x479 SWAP1 PUSH2 0x905 JUMP JUMPDEST DUP1 PUSH1 0x1F ADD PUSH1 0x20 DUP1 SWAP2 DIV MUL PUSH1 0x20 ADD PUSH1 0x40 MLOAD SWAP1 DUP2 ADD PUSH1 0x40 MSTORE DUP1 SWAP3 SWAP2 SWAP1 DUP2 DUP2 MSTORE PUSH1 0x20 ADD DUP3 DUP1 SLOAD PUSH2 0x4A5 SWAP1 PUSH2 0x905 JUMP JUMPDEST DUP1 ISZERO PUSH2 0x4F0 JUMPI DUP1 PUSH1 0x1F LT PUSH2 0x4C7 JUMPI PUSH2 0x100 DUP1 DUP4 SLOAD DIV MUL DUP4 MSTORE SWAP2 PUSH1 0x20 ADD SWAP2 PUSH2 0x4F0 JUMP JUMPDEST DUP3 ADD SWAP2 SWAP1 PUSH0 MSTORE PUSH1 0x20 PUSH0 KECCAK256 SWAP1 JUMPDEST DUP2 SLOAD DUP2 MSTORE SWAP1 PUSH1 0x1 ADD SWAP1 PUSH1 0x20 ADD DUP1 DUP4 GT PUSH2 0x4D3 JUMPI DUP3 SWAP1 SUB PUSH1 0x1F AND DUP3 ADD SWAP2 JUMPDEST POP POP POP POP POP DUP2 MSTORE PUSH1 0x20 ADD PUSH1 0x1 DUP3 ADD PUSH0 SWAP1 SLOAD SWAP1 PUSH2 0x100 EXP SWAP1 DIV PUSH1 0xFF AND ISZERO ISZERO ISZERO ISZERO DUP2 MSTORE POP POP SWAP1 POP DUP3 DUP3 DUP1 DUP1 PUSH1 0x1F ADD PUSH1 0x20 DUP1 SWAP2 DIV MUL PUSH1 0x20 ADD PUSH1 0x40 MLOAD SWAP1 DUP2 ADD PUSH1 0x40 MSTORE DUP1 SWAP4 SWAP3 SWAP2 SWAP1 DUP2 DUP2 MSTORE PUSH1 0x20 ADD DUP4 DUP4 DUP1 DUP3 DUP5 CALLDATACOPY PUSH0 DUP2 DUP5 ADD MSTORE PUSH1 0x1F NOT PUSH1 0x1F DUP3 ADD AND SWAP1 POP DUP1 DUP4 ADD SWAP3 POP POP POP POP POP POP POP DUP2 PUSH0 ADD DUP2 SWAP1 MSTORE POP DUP1 PUSH0 DUP6 DUP2 SLOAD DUP2 LT PUSH2 0x574 JUMPI PUSH2 0x573 PUSH2 0x87E JUMP JUMPDEST JUMPDEST SWAP1 PUSH0 MSTORE PUSH1 0x20 PUSH0 KECCAK256 SWAP1 PUSH1 0x2 MUL ADD PUSH0 DUP3 ADD MLOAD DUP2 PUSH0 ADD SWAP1 DUP2 PUSH2 0x593 SWAP2 SWAP1 PUSH2 0xAD5 JUMP JUMPDEST POP PUSH1 0x20 DUP3 ADD MLOAD DUP2 PUSH1 0x1 ADD PUSH0 PUSH2 0x100 EXP DUP2 SLOAD DUP2 PUSH1 0xFF MUL NOT AND SWAP1 DUP4 ISZERO ISZERO MUL OR SWAP1 SSTORE POP SWAP1 POP POP POP POP POP POP JUMP JUMPDEST POP DUP1 SLOAD PUSH2 0x5C8 SWAP1 PUSH2 0x905 JUMP JUMPDEST PUSH0 DUP3 SSTORE DUP1 PUSH1 0x1F LT PUSH2 0x5D9 JUMPI POP PUSH2 0x5F6 JUMP JUMPDEST PUSH1 0x1F ADD PUSH1 0x20 SWAP1 DIV SWAP1 PUSH0 MSTORE PUSH1 0x20 PUSH0 KECCAK256 SWAP1 DUP2 ADD SWAP1 PUSH2 0x5F5 SWAP2 SWAP1 PUSH2 0x614 JUMP JUMPDEST JUMPDEST POP JUMP JUMPDEST PUSH1 0x40 MLOAD DUP1 PUSH1 0x40 ADD PUSH1 0x40 MSTORE DUP1 PUSH1 0x60 DUP2 MSTORE PUSH1 0x20 ADD PUSH0 ISZERO ISZERO DUP2 MSTORE POP SWAP1 JUMP JUMPDEST JUMPDEST DUP1 DUP3 GT ISZERO PUSH2 0x62B JUMPI PUSH0 DUP2 PUSH0 SWAP1 SSTORE POP PUSH1 0x1 ADD PUSH2 0x615 JUMP JUMPDEST POP SWAP1 JUMP JUMPDEST PUSH0 PUSH0 REVERT JUMPDEST PUSH0 PUSH0 REVERT JUMPDEST PUSH0 DUP2 SWAP1 POP SWAP2 SWAP1 POP JUMP JUMPDEST PUSH2 0x649 DUP2 PUSH2 0x637 JUMP JUMPDEST DUP2 EQ PUSH2 0x653 JUMPI PUSH0 PUSH0 REVERT JUMPDEST POP JUMP JUMPDEST PUSH0 DUP2 CALLDATALOAD SWAP1 POP PUSH2 0x664 DUP2 PUSH2 0x640 JUMP JUMPDEST SWAP3 SWAP2 POP POP JUMP JUMPDEST PUSH0 PUSH1 0x20 DUP3 DUP5 SUB SLT ISZERO PUSH2 0x67F JUMPI PUSH2 0x67E PUSH2 0x62F JUMP JUMPDEST JUMPDEST PUSH0 PUSH2 0x68C DUP5 DUP3 DUP6 ADD PUSH2 0x656 JUMP JUMPDEST SWAP2 POP POP SWAP3 SWAP2 POP POP JUMP JUMPDEST PUSH2 0x69E DUP2 PUSH2 0x637 JUMP JUMPDEST DUP3 MSTORE POP POP JUMP JUMPDEST PUSH0 PUSH1 0x20 DUP3 ADD SWAP1 POP PUSH2 0x6B7 PUSH0 DUP4 ADD DUP5 PUSH2 0x695 JUMP JUMPDEST SWAP3 SWAP2 POP POP JUMP JUMPDEST PUSH0 PUSH0 REVERT JUMPDEST PUSH0 PUSH0 REVERT JUMPDEST PUSH0 PUSH0 REVERT JUMPDEST PUSH0 PUSH0 DUP4 PUSH1 0x1F DUP5 ADD SLT PUSH2 0x6DE JUMPI PUSH2 0x6DD PUSH2 0x6BD JUMP JUMPDEST JUMPDEST DUP3 CALLDATALOAD SWAP1 POP PUSH8 0xFFFFFFFFFFFFFFFF DUP2 GT ISZERO PUSH2 0x6FB JUMPI PUSH2 0x6FA PUSH2 0x6C1 JUMP JUMPDEST JUMPDEST PUSH1 0x20 DUP4 ADD SWAP2 POP DUP4 PUSH1 0x1 DUP3 MUL DUP4 ADD GT ISZERO PUSH2 0x717 JUMPI PUSH2 0x716 PUSH2 0x6C5 JUMP JUMPDEST JUMPDEST SWAP3 POP SWAP3 SWAP1 POP JUMP JUMPDEST PUSH0 PUSH0 PUSH1 0x20 DUP4 DUP6 SUB SLT ISZERO PUSH2 0x734 JUMPI PUSH2 0x733 PUSH2 0x62F JUMP JUMPDEST JUMPDEST PUSH0 DUP4 ADD CALLDATALOAD PUSH8 0xFFFFFFFFFFFFFFFF DUP2 GT ISZERO PUSH2 0x751 JUMPI PUSH2 0x750 PUSH2 0x633 JUMP JUMPDEST JUMPDEST PUSH2 0x75D DUP6 DUP3 DUP7 ADD PUSH2 0x6C9 JUMP JUMPDEST SWAP3 POP SWAP3 POP POP SWAP3 POP SWAP3 SWAP1 POP JUMP JUMPDEST PUSH0 DUP2 MLOAD SWAP1 POP SWAP2 SWAP1 POP JUMP JUMPDEST PUSH0 DUP3 DUP3 MSTORE PUSH1 0x20 DUP3 ADD SWAP1 POP SWAP3 SWAP2 POP POP JUMP JUMPDEST DUP3 DUP2 DUP4 MCOPY PUSH0 DUP4 DUP4 ADD MSTORE POP POP POP JUMP JUMPDEST PUSH0 PUSH1 0x1F NOT PUSH1 0x1F DUP4 ADD AND SWAP1 POP SWAP2 SWAP1 POP JUMP JUMPDEST PUSH0 PUSH2 0x7AB DUP3 PUSH2 0x769 JUMP JUMPDEST PUSH2 0x7B5 DUP2 DUP6 PUSH2 0x773 JUMP JUMPDEST SWAP4 POP PUSH2 0x7C5 DUP2 DUP6 PUSH1 0x20 DUP7 ADD PUSH2 0x783 JUMP JUMPDEST PUSH2 0x7CE DUP2 PUSH2 0x791 JUMP JUMPDEST DUP5 ADD SWAP2 POP POP SWAP3 SWAP2 POP POP JUMP JUMPDEST PUSH0 DUP2 ISZERO ISZERO SWAP1 POP SWAP2 SWAP1 POP JUMP JUMPDEST PUSH2 0x7ED DUP2 PUSH2 0x7D9 JUMP JUMPDEST DUP3 MSTORE POP POP JUMP JUMPDEST PUSH0 PUSH1 0x40 DUP3 ADD SWAP1 POP DUP2 DUP2 SUB PUSH0 DUP4 ADD MSTORE PUSH2 0x80B DUP2 DUP6 PUSH2 0x7A1 JUMP JUMPDEST SWAP1 POP PUSH2 0x81A PUSH1 0x20 DUP4 ADD DUP5 PUSH2 0x7E4 JUMP JUMPDEST SWAP4 SWAP3 POP POP POP JUMP JUMPDEST PUSH0 PUSH0 PUSH0 PUSH1 0x40 DUP5 DUP7 SUB SLT ISZERO PUSH2 0x838 JUMPI PUSH2 0x837 PUSH2 0x62F JUMP JUMPDEST JUMPDEST PUSH0 PUSH2 0x845 DUP7 DUP3 DUP8 ADD PUSH2 0x656 JUMP JUMPDEST SWAP4 POP POP PUSH1 0x20 DUP5 ADD CALLDATALOAD PUSH8 0xFFFFFFFFFFFFFFFF DUP2 GT ISZERO PUSH2 0x866 JUMPI PUSH2 0x865 PUSH2 0x633 JUMP JUMPDEST JUMPDEST PUSH2 0x872 DUP7 DUP3 DUP8 ADD PUSH2 0x6C9 JUMP JUMPDEST SWAP3 POP SWAP3 POP POP SWAP3 POP SWAP3 POP SWAP3 JUMP JUMPDEST PUSH32 0x4E487B7100000000000000000000000000000000000000000000000000000000 PUSH0 MSTORE PUSH1 0x32 PUSH1 0x4 MSTORE PUSH1 0x24 PUSH0 REVERT JUMPDEST PUSH32 0x4E487B7100000000000000000000000000000000000000000000000000000000 PUSH0 MSTORE PUSH1 0x41 PUSH1 0x4 MSTORE PUSH1 0x24 PUSH0 REVERT JUMPDEST PUSH32 0x4E487B7100000000000000000000000000000000000000000000000000000000 PUSH0 MSTORE PUSH1 0x22 PUSH1 0x4 MSTORE PUSH1 0x24 PUSH0 REVERT JUMPDEST PUSH0 PUSH1 0x2 DUP3 DIV SWAP1 POP PUSH1 0x1 DUP3 AND DUP1 PUSH2 0x91C JUMPI PUSH1 0x7F DUP3 AND SWAP2 POP JUMPDEST PUSH1 0x20 DUP3 LT DUP2 SUB PUSH2 0x92F JUMPI PUSH2 0x92E PUSH2 0x8D8 JUMP JUMPDEST JUMPDEST POP SWAP2 SWAP1 POP JUMP JUMPDEST PUSH0 DUP2 SWAP1 POP DUP2 PUSH0 MSTORE PUSH1 0x20 PUSH0 KECCAK256 SWAP1 POP SWAP2 SWAP1 POP JUMP JUMPDEST PUSH0 PUSH1 0x20 PUSH1 0x1F DUP4 ADD DIV SWAP1 POP SWAP2 SWAP1 POP JUMP JUMPDEST PUSH0 DUP3 DUP3 SHL SWAP1 POP SWAP3 SWAP2 POP POP JUMP JUMPDEST PUSH0 PUSH1 0x8 DUP4 MUL PUSH2 0x991 PUSH32 0xFFFFFFFFFFFFFFFFFFFFFFFFFFFFFFFFFFFFFFFFFFFFFFFFFFFFFFFFFFFFFFFF DUP3 PUSH2 0x956 JUMP JUMPDEST PUSH2 0x99B DUP7 DUP4 PUSH2 0x956 JUMP JUMPDEST SWAP6 POP DUP1 NOT DUP5 AND SWAP4 POP DUP1 DUP7 AND DUP5 OR SWAP3 POP POP POP SWAP4 SWAP3 POP POP POP JUMP JUMPDEST PUSH0 DUP2 SWAP1 POP SWAP2 SWAP1 POP JUMP JUMPDEST PUSH0 PUSH2 0x9D6 PUSH2 0x9D1 PUSH2 0x9CC DUP5 PUSH2 0x637 JUMP JUMPDEST PUSH2 0x9B3 JUMP JUMPDEST PUSH2 0x637 JUMP JUMPDEST SWAP1 POP SWAP2 SWAP1 POP JUMP JUMPDEST PUSH0 DUP2 SWAP1 POP SWAP2 SWAP1 POP JUMP JUMPDEST PUSH2 0x9EF DUP4 PUSH2 0x9BC JUMP JUMPDEST PUSH2 0xA03 PUSH2 0x9FB DUP3 PUSH2 0x9DD JUMP JUMPDEST DUP5 DUP5 SLOAD PUSH2 0x962 JUMP JUMPDEST DUP3 SSTORE POP POP POP POP JUMP JUMPDEST PUSH0 PUSH0 SWAP1 POP SWAP1 JUMP JUMPDEST PUSH2 0xA1A PUSH2 0xA0B JUMP JUMPDEST PUSH2 0xA25 DUP2 DUP5 DUP5 PUSH2 0x9E6 JUMP JUMPDEST POP POP POP JUMP JUMPDEST JUMPDEST DUP2 DUP2 LT ISZERO PUSH2 0xA48 JUMPI PUSH2 0xA3D PUSH0 DUP3 PUSH2 0xA12 JUMP JUMPDEST PUSH1 0x1 DUP2 ADD SWAP1 POP PUSH2 0xA2B JUMP JUMPDEST POP POP JUMP JUMPDEST PUSH1 0x1F DUP3 GT ISZERO PUSH2 0xA8D JUMPI PUSH2 0xA5E DUP2 PUSH2 0x935 JUMP JUMPDEST PUSH2 0xA67 DUP5 PUSH2 0x947 JUMP JUMPDEST DUP2 ADD PUSH1 0x20 DUP6 LT ISZERO PUSH2 0xA76 JUMPI DUP2 SWAP1 POP JUMPDEST PUSH2 0xA8A PUSH2 0xA82 DUP6 PUSH2 0x947 JUMP JUMPDEST DUP4 ADD DUP3 PUSH2 0xA2A JUMP JUMPDEST POP POP JUMPDEST POP POP POP JUMP JUMPDEST PUSH0 DUP3 DUP3 SHR SWAP1 POP SWAP3 SWAP2 POP POP JUMP JUMPDEST PUSH0 PUSH2 0xAAD PUSH0 NOT DUP5 PUSH1 0x8 MUL PUSH2 0xA92 JUMP JUMPDEST NOT DUP1 DUP4 AND SWAP2 POP POP SWAP3 SWAP2 POP POP JUMP JUMPDEST PUSH0 PUSH2 0xAC5 DUP4 DUP4 PUSH2 0xA9E JUMP JUMPDEST SWAP2 POP DUP3 PUSH1 0x2 MUL DUP3 OR SWAP1 POP SWAP3 SWAP2 POP POP JUMP JUMPDEST PUSH2 0xADE DUP3 PUSH2 0x769 JUMP JUMPDEST PUSH8 0xFFFFFFFFFFFFFFFF DUP2 GT ISZERO PUSH2 0xAF7 JUMPI PUSH2 0xAF6 PUSH2 0x8AB JUMP JUMPDEST JUMPDEST PUSH2 0xB01 DUP3 SLOAD PUSH2 0x905 JUMP JUMPDEST PUSH2 0xB0C DUP3 DUP3 DUP6 PUSH2 0xA4C JUMP JUMPDEST PUSH0 PUSH1 0x20 SWAP1 POP PUSH1 0x1F DUP4 GT PUSH1 0x1 DUP2 EQ PUSH2 0xB3D JUMPI PUSH0 DUP5 ISZERO PUSH2 0xB2B JUMPI DUP3 DUP8 ADD MLOAD SWAP1 POP JUMPDEST PUSH2 0xB35 DUP6 DUP3 PUSH2 0xABA JUMP JUMPDEST DUP7 SSTORE POP PUSH2 0xB9C JUMP JUMPDEST PUSH1 0x1F NOT DUP5 AND PUSH2 0xB4B DUP7 PUSH2 0x935 JUMP JUMPDEST PUSH0 JUMPDEST DUP3 DUP2 LT ISZERO PUSH2 0xB72 JUMPI DUP5 DUP10 ADD MLOAD DUP3 SSTORE PUSH1 0x1 DUP3 ADD SWAP2 POP PUSH1 0x20 DUP6 ADD SWAP5 POP PUSH1 0x20 DUP2 ADD SWAP1 POP PUSH2 0xB4D JUMP JUMPDEST DUP7 DUP4 LT ISZERO PUSH2 0xB8F JUMPI DUP5 DUP10 ADD MLOAD PUSH2 0xB8B PUSH1 0x1F DUP10 AND DUP3 PUSH2 0xA9E JUMP JUMPDEST DUP4 SSTORE POP JUMPDEST PUSH1 0x1 PUSH1 0x2 DUP9 MUL ADD DUP9 SSTORE POP POP POP JUMPDEST POP POP POP POP POP POP JUMP INVALID LOG2 PUSH5 0x6970667358 0x22 SLT KECCAK256 0xBB PUSH13 0x7D8BAE0EA18A0F8B90F767F0B2 PUSH0 0x2A 0x4B SWAP9 0xE2 0x27 0xB2 SIGNEXTEND PUSH27 0xE5C6F13C426D14F964736F6C634300081E00330000000000000000 "
				},
				"gasEstimates": {
					"creation": {
						"codeDepositCost": "606800",
						"executionCost": "636",
						"totalCost": "607436"
					},
					"external": {
						"create(string)": "infinite",
						"delTodo(uint256)": "infinite",
						"getCount()": "2439",
						"todos(uint256)": "infinite",
						"update(uint256,string)": "infinite"
					}
				},
				"methodIdentifiers": {
					"create(string)": "b6a46b3b",
					"delTodo(uint256)": "5f21f8c2",
					"getCount()": "a87d942c",
					"todos(uint256)": "bc8bc2b4",
					"update(uint256,string)": "f745630f"
				}
			},
			"storageLayout": {
				"storage": [
					{
						"astId": 10,
						"contract": "Todo.sol:MyTodo",
						"label": "todos",
						"offset": 0,
						"slot": "0",
						"type": "t_array(t_struct(Todo)6_storage)dyn_storage"
					}
				],
				"types": {
					"t_array(t_struct(Todo)6_storage)dyn_storage": {
						"base": "t_struct(Todo)6_storage",
						"encoding": "dynamic_array",
						"label": "struct MyTodo.Todo[]",
						"numberOfBytes": "32"
					},
					"t_bool": {
						"encoding": "inplace",
						"label": "bool",
						"numberOfBytes": "1"
					},
					"t_string_storage": {
						"encoding": "bytes",
						"label": "string",
						"numberOfBytes": "32"
					},
					"t_struct(Todo)6_storage": {
						"encoding": "inplace",
						"label": "struct MyTodo.Todo",
						"members": [
							{
								"astId": 3,
								"contract": "Todo.sol:MyTodo",
								"label": "text",
								"offset": 0,
								"slot": "0",
								"type": "t_string_storage"
							},
							{
								"astId": 5,
								"contract": "Todo.sol:MyTodo",
								"label": "completed",
								"offset": 0,
								"slot": "1",
								"type": "t_bool"
							}
						],
						"numberOfBytes": "64"
					}
				}
			},
			"userdoc": {
				"kind": "user",
				"methods": {},
				"version": 1
			}
		}
	}
}