{
	"Todo.sol": {
		"MyTodo": {
			"abi": [
				{
					"inputs": [
						{
							"internalType": "string",
							"name": "_text",
							"type": "string"
						}
					],
					"name": "create",
					"outputs": [],
					"stateMutability": "nonpayable",
					"type": "function"
				},
				{
					"inputs": [
						{
							"internalType": "uint256",
							"name": "_index",
							"type": "uint256"
						}
					],
					"name": "delTodo",
					"outputs": [],
					"stateMutability": "nonpayable",
					"type": "function"
				},
				{
					"inputs": [
						{
							"internalType": "uint256",
							"name": "",
							"type": "uint256"
						}
					],
					"name": "todos",
					"outputs": [
						{
							"internalType": "string",
							"name": "text",
							"type": "string"
						},
						{
							"internalType": "bool",
							"name": "completed",
							"type": "bool"
						}
					],
					"stateMutability": "view",
					"type": "function"
				},
				{
					"inputs": [
						{
							"internalType": "uint256",
							"name": "_index",
							"type": "uint256"
						},
						{
							"internalType": "string",
							"name": "_text",
							"type": "string"
						}
					],
					"name": "update",
					"outputs": [],
					"stateMutability": "nonpayable",
					"type": "function"
				}
			],
			"devdoc": {
				"kind": "dev",
				"methods": {},
				"version": 1
			},
			"evm": {
				"assembly": "    /* \"Todo.sol\":58:672  contract MyTodo {... */\n  mstore(0x40, 0x80)\n  callvalue\n  dup1\n  iszero\n  tag_1\n  jumpi\n  revert(0x00, 0x00)\ntag_1:\n  pop\n  dataSize(sub_0)\n  dup1\n  dataOffset(sub_0)\n  0x00\n  codecopy\n  0x00\n  return\nstop\n\nsub_0: assembly {\n        /* \"Todo.sol\":58:672  contract MyTodo {... */\n      mstore(0x40, 0x80)\n      callvalue\n      dup1\n      iszero\n      tag_1\n      jumpi\n      revert(0x00, 0x00)\n    tag_1:\n      pop\n      jumpi(tag_2, lt(calldatasize, 0x04))\n      shr(0xe0, calldataload(0x00))\n      dup1\n      0x5f21f8c2\n      eq\n      tag_3\n      jumpi\n      dup1\n      0xb6a46b3b\n      eq\n      tag_4\n      jumpi\n      dup1\n      0xbc8bc2b4\n      eq\n      tag_5\n      jumpi\n      dup1\n      0xf745630f\n      eq\n      tag_6\n      jumpi\n    tag_2:\n      revert(0x00, 0x00)\n        /* \"Todo.sol\":595:669  function delTodo(uint _index) public {... */\n    tag_3:\n      tag_7\n      0x04\n      dup1\n      calldatasize\n      sub\n      dup2\n      add\n      swap1\n      tag_8\n      swap2\n      swap1\n      tag_9\n      jump\t// in\n    tag_8:\n      tag_10\n      jump\t// in\n    tag_7:\n      stop\n        /* \"Todo.sol\":176:443  function create(string calldata _text) public {... */\n    tag_4:\n      tag_11\n      0x04\n      dup1\n      calldatasize\n      sub\n      dup2\n      add\n      swap1\n      tag_12\n      swap2\n      swap1\n      tag_13\n      jump\t// in\n    tag_12:\n      tag_14\n      jump\t// in\n    tag_11:\n      stop\n        /* \"Todo.sol\":150:169  Todo[] public todos */\n    tag_5:\n      tag_15\n      0x04\n      dup1\n      calldatasize\n      sub\n      dup2\n      add\n      swap1\n      tag_16\n      swap2\n      swap1\n      tag_9\n      jump\t// in\n    tag_16:\n      tag_17\n      jump\t// in\n    tag_15:\n      mload(0x40)\n      tag_18\n      swap3\n      swap2\n      swap1\n      tag_19\n      jump\t// in\n    tag_18:\n      mload(0x40)\n      dup1\n      swap2\n      sub\n      swap1\n      return\n        /* \"Todo.sol\":453:589  function update(uint _index, string calldata _text) public {... */\n    tag_6:\n      tag_20\n      0x04\n      dup1\n      calldatasize\n      sub\n      dup2\n      add\n      swap1\n      tag_21\n      swap2\n      swap1\n      tag_22\n      jump\t// in\n    tag_21:\n      tag_23\n      jump\t// in\n    tag_20:\n      stop\n        /* \"Todo.sol\":595:669  function delTodo(uint _index) public {... */\n    tag_10:\n        /* \"Todo.sol\":649:654  todos */\n      0x00\n        /* \"Todo.sol\":655:661  _index */\n      dup2\n        /* \"Todo.sol\":649:662  todos[_index] */\n      dup2\n      sload\n      dup2\n      lt\n      tag_25\n      jumpi\n      tag_26\n      tag_27\n      jump\t// in\n    tag_26:\n    tag_25:\n      swap1\n      0x00\n      mstore\n      keccak256(0x00, 0x20)\n      swap1\n      0x02\n      mul\n      add\n      0x00\n        /* \"Todo.sol\":642:662  delete todos[_index] */\n      0x00\n      dup3\n      add\n      0x00\n      tag_29\n      swap2\n      swap1\n      tag_30\n      jump\t// in\n    tag_29:\n      0x01\n      dup3\n      add\n      exp(0x0100, 0x00)\n      dup2\n      sload\n      swap1\n      0xff\n      mul\n      not\n      and\n      swap1\n      sstore\n      pop\n      pop\n        /* \"Todo.sol\":595:669  function delTodo(uint _index) public {... */\n      pop\n      jump\t// out\n        /* \"Todo.sol\":176:443  function create(string calldata _text) public {... */\n    tag_14:\n        /* \"Todo.sol\":232:237  todos */\n      0x00\n        /* \"Todo.sol\":243:261  Todo(_text, false) */\n      mload(0x40)\n      dup1\n      0x40\n      add\n      0x40\n      mstore\n      dup1\n        /* \"Todo.sol\":248:253  _text */\n      dup5\n      dup5\n        /* \"Todo.sol\":243:261  Todo(_text, false) */\n      dup1\n      dup1\n      0x1f\n      add\n      0x20\n      dup1\n      swap2\n      div\n      mul\n      0x20\n      add\n      mload(0x40)\n      swap1\n      dup2\n      add\n      0x40\n      mstore\n      dup1\n      swap4\n      swap3\n      swap2\n      swap1\n      dup2\n      dup2\n      mstore\n      0x20\n      add\n      dup4\n      dup4\n      dup1\n      dup3\n      dup5\n      calldatacopy\n      0x00\n      dup2\n      dup5\n      add\n      mstore\n      not(0x1f)\n      0x1f\n      dup3\n      add\n      and\n      swap1\n      pop\n      dup1\n      dup4\n      add\n      swap3\n      pop\n      pop\n      pop\n      pop\n      pop\n      pop\n      pop\n      dup2\n      mstore\n      0x20\n      add\n        /* \"Todo.sol\":255:260  false */\n      0x00\n        /* \"Todo.sol\":243:261  Todo(_text, false) */\n      iszero\n      iszero\n      dup2\n      mstore\n      pop\n        /* \"Todo.sol\":232:262  todos.push(Todo(_text, false)) */\n      swap1\n      dup1\n      0x01\n      dup2\n      sload\n      add\n      dup1\n      dup3\n      sstore\n      dup1\n      swap2\n      pop\n      pop\n      0x01\n      swap1\n      sub\n      swap1\n      0x00\n      mstore\n      keccak256(0x00, 0x20)\n      swap1\n      0x02\n      mul\n      add\n      0x00\n      swap1\n      swap2\n      swap1\n      swap2\n      swap1\n      swap2\n      pop\n      0x00\n      dup3\n      add\n      mload\n      dup2\n      0x00\n      add\n      swap1\n      dup2\n      tag_33\n      swap2\n      swap1\n      tag_34\n      jump\t// in\n    tag_33:\n      pop\n      0x20\n      dup3\n      add\n      mload\n      dup2\n      0x01\n      add\n      exp(0x0100, 0x00)\n      dup2\n      sload\n      dup2\n      0xff\n      mul\n      not\n      and\n      swap1\n      dup4\n      iszero\n      iszero\n      mul\n      or\n      swap1\n      sstore\n      pop\n      pop\n      pop\n        /* \"Todo.sol\":273:278  todos */\n      0x00\n        /* \"Todo.sol\":284:321  Todo({text: _text, completed: false}) */\n      mload(0x40)\n      dup1\n      0x40\n      add\n      0x40\n      mstore\n      dup1\n        /* \"Todo.sol\":296:301  _text */\n      dup5\n      dup5\n        /* \"Todo.sol\":284:321  Todo({text: _text, completed: false}) */\n      dup1\n      dup1\n      0x1f\n      add\n      0x20\n      dup1\n      swap2\n      div\n      mul\n      0x20\n      add\n      mload(0x40)\n      swap1\n      dup2\n      add\n      0x40\n      mstore\n      dup1\n      swap4\n      swap3\n      swap2\n      swap1\n      dup2\n      dup2\n      mstore\n      0x20\n      add\n      dup4\n      dup4\n      dup1\n      dup3\n      dup5\n      calldatacopy\n      0x00\n      dup2\n      dup5\n      add\n      mstore\n      not(0x1f)\n      0x1f\n      dup3\n      add\n      and\n      swap1\n      pop\n      dup1\n      dup4\n      add\n      swap3\n      pop\n      pop\n      pop\n      pop\n      pop\n      pop\n      pop\n      dup2\n      mstore\n      0x20\n      add\n        /* \"Todo.sol\":314:319  false */\n      0x00\n        /* \"Todo.sol\":284:321  Todo({text: _text, completed: false}) */\n      iszero\n      iszero\n      dup2\n      mstore\n      pop\n        /* \"Todo.sol\":273:322  todos.push(Todo({text: _text, completed: false})) */\n      swap1\n      dup1\n      0x01\n      dup2\n      sload\n      add\n      dup1\n      dup3\n      sstore\n      dup1\n      swap2\n      pop\n      pop\n      0x01\n      swap1\n      sub\n      swap1\n      0x00\n      mstore\n      keccak256(0x00, 0x20)\n      swap1\n      0x02\n      mul\n      add\n      0x00\n      swap1\n      swap2\n      swap1\n      swap2\n      swap1\n      swap2\n      pop\n      0x00\n      dup3\n      add\n      mload\n      dup2\n      0x00\n      add\n      swap1\n      dup2\n      tag_36\n      swap2\n      swap1\n      tag_34\n      jump\t// in\n    tag_36:\n      pop\n      0x20\n      dup3\n      add\n      mload\n      dup2\n      0x01\n      add\n      exp(0x0100, 0x00)\n      dup2\n      sload\n      dup2\n      0xff\n      mul\n      not\n      and\n      swap1\n      dup4\n      iszero\n      iszero\n      mul\n      or\n      swap1\n      sstore\n      pop\n      pop\n      pop\n        /* \"Todo.sol\":333:349  Todo memory todo */\n      tag_37\n      tag_38\n      jump\t// in\n    tag_37:\n        /* \"Todo.sol\":371:376  _text */\n      dup3\n      dup3\n        /* \"Todo.sol\":359:376  todo.text = _text */\n      dup1\n      dup1\n      0x1f\n      add\n      0x20\n      dup1\n      swap2\n      div\n      mul\n      0x20\n      add\n      mload(0x40)\n      swap1\n      dup2\n      add\n      0x40\n      mstore\n      dup1\n      swap4\n      swap3\n      swap2\n      swap1\n      dup2\n      dup2\n      mstore\n      0x20\n      add\n      dup4\n      dup4\n      dup1\n      dup3\n      dup5\n      calldatacopy\n      0x00\n      dup2\n      dup5\n      add\n      mstore\n      not(0x1f)\n      0x1f\n      dup3\n      add\n      and\n      swap1\n      pop\n      dup1\n      dup4\n      add\n      swap3\n      pop\n      pop\n      pop\n      pop\n      pop\n      pop\n      pop\n        /* \"Todo.sol\":359:363  todo */\n      dup2\n        /* \"Todo.sol\":359:368  todo.text */\n      0x00\n      add\n        /* \"Todo.sol\":359:376  todo.text = _text */\n      dup2\n      swap1\n      mstore\n      pop\n        /* \"Todo.sol\":403:408  false */\n      0x00\n        /* \"Todo.sol\":386:390  todo */\n      dup2\n        /* \"Todo.sol\":386:400  todo.completed */\n      0x20\n      add\n        /* \"Todo.sol\":386:408  todo.completed = false */\n      swap1\n      iszero\n      iszero\n      swap1\n      dup2\n      iszero\n      iszero\n      dup2\n      mstore\n      pop\n      pop\n        /* \"Todo.sol\":222:443  {... */\n      pop\n        /* \"Todo.sol\":176:443  function create(string calldata _text) public {... */\n      pop\n      pop\n      jump\t// out\n        /* \"Todo.sol\":150:169  Todo[] public todos */\n    tag_17:\n      0x00\n      dup2\n      dup2\n      sload\n      dup2\n      lt\n      tag_39\n      jumpi\n      0x00\n      dup1\n      revert\n    tag_39:\n      swap1\n      0x00\n      mstore\n      keccak256(0x00, 0x20)\n      swap1\n      0x02\n      mul\n      add\n      0x00\n      swap2\n      pop\n      swap1\n      pop\n      dup1\n      0x00\n      add\n      dup1\n      sload\n      tag_41\n      swap1\n      tag_42\n      jump\t// in\n    tag_41:\n      dup1\n      0x1f\n      add\n      0x20\n      dup1\n      swap2\n      div\n      mul\n      0x20\n      add\n      mload(0x40)\n      swap1\n      dup2\n      add\n      0x40\n      mstore\n      dup1\n      swap3\n      swap2\n      swap1\n      dup2\n      dup2\n      mstore\n      0x20\n      add\n      dup3\n      dup1\n      sload\n      tag_43\n      swap1\n      tag_42\n      jump\t// in\n    tag_43:\n      dup1\n      iszero\n      tag_44\n      jumpi\n      dup1\n      0x1f\n      lt\n      tag_45\n      jumpi\n      0x0100\n      dup1\n      dup4\n      sload\n      div\n      mul\n      dup4\n      mstore\n      swap2\n      0x20\n      add\n      swap2\n      jump(tag_44)\n    tag_45:\n      dup3\n      add\n      swap2\n      swap1\n      0x00\n      mstore\n      keccak256(0x00, 0x20)\n      swap1\n    tag_46:\n      dup2\n      sload\n      dup2\n      mstore\n      swap1\n      0x01\n      add\n      swap1\n      0x20\n      add\n      dup1\n      dup4\n      gt\n      tag_46\n      jumpi\n      dup3\n      swap1\n      sub\n      0x1f\n      and\n      dup3\n      add\n      swap2\n    tag_44:\n      pop\n      pop\n      pop\n      pop\n      pop\n      swap1\n      dup1\n      0x01\n      add\n      0x00\n      swap1\n      sload\n      swap1\n      0x0100\n      exp\n      swap1\n      div\n      0xff\n      and\n      swap1\n      pop\n      dup3\n      jump\t// out\n        /* \"Todo.sol\":453:589  function update(uint _index, string calldata _text) public {... */\n    tag_23:\n        /* \"Todo.sol\":522:539  Todo storage todo */\n      0x00\n        /* \"Todo.sol\":542:547  todos */\n      0x00\n        /* \"Todo.sol\":548:554  _index */\n      dup5\n        /* \"Todo.sol\":542:555  todos[_index] */\n      dup2\n      sload\n      dup2\n      lt\n      tag_48\n      jumpi\n      tag_49\n      tag_27\n      jump\t// in\n    tag_49:\n    tag_48:\n      swap1\n      0x00\n      mstore\n      keccak256(0x00, 0x20)\n      swap1\n      0x02\n      mul\n      add\n        /* \"Todo.sol\":522:555  Todo storage todo = todos[_index] */\n      swap1\n      pop\n        /* \"Todo.sol\":577:582  _text */\n      dup3\n      dup3\n        /* \"Todo.sol\":565:569  todo */\n      dup3\n        /* \"Todo.sol\":565:574  todo.text */\n      0x00\n      add\n        /* \"Todo.sol\":565:582  todo.text = _text */\n      swap2\n      dup3\n      tag_51\n      swap3\n      swap2\n      swap1\n      tag_52\n      jump\t// in\n    tag_51:\n      pop\n        /* \"Todo.sol\":512:589  {... */\n      pop\n        /* \"Todo.sol\":453:589  function update(uint _index, string calldata _text) public {... */\n      pop\n      pop\n      pop\n      jump\t// out\n    tag_30:\n      pop\n      dup1\n      sload\n      tag_53\n      swap1\n      tag_42\n      jump\t// in\n    tag_53:\n      0x00\n      dup3\n      sstore\n      dup1\n      0x1f\n      lt\n      tag_55\n      jumpi\n      pop\n      jump(tag_54)\n    tag_55:\n      0x1f\n      add\n      0x20\n      swap1\n      div\n      swap1\n      0x00\n      mstore\n      keccak256(0x00, 0x20)\n      swap1\n      dup2\n      add\n      swap1\n      tag_56\n      swap2\n      swap1\n      tag_57\n      jump\t// in\n    tag_56:\n    tag_54:\n      pop\n      jump\t// out\n    tag_38:\n      mload(0x40)\n      dup1\n      0x40\n      add\n      0x40\n      mstore\n      dup1\n      0x60\n      dup2\n      mstore\n      0x20\n      add\n      iszero(iszero(0x00))\n      dup2\n      mstore\n      pop\n      swap1\n      jump\t// out\n    tag_57:\n    tag_58:\n      dup1\n      dup3\n      gt\n      iszero\n      tag_59\n      jumpi\n      0x00\n      dup2\n      0x00\n      swap1\n      sstore\n      pop\n      0x01\n      add\n      jump(tag_58)\n    tag_59:\n      pop\n      swap1\n      jump\t// out\n        /* \"#utility.yul\":88:205   */\n    tag_61:\n        /* \"#utility.yul\":197:198   */\n      0x00\n        /* \"#utility.yul\":194:195   */\n      0x00\n        /* \"#utility.yul\":187:199   */\n      revert\n        /* \"#utility.yul\":211:328   */\n    tag_62:\n        /* \"#utility.yul\":320:321   */\n      0x00\n        /* \"#utility.yul\":317:318   */\n      0x00\n        /* \"#utility.yul\":310:322   */\n      revert\n        /* \"#utility.yul\":334:411   */\n    tag_63:\n        /* \"#utility.yul\":371:378   */\n      0x00\n        /* \"#utility.yul\":400:405   */\n      dup2\n        /* \"#utility.yul\":389:405   */\n      swap1\n      pop\n        /* \"#utility.yul\":334:411   */\n      swap2\n      swap1\n      pop\n      jump\t// out\n        /* \"#utility.yul\":417:539   */\n    tag_64:\n        /* \"#utility.yul\":490:514   */\n      tag_101\n        /* \"#utility.yul\":508:513   */\n      dup2\n        /* \"#utility.yul\":490:514   */\n      tag_63\n      jump\t// in\n    tag_101:\n        /* \"#utility.yul\":483:488   */\n      dup2\n        /* \"#utility.yul\":480:515   */\n      eq\n        /* \"#utility.yul\":470:533   */\n      tag_102\n      jumpi\n        /* \"#utility.yul\":529:530   */\n      0x00\n        /* \"#utility.yul\":526:527   */\n      0x00\n        /* \"#utility.yul\":519:531   */\n      revert\n        /* \"#utility.yul\":470:533   */\n    tag_102:\n        /* \"#utility.yul\":417:539   */\n      pop\n      jump\t// out\n        /* \"#utility.yul\":545:684   */\n    tag_65:\n        /* \"#utility.yul\":591:596   */\n      0x00\n        /* \"#utility.yul\":629:635   */\n      dup2\n        /* \"#utility.yul\":616:636   */\n      calldataload\n        /* \"#utility.yul\":607:636   */\n      swap1\n      pop\n        /* \"#utility.yul\":645:678   */\n      tag_104\n        /* \"#utility.yul\":672:677   */\n      dup2\n        /* \"#utility.yul\":645:678   */\n      tag_64\n      jump\t// in\n    tag_104:\n        /* \"#utility.yul\":545:684   */\n      swap3\n      swap2\n      pop\n      pop\n      jump\t// out\n        /* \"#utility.yul\":690:1019   */\n    tag_9:\n        /* \"#utility.yul\":749:755   */\n      0x00\n        /* \"#utility.yul\":798:800   */\n      0x20\n        /* \"#utility.yul\":786:795   */\n      dup3\n        /* \"#utility.yul\":777:784   */\n      dup5\n        /* \"#utility.yul\":773:796   */\n      sub\n        /* \"#utility.yul\":769:801   */\n      slt\n        /* \"#utility.yul\":766:885   */\n      iszero\n      tag_106\n      jumpi\n        /* \"#utility.yul\":804:883   */\n      tag_107\n      tag_61\n      jump\t// in\n    tag_107:\n        /* \"#utility.yul\":766:885   */\n    tag_106:\n        /* \"#utility.yul\":924:925   */\n      0x00\n        /* \"#utility.yul\":949:1002   */\n      tag_108\n        /* \"#utility.yul\":994:1001   */\n      dup5\n        /* \"#utility.yul\":985:991   */\n      dup3\n        /* \"#utility.yul\":974:983   */\n      dup6\n        /* \"#utility.yul\":970:992   */\n      add\n        /* \"#utility.yul\":949:1002   */\n      tag_65\n      jump\t// in\n    tag_108:\n        /* \"#utility.yul\":939:1002   */\n      swap2\n      pop\n        /* \"#utility.yul\":895:1012   */\n      pop\n        /* \"#utility.yul\":690:1019   */\n      swap3\n      swap2\n      pop\n      pop\n      jump\t// out\n        /* \"#utility.yul\":1025:1142   */\n    tag_66:\n        /* \"#utility.yul\":1134:1135   */\n      0x00\n        /* \"#utility.yul\":1131:1132   */\n      0x00\n        /* \"#utility.yul\":1124:1136   */\n      revert\n        /* \"#utility.yul\":1148:1265   */\n    tag_67:\n        /* \"#utility.yul\":1257:1258   */\n      0x00\n        /* \"#utility.yul\":1254:1255   */\n      0x00\n        /* \"#utility.yul\":1247:1259   */\n      revert\n        /* \"#utility.yul\":1271:1388   */\n    tag_68:\n        /* \"#utility.yul\":1380:1381   */\n      0x00\n        /* \"#utility.yul\":1377:1378   */\n      0x00\n        /* \"#utility.yul\":1370:1382   */\n      revert\n        /* \"#utility.yul\":1408:1961   */\n    tag_69:\n        /* \"#utility.yul\":1466:1474   */\n      0x00\n        /* \"#utility.yul\":1476:1482   */\n      0x00\n        /* \"#utility.yul\":1526:1529   */\n      dup4\n        /* \"#utility.yul\":1519:1523   */\n      0x1f\n        /* \"#utility.yul\":1511:1517   */\n      dup5\n        /* \"#utility.yul\":1507:1524   */\n      add\n        /* \"#utility.yul\":1503:1530   */\n      slt\n        /* \"#utility.yul\":1493:1615   */\n      tag_113\n      jumpi\n        /* \"#utility.yul\":1534:1613   */\n      tag_114\n      tag_66\n      jump\t// in\n    tag_114:\n        /* \"#utility.yul\":1493:1615   */\n    tag_113:\n        /* \"#utility.yul\":1647:1653   */\n      dup3\n        /* \"#utility.yul\":1634:1654   */\n      calldataload\n        /* \"#utility.yul\":1624:1654   */\n      swap1\n      pop\n        /* \"#utility.yul\":1677:1695   */\n      0xffffffffffffffff\n        /* \"#utility.yul\":1669:1675   */\n      dup2\n        /* \"#utility.yul\":1666:1696   */\n      gt\n        /* \"#utility.yul\":1663:1780   */\n      iszero\n      tag_115\n      jumpi\n        /* \"#utility.yul\":1699:1778   */\n      tag_116\n      tag_67\n      jump\t// in\n    tag_116:\n        /* \"#utility.yul\":1663:1780   */\n    tag_115:\n        /* \"#utility.yul\":1813:1817   */\n      0x20\n        /* \"#utility.yul\":1805:1811   */\n      dup4\n        /* \"#utility.yul\":1801:1818   */\n      add\n        /* \"#utility.yul\":1789:1818   */\n      swap2\n      pop\n        /* \"#utility.yul\":1867:1870   */\n      dup4\n        /* \"#utility.yul\":1859:1863   */\n      0x01\n        /* \"#utility.yul\":1851:1857   */\n      dup3\n        /* \"#utility.yul\":1847:1864   */\n      mul\n        /* \"#utility.yul\":1837:1845   */\n      dup4\n        /* \"#utility.yul\":1833:1865   */\n      add\n        /* \"#utility.yul\":1830:1871   */\n      gt\n        /* \"#utility.yul\":1827:1955   */\n      iszero\n      tag_117\n      jumpi\n        /* \"#utility.yul\":1874:1953   */\n      tag_118\n      tag_68\n      jump\t// in\n    tag_118:\n        /* \"#utility.yul\":1827:1955   */\n    tag_117:\n        /* \"#utility.yul\":1408:1961   */\n      swap3\n      pop\n      swap3\n      swap1\n      pop\n      jump\t// out\n        /* \"#utility.yul\":1967:2496   */\n    tag_13:\n        /* \"#utility.yul\":2038:2044   */\n      0x00\n        /* \"#utility.yul\":2046:2052   */\n      0x00\n        /* \"#utility.yul\":2095:2097   */\n      0x20\n        /* \"#utility.yul\":2083:2092   */\n      dup4\n        /* \"#utility.yul\":2074:2081   */\n      dup6\n        /* \"#utility.yul\":2070:2093   */\n      sub\n        /* \"#utility.yul\":2066:2098   */\n      slt\n        /* \"#utility.yul\":2063:2182   */\n      iszero\n      tag_120\n      jumpi\n        /* \"#utility.yul\":2101:2180   */\n      tag_121\n      tag_61\n      jump\t// in\n    tag_121:\n        /* \"#utility.yul\":2063:2182   */\n    tag_120:\n        /* \"#utility.yul\":2249:2250   */\n      0x00\n        /* \"#utility.yul\":2238:2247   */\n      dup4\n        /* \"#utility.yul\":2234:2251   */\n      add\n        /* \"#utility.yul\":2221:2252   */\n      calldataload\n        /* \"#utility.yul\":2279:2297   */\n      0xffffffffffffffff\n        /* \"#utility.yul\":2271:2277   */\n      dup2\n        /* \"#utility.yul\":2268:2298   */\n      gt\n        /* \"#utility.yul\":2265:2382   */\n      iszero\n      tag_122\n      jumpi\n        /* \"#utility.yul\":2301:2380   */\n      tag_123\n      tag_62\n      jump\t// in\n    tag_123:\n        /* \"#utility.yul\":2265:2382   */\n    tag_122:\n        /* \"#utility.yul\":2414:2479   */\n      tag_124\n        /* \"#utility.yul\":2471:2478   */\n      dup6\n        /* \"#utility.yul\":2462:2468   */\n      dup3\n        /* \"#utility.yul\":2451:2460   */\n      dup7\n        /* \"#utility.yul\":2447:2469   */\n      add\n        /* \"#utility.yul\":2414:2479   */\n      tag_69\n      jump\t// in\n    tag_124:\n        /* \"#utility.yul\":2396:2479   */\n      swap3\n      pop\n      swap3\n      pop\n        /* \"#utility.yul\":2192:2489   */\n      pop\n        /* \"#utility.yul\":1967:2496   */\n      swap3\n      pop\n      swap3\n      swap1\n      pop\n      jump\t// out\n        /* \"#utility.yul\":2502:2601   */\n    tag_70:\n        /* \"#utility.yul\":2554:2560   */\n      0x00\n        /* \"#utility.yul\":2588:2593   */\n      dup2\n        /* \"#utility.yul\":2582:2594   */\n      mload\n        /* \"#utility.yul\":2572:2594   */\n      swap1\n      pop\n        /* \"#utility.yul\":2502:2601   */\n      swap2\n      swap1\n      pop\n      jump\t// out\n        /* \"#utility.yul\":2607:2776   */\n    tag_71:\n        /* \"#utility.yul\":2691:2702   */\n      0x00\n        /* \"#utility.yul\":2725:2731   */\n      dup3\n        /* \"#utility.yul\":2720:2723   */\n      dup3\n        /* \"#utility.yul\":2713:2732   */\n      mstore\n        /* \"#utility.yul\":2765:2769   */\n      0x20\n        /* \"#utility.yul\":2760:2763   */\n      dup3\n        /* \"#utility.yul\":2756:2770   */\n      add\n        /* \"#utility.yul\":2741:2770   */\n      swap1\n      pop\n        /* \"#utility.yul\":2607:2776   */\n      swap3\n      swap2\n      pop\n      pop\n      jump\t// out\n        /* \"#utility.yul\":2782:2921   */\n    tag_72:\n        /* \"#utility.yul\":2871:2877   */\n      dup3\n        /* \"#utility.yul\":2866:2869   */\n      dup2\n        /* \"#utility.yul\":2861:2864   */\n      dup4\n        /* \"#utility.yul\":2855:2878   */\n      mcopy\n        /* \"#utility.yul\":2912:2913   */\n      0x00\n        /* \"#utility.yul\":2903:2909   */\n      dup4\n        /* \"#utility.yul\":2898:2901   */\n      dup4\n        /* \"#utility.yul\":2894:2910   */\n      add\n        /* \"#utility.yul\":2887:2914   */\n      mstore\n        /* \"#utility.yul\":2782:2921   */\n      pop\n      pop\n      pop\n      jump\t// out\n        /* \"#utility.yul\":2927:3029   */\n    tag_73:\n        /* \"#utility.yul\":2968:2974   */\n      0x00\n        /* \"#utility.yul\":3019:3021   */\n      0x1f\n        /* \"#utility.yul\":3015:3022   */\n      not\n        /* \"#utility.yul\":3010:3012   */\n      0x1f\n        /* \"#utility.yul\":3003:3008   */\n      dup4\n        /* \"#utility.yul\":2999:3013   */\n      add\n        /* \"#utility.yul\":2995:3023   */\n      and\n        /* \"#utility.yul\":2985:3023   */\n      swap1\n      pop\n        /* \"#utility.yul\":2927:3029   */\n      swap2\n      swap1\n      pop\n      jump\t// out\n        /* \"#utility.yul\":3035:3412   */\n    tag_74:\n        /* \"#utility.yul\":3123:3126   */\n      0x00\n        /* \"#utility.yul\":3151:3190   */\n      tag_130\n        /* \"#utility.yul\":3184:3189   */\n      dup3\n        /* \"#utility.yul\":3151:3190   */\n      tag_70\n      jump\t// in\n    tag_130:\n        /* \"#utility.yul\":3206:3277   */\n      tag_131\n        /* \"#utility.yul\":3270:3276   */\n      dup2\n        /* \"#utility.yul\":3265:3268   */\n      dup6\n        /* \"#utility.yul\":3206:3277   */\n      tag_71\n      jump\t// in\n    tag_131:\n        /* \"#utility.yul\":3199:3277   */\n      swap4\n      pop\n        /* \"#utility.yul\":3286:3351   */\n      tag_132\n        /* \"#utility.yul\":3344:3350   */\n      dup2\n        /* \"#utility.yul\":3339:3342   */\n      dup6\n        /* \"#utility.yul\":3332:3336   */\n      0x20\n        /* \"#utility.yul\":3325:3330   */\n      dup7\n        /* \"#utility.yul\":3321:3337   */\n      add\n        /* \"#utility.yul\":3286:3351   */\n      tag_72\n      jump\t// in\n    tag_132:\n        /* \"#utility.yul\":3376:3405   */\n      tag_133\n        /* \"#utility.yul\":3398:3404   */\n      dup2\n        /* \"#utility.yul\":3376:3405   */\n      tag_73\n      jump\t// in\n    tag_133:\n        /* \"#utility.yul\":3371:3374   */\n      dup5\n        /* \"#utility.yul\":3367:3406   */\n      add\n        /* \"#utility.yul\":3360:3406   */\n      swap2\n      pop\n        /* \"#utility.yul\":3127:3412   */\n      pop\n        /* \"#utility.yul\":3035:3412   */\n      swap3\n      swap2\n      pop\n      pop\n      jump\t// out\n        /* \"#utility.yul\":3418:3508   */\n    tag_75:\n        /* \"#utility.yul\":3452:3459   */\n      0x00\n        /* \"#utility.yul\":3495:3500   */\n      dup2\n        /* \"#utility.yul\":3488:3501   */\n      iszero\n        /* \"#utility.yul\":3481:3502   */\n      iszero\n        /* \"#utility.yul\":3470:3502   */\n      swap1\n      pop\n        /* \"#utility.yul\":3418:3508   */\n      swap2\n      swap1\n      pop\n      jump\t// out\n        /* \"#utility.yul\":3514:3623   */\n    tag_76:\n        /* \"#utility.yul\":3595:3616   */\n      tag_136\n        /* \"#utility.yul\":3610:3615   */\n      dup2\n        /* \"#utility.yul\":3595:3616   */\n      tag_75\n      jump\t// in\n    tag_136:\n        /* \"#utility.yul\":3590:3593   */\n      dup3\n        /* \"#utility.yul\":3583:3617   */\n      mstore\n        /* \"#utility.yul\":3514:3623   */\n      pop\n      pop\n      jump\t// out\n        /* \"#utility.yul\":3629:4040   */\n    tag_19:\n        /* \"#utility.yul\":3764:3768   */\n      0x00\n        /* \"#utility.yul\":3802:3804   */\n      0x40\n        /* \"#utility.yul\":3791:3800   */\n      dup3\n        /* \"#utility.yul\":3787:3805   */\n      add\n        /* \"#utility.yul\":3779:3805   */\n      swap1\n      pop\n        /* \"#utility.yul\":3851:3860   */\n      dup2\n        /* \"#utility.yul\":3845:3849   */\n      dup2\n        /* \"#utility.yul\":3841:3861   */\n      sub\n        /* \"#utility.yul\":3837:3838   */\n      0x00\n        /* \"#utility.yul\":3826:3835   */\n      dup4\n        /* \"#utility.yul\":3822:3839   */\n      add\n        /* \"#utility.yul\":3815:3862   */\n      mstore\n        /* \"#utility.yul\":3879:3957   */\n      tag_138\n        /* \"#utility.yul\":3952:3956   */\n      dup2\n        /* \"#utility.yul\":3943:3949   */\n      dup6\n        /* \"#utility.yul\":3879:3957   */\n      tag_74\n      jump\t// in\n    tag_138:\n        /* \"#utility.yul\":3871:3957   */\n      swap1\n      pop\n        /* \"#utility.yul\":3967:4033   */\n      tag_139\n        /* \"#utility.yul\":4029:4031   */\n      0x20\n        /* \"#utility.yul\":4018:4027   */\n      dup4\n        /* \"#utility.yul\":4014:4032   */\n      add\n        /* \"#utility.yul\":4005:4011   */\n      dup5\n        /* \"#utility.yul\":3967:4033   */\n      tag_76\n      jump\t// in\n    tag_139:\n        /* \"#utility.yul\":3629:4040   */\n      swap4\n      swap3\n      pop\n      pop\n      pop\n      jump\t// out\n        /* \"#utility.yul\":4046:4720   */\n    tag_22:\n        /* \"#utility.yul\":4126:4132   */\n      0x00\n        /* \"#utility.yul\":4134:4140   */\n      0x00\n        /* \"#utility.yul\":4142:4148   */\n      0x00\n        /* \"#utility.yul\":4191:4193   */\n      0x40\n        /* \"#utility.yul\":4179:4188   */\n      dup5\n        /* \"#utility.yul\":4170:4177   */\n      dup7\n        /* \"#utility.yul\":4166:4189   */\n      sub\n        /* \"#utility.yul\":4162:4194   */\n      slt\n        /* \"#utility.yul\":4159:4278   */\n      iszero\n      tag_141\n      jumpi\n        /* \"#utility.yul\":4197:4276   */\n      tag_142\n      tag_61\n      jump\t// in\n    tag_142:\n        /* \"#utility.yul\":4159:4278   */\n    tag_141:\n        /* \"#utility.yul\":4317:4318   */\n      0x00\n        /* \"#utility.yul\":4342:4395   */\n      tag_143\n        /* \"#utility.yul\":4387:4394   */\n      dup7\n        /* \"#utility.yul\":4378:4384   */\n      dup3\n        /* \"#utility.yul\":4367:4376   */\n      dup8\n        /* \"#utility.yul\":4363:4385   */\n      add\n        /* \"#utility.yul\":4342:4395   */\n      tag_65\n      jump\t// in\n    tag_143:\n        /* \"#utility.yul\":4332:4395   */\n      swap4\n      pop\n        /* \"#utility.yul\":4288:4405   */\n      pop\n        /* \"#utility.yul\":4472:4474   */\n      0x20\n        /* \"#utility.yul\":4461:4470   */\n      dup5\n        /* \"#utility.yul\":4457:4475   */\n      add\n        /* \"#utility.yul\":4444:4476   */\n      calldataload\n        /* \"#utility.yul\":4503:4521   */\n      0xffffffffffffffff\n        /* \"#utility.yul\":4495:4501   */\n      dup2\n        /* \"#utility.yul\":4492:4522   */\n      gt\n        /* \"#utility.yul\":4489:4606   */\n      iszero\n      tag_144\n      jumpi\n        /* \"#utility.yul\":4525:4604   */\n      tag_145\n      tag_62\n      jump\t// in\n    tag_145:\n        /* \"#utility.yul\":4489:4606   */\n    tag_144:\n        /* \"#utility.yul\":4638:4703   */\n      tag_146\n        /* \"#utility.yul\":4695:4702   */\n      dup7\n        /* \"#utility.yul\":4686:4692   */\n      dup3\n        /* \"#utility.yul\":4675:4684   */\n      dup8\n        /* \"#utility.yul\":4671:4693   */\n      add\n        /* \"#utility.yul\":4638:4703   */\n      tag_69\n      jump\t// in\n    tag_146:\n        /* \"#utility.yul\":4620:4703   */\n      swap3\n      pop\n      swap3\n      pop\n        /* \"#utility.yul\":4415:4713   */\n      pop\n        /* \"#utility.yul\":4046:4720   */\n      swap3\n      pop\n      swap3\n      pop\n      swap3\n      jump\t// out\n        /* \"#utility.yul\":4726:4906   */\n    tag_27:\n        /* \"#utility.yul\":4774:4851   */\n      0x4e487b7100000000000000000000000000000000000000000000000000000000\n        /* \"#utility.yul\":4771:4772   */\n      0x00\n        /* \"#utility.yul\":4764:4852   */\n      mstore\n        /* \"#utility.yul\":4871:4875   */\n      0x32\n        /* \"#utility.yul\":4868:4869   */\n      0x04\n        /* \"#utility.yul\":4861:4876   */\n      mstore\n        /* \"#utility.yul\":4895:4899   */\n      0x24\n        /* \"#utility.yul\":4892:4893   */\n      0x00\n        /* \"#utility.yul\":4885:4900   */\n      revert\n        /* \"#utility.yul\":4912:5092   */\n    tag_77:\n        /* \"#utility.yul\":4960:5037   */\n      0x4e487b7100000000000000000000000000000000000000000000000000000000\n        /* \"#utility.yul\":4957:4958   */\n      0x00\n        /* \"#utility.yul\":4950:5038   */\n      mstore\n        /* \"#utility.yul\":5057:5061   */\n      0x41\n        /* \"#utility.yul\":5054:5055   */\n      0x04\n        /* \"#utility.yul\":5047:5062   */\n      mstore\n        /* \"#utility.yul\":5081:5085   */\n      0x24\n        /* \"#utility.yul\":5078:5079   */\n      0x00\n        /* \"#utility.yul\":5071:5086   */\n      revert\n        /* \"#utility.yul\":5098:5278   */\n    tag_78:\n        /* \"#utility.yul\":5146:5223   */\n      0x4e487b7100000000000000000000000000000000000000000000000000000000\n        /* \"#utility.yul\":5143:5144   */\n      0x00\n        /* \"#utility.yul\":5136:5224   */\n      mstore\n        /* \"#utility.yul\":5243:5247   */\n      0x22\n        /* \"#utility.yul\":5240:5241   */\n      0x04\n        /* \"#utility.yul\":5233:5248   */\n      mstore\n        /* \"#utility.yul\":5267:5271   */\n      0x24\n        /* \"#utility.yul\":5264:5265   */\n      0x00\n        /* \"#utility.yul\":5257:5272   */\n      revert\n        /* \"#utility.yul\":5284:5604   */\n    tag_42:\n        /* \"#utility.yul\":5328:5334   */\n      0x00\n        /* \"#utility.yul\":5365:5366   */\n      0x02\n        /* \"#utility.yul\":5359:5363   */\n      dup3\n        /* \"#utility.yul\":5355:5367   */\n      div\n        /* \"#utility.yul\":5345:5367   */\n      swap1\n      pop\n        /* \"#utility.yul\":5412:5413   */\n      0x01\n        /* \"#utility.yul\":5406:5410   */\n      dup3\n        /* \"#utility.yul\":5402:5414   */\n      and\n        /* \"#utility.yul\":5433:5451   */\n      dup1\n        /* \"#utility.yul\":5423:5504   */\n      tag_151\n      jumpi\n        /* \"#utility.yul\":5489:5493   */\n      0x7f\n        /* \"#utility.yul\":5481:5487   */\n      dup3\n        /* \"#utility.yul\":5477:5494   */\n      and\n        /* \"#utility.yul\":5467:5494   */\n      swap2\n      pop\n        /* \"#utility.yul\":5423:5504   */\n    tag_151:\n        /* \"#utility.yul\":5551:5553   */\n      0x20\n        /* \"#utility.yul\":5543:5549   */\n      dup3\n        /* \"#utility.yul\":5540:5554   */\n      lt\n        /* \"#utility.yul\":5520:5538   */\n      dup2\n        /* \"#utility.yul\":5517:5555   */\n      sub\n        /* \"#utility.yul\":5514:5598   */\n      tag_152\n      jumpi\n        /* \"#utility.yul\":5570:5588   */\n      tag_153\n      tag_78\n      jump\t// in\n    tag_153:\n        /* \"#utility.yul\":5514:5598   */\n    tag_152:\n        /* \"#utility.yul\":5335:5604   */\n      pop\n        /* \"#utility.yul\":5284:5604   */\n      swap2\n      swap1\n      pop\n      jump\t// out\n        /* \"#utility.yul\":5610:5751   */\n    tag_79:\n        /* \"#utility.yul\":5659:5663   */\n      0x00\n        /* \"#utility.yul\":5682:5685   */\n      dup2\n        /* \"#utility.yul\":5674:5685   */\n      swap1\n      pop\n        /* \"#utility.yul\":5705:5708   */\n      dup2\n        /* \"#utility.yul\":5702:5703   */\n      0x00\n        /* \"#utility.yul\":5695:5709   */\n      mstore\n        /* \"#utility.yul\":5739:5743   */\n      0x20\n        /* \"#utility.yul\":5736:5737   */\n      0x00\n        /* \"#utility.yul\":5726:5744   */\n      keccak256\n        /* \"#utility.yul\":5718:5744   */\n      swap1\n      pop\n        /* \"#utility.yul\":5610:5751   */\n      swap2\n      swap1\n      pop\n      jump\t// out\n        /* \"#utility.yul\":5757:5850   */\n    tag_80:\n        /* \"#utility.yul\":5794:5800   */\n      0x00\n        /* \"#utility.yul\":5841:5843   */\n      0x20\n        /* \"#utility.yul\":5836:5838   */\n      0x1f\n        /* \"#utility.yul\":5829:5834   */\n      dup4\n        /* \"#utility.yul\":5825:5839   */\n      add\n        /* \"#utility.yul\":5821:5844   */\n      div\n        /* \"#utility.yul\":5811:5844   */\n      swap1\n      pop\n        /* \"#utility.yul\":5757:5850   */\n      swap2\n      swap1\n      pop\n      jump\t// out\n        /* \"#utility.yul\":5856:5963   */\n    tag_81:\n        /* \"#utility.yul\":5900:5908   */\n      0x00\n        /* \"#utility.yul\":5950:5955   */\n      dup3\n        /* \"#utility.yul\":5944:5948   */\n      dup3\n        /* \"#utility.yul\":5940:5956   */\n      shl\n        /* \"#utility.yul\":5919:5956   */\n      swap1\n      pop\n        /* \"#utility.yul\":5856:5963   */\n      swap3\n      swap2\n      pop\n      pop\n      jump\t// out\n        /* \"#utility.yul\":5969:6362   */\n    tag_82:\n        /* \"#utility.yul\":6038:6044   */\n      0x00\n        /* \"#utility.yul\":6088:6089   */\n      0x08\n        /* \"#utility.yul\":6076:6086   */\n      dup4\n        /* \"#utility.yul\":6072:6090   */\n      mul\n        /* \"#utility.yul\":6111:6208   */\n      tag_158\n        /* \"#utility.yul\":6141:6207   */\n      0xffffffffffffffffffffffffffffffffffffffffffffffffffffffffffffffff\n        /* \"#utility.yul\":6130:6139   */\n      dup3\n        /* \"#utility.yul\":6111:6208   */\n      tag_81\n      jump\t// in\n    tag_158:\n        /* \"#utility.yul\":6229:6268   */\n      tag_159\n        /* \"#utility.yul\":6259:6267   */\n      dup7\n        /* \"#utility.yul\":6248:6257   */\n      dup4\n        /* \"#utility.yul\":6229:6268   */\n      tag_81\n      jump\t// in\n    tag_159:\n        /* \"#utility.yul\":6217:6268   */\n      swap6\n      pop\n        /* \"#utility.yul\":6301:6305   */\n      dup1\n        /* \"#utility.yul\":6297:6306   */\n      not\n        /* \"#utility.yul\":6290:6295   */\n      dup5\n        /* \"#utility.yul\":6286:6307   */\n      and\n        /* \"#utility.yul\":6277:6307   */\n      swap4\n      pop\n        /* \"#utility.yul\":6350:6354   */\n      dup1\n        /* \"#utility.yul\":6340:6348   */\n      dup7\n        /* \"#utility.yul\":6336:6355   */\n      and\n        /* \"#utility.yul\":6329:6334   */\n      dup5\n        /* \"#utility.yul\":6326:6356   */\n      or\n        /* \"#utility.yul\":6316:6356   */\n      swap3\n      pop\n        /* \"#utility.yul\":6045:6362   */\n      pop\n      pop\n        /* \"#utility.yul\":5969:6362   */\n      swap4\n      swap3\n      pop\n      pop\n      pop\n      jump\t// out\n        /* \"#utility.yul\":6368:6428   */\n    tag_83:\n        /* \"#utility.yul\":6396:6399   */\n      0x00\n        /* \"#utility.yul\":6417:6422   */\n      dup2\n        /* \"#utility.yul\":6410:6422   */\n      swap1\n      pop\n        /* \"#utility.yul\":6368:6428   */\n      swap2\n      swap1\n      pop\n      jump\t// out\n        /* \"#utility.yul\":6434:6576   */\n    tag_84:\n        /* \"#utility.yul\":6484:6493   */\n      0x00\n        /* \"#utility.yul\":6517:6570   */\n      tag_162\n        /* \"#utility.yul\":6535:6569   */\n      tag_163\n        /* \"#utility.yul\":6544:6568   */\n      tag_164\n        /* \"#utility.yul\":6562:6567   */\n      dup5\n        /* \"#utility.yul\":6544:6568   */\n      tag_63\n      jump\t// in\n    tag_164:\n        /* \"#utility.yul\":6535:6569   */\n      tag_83\n      jump\t// in\n    tag_163:\n        /* \"#utility.yul\":6517:6570   */\n      tag_63\n      jump\t// in\n    tag_162:\n        /* \"#utility.yul\":6504:6570   */\n      swap1\n      pop\n        /* \"#utility.yul\":6434:6576   */\n      swap2\n      swap1\n      pop\n      jump\t// out\n        /* \"#utility.yul\":6582:6657   */\n    tag_85:\n        /* \"#utility.yul\":6625:6628   */\n      0x00\n        /* \"#utility.yul\":6646:6651   */\n      dup2\n        /* \"#utility.yul\":6639:6651   */\n      swap1\n      pop\n        /* \"#utility.yul\":6582:6657   */\n      swap2\n      swap1\n      pop\n      jump\t// out\n        /* \"#utility.yul\":6663:6932   */\n    tag_86:\n        /* \"#utility.yul\":6773:6812   */\n      tag_167\n        /* \"#utility.yul\":6804:6811   */\n      dup4\n        /* \"#utility.yul\":6773:6812   */\n      tag_84\n      jump\t// in\n    tag_167:\n        /* \"#utility.yul\":6834:6925   */\n      tag_168\n        /* \"#utility.yul\":6883:6924   */\n      tag_169\n        /* \"#utility.yul\":6907:6923   */\n      dup3\n        /* \"#utility.yul\":6883:6924   */\n      tag_85\n      jump\t// in\n    tag_169:\n        /* \"#utility.yul\":6875:6881   */\n      dup5\n        /* \"#utility.yul\":6868:6872   */\n      dup5\n        /* \"#utility.yul\":6862:6873   */\n      sload\n        /* \"#utility.yul\":6834:6925   */\n      tag_82\n      jump\t// in\n    tag_168:\n        /* \"#utility.yul\":6828:6832   */\n      dup3\n        /* \"#utility.yul\":6821:6926   */\n      sstore\n        /* \"#utility.yul\":6739:6932   */\n      pop\n        /* \"#utility.yul\":6663:6932   */\n      pop\n      pop\n      pop\n      jump\t// out\n        /* \"#utility.yul\":6938:7011   */\n    tag_87:\n        /* \"#utility.yul\":6983:6986   */\n      0x00\n        /* \"#utility.yul\":7004:7005   */\n      0x00\n        /* \"#utility.yul\":6997:7005   */\n      swap1\n      pop\n        /* \"#utility.yul\":6938:7011   */\n      swap1\n      jump\t// out\n        /* \"#utility.yul\":7017:7206   */\n    tag_88:\n        /* \"#utility.yul\":7094:7126   */\n      tag_172\n      tag_87\n      jump\t// in\n    tag_172:\n        /* \"#utility.yul\":7135:7200   */\n      tag_173\n        /* \"#utility.yul\":7193:7199   */\n      dup2\n        /* \"#utility.yul\":7185:7191   */\n      dup5\n        /* \"#utility.yul\":7179:7183   */\n      dup5\n        /* \"#utility.yul\":7135:7200   */\n      tag_86\n      jump\t// in\n    tag_173:\n        /* \"#utility.yul\":7070:7206   */\n      pop\n        /* \"#utility.yul\":7017:7206   */\n      pop\n      pop\n      jump\t// out\n        /* \"#utility.yul\":7212:7398   */\n    tag_89:\n        /* \"#utility.yul\":7272:7392   */\n    tag_175:\n        /* \"#utility.yul\":7289:7292   */\n      dup2\n        /* \"#utility.yul\":7282:7287   */\n      dup2\n        /* \"#utility.yul\":7279:7293   */\n      lt\n        /* \"#utility.yul\":7272:7392   */\n      iszero\n      tag_177\n      jumpi\n        /* \"#utility.yul\":7343:7382   */\n      tag_178\n        /* \"#utility.yul\":7380:7381   */\n      0x00\n        /* \"#utility.yul\":7373:7378   */\n      dup3\n        /* \"#utility.yul\":7343:7382   */\n      tag_88\n      jump\t// in\n    tag_178:\n        /* \"#utility.yul\":7316:7317   */\n      0x01\n        /* \"#utility.yul\":7309:7314   */\n      dup2\n        /* \"#utility.yul\":7305:7318   */\n      add\n        /* \"#utility.yul\":7296:7318   */\n      swap1\n      pop\n        /* \"#utility.yul\":7272:7392   */\n      jump(tag_175)\n    tag_177:\n        /* \"#utility.yul\":7212:7398   */\n      pop\n      pop\n      jump\t// out\n        /* \"#utility.yul\":7404:7947   */\n    tag_90:\n        /* \"#utility.yul\":7505:7507   */\n      0x1f\n        /* \"#utility.yul\":7500:7503   */\n      dup3\n        /* \"#utility.yul\":7497:7508   */\n      gt\n        /* \"#utility.yul\":7494:7940   */\n      iszero\n      tag_180\n      jumpi\n        /* \"#utility.yul\":7539:7577   */\n      tag_181\n        /* \"#utility.yul\":7571:7576   */\n      dup2\n        /* \"#utility.yul\":7539:7577   */\n      tag_79\n      jump\t// in\n    tag_181:\n        /* \"#utility.yul\":7623:7652   */\n      tag_182\n        /* \"#utility.yul\":7641:7651   */\n      dup5\n        /* \"#utility.yul\":7623:7652   */\n      tag_80\n      jump\t// in\n    tag_182:\n        /* \"#utility.yul\":7613:7621   */\n      dup2\n        /* \"#utility.yul\":7609:7653   */\n      add\n        /* \"#utility.yul\":7806:7808   */\n      0x20\n        /* \"#utility.yul\":7794:7804   */\n      dup6\n        /* \"#utility.yul\":7791:7809   */\n      lt\n        /* \"#utility.yul\":7788:7837   */\n      iszero\n      tag_183\n      jumpi\n        /* \"#utility.yul\":7827:7835   */\n      dup2\n        /* \"#utility.yul\":7812:7835   */\n      swap1\n      pop\n        /* \"#utility.yul\":7788:7837   */\n    tag_183:\n        /* \"#utility.yul\":7850:7930   */\n      tag_184\n        /* \"#utility.yul\":7906:7928   */\n      tag_185\n        /* \"#utility.yul\":7924:7927   */\n      dup6\n        /* \"#utility.yul\":7906:7928   */\n      tag_80\n      jump\t// in\n    tag_185:\n        /* \"#utility.yul\":7896:7904   */\n      dup4\n        /* \"#utility.yul\":7892:7929   */\n      add\n        /* \"#utility.yul\":7879:7890   */\n      dup3\n        /* \"#utility.yul\":7850:7930   */\n      tag_89\n      jump\t// in\n    tag_184:\n        /* \"#utility.yul\":7509:7940   */\n      pop\n      pop\n        /* \"#utility.yul\":7494:7940   */\n    tag_180:\n        /* \"#utility.yul\":7404:7947   */\n      pop\n      pop\n      pop\n      jump\t// out\n        /* \"#utility.yul\":7953:8070   */\n    tag_91:\n        /* \"#utility.yul\":8007:8015   */\n      0x00\n        /* \"#utility.yul\":8057:8062   */\n      dup3\n        /* \"#utility.yul\":8051:8055   */\n      dup3\n        /* \"#utility.yul\":8047:8063   */\n      shr\n        /* \"#utility.yul\":8026:8063   */\n      swap1\n      pop\n        /* \"#utility.yul\":7953:8070   */\n      swap3\n      swap2\n      pop\n      pop\n      jump\t// out\n        /* \"#utility.yul\":8076:8245   */\n    tag_92:\n        /* \"#utility.yul\":8120:8126   */\n      0x00\n        /* \"#utility.yul\":8153:8204   */\n      tag_188\n        /* \"#utility.yul\":8201:8202   */\n      0x00\n        /* \"#utility.yul\":8197:8203   */\n      not\n        /* \"#utility.yul\":8189:8194   */\n      dup5\n        /* \"#utility.yul\":8186:8187   */\n      0x08\n        /* \"#utility.yul\":8182:8195   */\n      mul\n        /* \"#utility.yul\":8153:8204   */\n      tag_91\n      jump\t// in\n    tag_188:\n        /* \"#utility.yul\":8149:8205   */\n      not\n        /* \"#utility.yul\":8234:8238   */\n      dup1\n        /* \"#utility.yul\":8228:8232   */\n      dup4\n        /* \"#utility.yul\":8224:8239   */\n      and\n        /* \"#utility.yul\":8214:8239   */\n      swap2\n      pop\n        /* \"#utility.yul\":8127:8245   */\n      pop\n        /* \"#utility.yul\":8076:8245   */\n      swap3\n      swap2\n      pop\n      pop\n      jump\t// out\n        /* \"#utility.yul\":8250:8545   */\n    tag_93:\n        /* \"#utility.yul\":8326:8330   */\n      0x00\n        /* \"#utility.yul\":8472:8501   */\n      tag_190\n        /* \"#utility.yul\":8497:8500   */\n      dup4\n        /* \"#utility.yul\":8491:8495   */\n      dup4\n        /* \"#utility.yul\":8472:8501   */\n      tag_92\n      jump\t// in\n    tag_190:\n        /* \"#utility.yul\":8464:8501   */\n      swap2\n      pop\n        /* \"#utility.yul\":8534:8537   */\n      dup3\n        /* \"#utility.yul\":8531:8532   */\n      0x02\n        /* \"#utility.yul\":8527:8538   */\n      mul\n        /* \"#utility.yul\":8521:8525   */\n      dup3\n        /* \"#utility.yul\":8518:8539   */\n      or\n        /* \"#utility.yul\":8510:8539   */\n      swap1\n      pop\n        /* \"#utility.yul\":8250:8545   */\n      swap3\n      swap2\n      pop\n      pop\n      jump\t// out\n        /* \"#utility.yul\":8550:9945   */\n    tag_34:\n        /* \"#utility.yul\":8667:8704   */\n      tag_192\n        /* \"#utility.yul\":8700:8703   */\n      dup3\n        /* \"#utility.yul\":8667:8704   */\n      tag_70\n      jump\t// in\n    tag_192:\n        /* \"#utility.yul\":8769:8787   */\n      0xffffffffffffffff\n        /* \"#utility.yul\":8761:8767   */\n      dup2\n        /* \"#utility.yul\":8758:8788   */\n      gt\n        /* \"#utility.yul\":8755:8811   */\n      iszero\n      tag_193\n      jumpi\n        /* \"#utility.yul\":8791:8809   */\n      tag_194\n      tag_77\n      jump\t// in\n    tag_194:\n        /* \"#utility.yul\":8755:8811   */\n    tag_193:\n        /* \"#utility.yul\":8835:8873   */\n      tag_195\n        /* \"#utility.yul\":8867:8871   */\n      dup3\n        /* \"#utility.yul\":8861:8872   */\n      sload\n        /* \"#utility.yul\":8835:8873   */\n      tag_42\n      jump\t// in\n    tag_195:\n        /* \"#utility.yul\":8920:8987   */\n      tag_196\n        /* \"#utility.yul\":8980:8986   */\n      dup3\n        /* \"#utility.yul\":8972:8978   */\n      dup3\n        /* \"#utility.yul\":8966:8970   */\n      dup6\n        /* \"#utility.yul\":8920:8987   */\n      tag_90\n      jump\t// in\n    tag_196:\n        /* \"#utility.yul\":9014:9015   */\n      0x00\n        /* \"#utility.yul\":9038:9042   */\n      0x20\n        /* \"#utility.yul\":9025:9042   */\n      swap1\n      pop\n        /* \"#utility.yul\":9070:9072   */\n      0x1f\n        /* \"#utility.yul\":9062:9068   */\n      dup4\n        /* \"#utility.yul\":9059:9073   */\n      gt\n        /* \"#utility.yul\":9087:9088   */\n      0x01\n        /* \"#utility.yul\":9082:9700   */\n      dup2\n      eq\n      tag_198\n      jumpi\n        /* \"#utility.yul\":9744:9745   */\n      0x00\n        /* \"#utility.yul\":9761:9767   */\n      dup5\n        /* \"#utility.yul\":9758:9835   */\n      iszero\n      tag_199\n      jumpi\n        /* \"#utility.yul\":9810:9819   */\n      dup3\n        /* \"#utility.yul\":9805:9808   */\n      dup8\n        /* \"#utility.yul\":9801:9820   */\n      add\n        /* \"#utility.yul\":9795:9821   */\n      mload\n        /* \"#utility.yul\":9786:9821   */\n      swap1\n      pop\n        /* \"#utility.yul\":9758:9835   */\n    tag_199:\n        /* \"#utility.yul\":9861:9928   */\n      tag_200\n        /* \"#utility.yul\":9921:9927   */\n      dup6\n        /* \"#utility.yul\":9914:9919   */\n      dup3\n        /* \"#utility.yul\":9861:9928   */\n      tag_93\n      jump\t// in\n    tag_200:\n        /* \"#utility.yul\":9855:9859   */\n      dup7\n        /* \"#utility.yul\":9848:9929   */\n      sstore\n        /* \"#utility.yul\":9717:9939   */\n      pop\n        /* \"#utility.yul\":9052:9939   */\n      jump(tag_197)\n        /* \"#utility.yul\":9082:9700   */\n    tag_198:\n        /* \"#utility.yul\":9134:9138   */\n      0x1f\n        /* \"#utility.yul\":9130:9139   */\n      not\n        /* \"#utility.yul\":9122:9128   */\n      dup5\n        /* \"#utility.yul\":9118:9140   */\n      and\n        /* \"#utility.yul\":9168:9205   */\n      tag_201\n        /* \"#utility.yul\":9200:9204   */\n      dup7\n        /* \"#utility.yul\":9168:9205   */\n      tag_79\n      jump\t// in\n    tag_201:\n        /* \"#utility.yul\":9227:9228   */\n      0x00\n        /* \"#utility.yul\":9241:9449   */\n    tag_202:\n        /* \"#utility.yul\":9255:9262   */\n      dup3\n        /* \"#utility.yul\":9252:9253   */\n      dup2\n        /* \"#utility.yul\":9249:9263   */\n      lt\n        /* \"#utility.yul\":9241:9449   */\n      iszero\n      tag_204\n      jumpi\n        /* \"#utility.yul\":9334:9343   */\n      dup5\n        /* \"#utility.yul\":9329:9332   */\n      dup10\n        /* \"#utility.yul\":9325:9344   */\n      add\n        /* \"#utility.yul\":9319:9345   */\n      mload\n        /* \"#utility.yul\":9311:9317   */\n      dup3\n        /* \"#utility.yul\":9304:9346   */\n      sstore\n        /* \"#utility.yul\":9385:9386   */\n      0x01\n        /* \"#utility.yul\":9377:9383   */\n      dup3\n        /* \"#utility.yul\":9373:9387   */\n      add\n        /* \"#utility.yul\":9363:9387   */\n      swap2\n      pop\n        /* \"#utility.yul\":9432:9434   */\n      0x20\n        /* \"#utility.yul\":9421:9430   */\n      dup6\n        /* \"#utility.yul\":9417:9435   */\n      add\n        /* \"#utility.yul\":9404:9435   */\n      swap5\n      pop\n        /* \"#utility.yul\":9278:9282   */\n      0x20\n        /* \"#utility.yul\":9275:9276   */\n      dup2\n        /* \"#utility.yul\":9271:9283   */\n      add\n        /* \"#utility.yul\":9266:9283   */\n      swap1\n      pop\n        /* \"#utility.yul\":9241:9449   */\n      jump(tag_202)\n    tag_204:\n        /* \"#utility.yul\":9477:9483   */\n      dup7\n        /* \"#utility.yul\":9468:9475   */\n      dup4\n        /* \"#utility.yul\":9465:9484   */\n      lt\n        /* \"#utility.yul\":9462:9641   */\n      iszero\n      tag_205\n      jumpi\n        /* \"#utility.yul\":9535:9544   */\n      dup5\n        /* \"#utility.yul\":9530:9533   */\n      dup10\n        /* \"#utility.yul\":9526:9545   */\n      add\n        /* \"#utility.yul\":9520:9546   */\n      mload\n        /* \"#utility.yul\":9578:9626   */\n      tag_206\n        /* \"#utility.yul\":9620:9624   */\n      0x1f\n        /* \"#utility.yul\":9612:9618   */\n      dup10\n        /* \"#utility.yul\":9608:9625   */\n      and\n        /* \"#utility.yul\":9597:9606   */\n      dup3\n        /* \"#utility.yul\":9578:9626   */\n      tag_92\n      jump\t// in\n    tag_206:\n        /* \"#utility.yul\":9570:9576   */\n      dup4\n        /* \"#utility.yul\":9563:9627   */\n      sstore\n        /* \"#utility.yul\":9485:9641   */\n      pop\n        /* \"#utility.yul\":9462:9641   */\n    tag_205:\n        /* \"#utility.yul\":9687:9688   */\n      0x01\n        /* \"#utility.yul\":9683:9684   */\n      0x02\n        /* \"#utility.yul\":9675:9681   */\n      dup9\n        /* \"#utility.yul\":9671:9685   */\n      mul\n        /* \"#utility.yul\":9667:9689   */\n      add\n        /* \"#utility.yul\":9661:9665   */\n      dup9\n        /* \"#utility.yul\":9654:9690   */\n      sstore\n        /* \"#utility.yul\":9089:9700   */\n      pop\n      pop\n      pop\n        /* \"#utility.yul\":9052:9939   */\n    tag_197:\n      pop\n        /* \"#utility.yul\":8642:9945   */\n      pop\n      pop\n      pop\n        /* \"#utility.yul\":8550:9945   */\n      pop\n      pop\n      jump\t// out\n        /* \"#utility.yul\":9951:10048   */\n    tag_94:\n        /* \"#utility.yul\":10010:10016   */\n      0x00\n        /* \"#utility.yul\":10038:10041   */\n      dup3\n        /* \"#utility.yul\":10028:10041   */\n      swap1\n      pop\n        /* \"#utility.yul\":9951:10048   */\n      swap3\n      swap2\n      pop\n      pop\n      jump\t// out\n        /* \"#utility.yul\":10054:11457   */\n    tag_52:\n        /* \"#utility.yul\":10178:10222   */\n      tag_209\n        /* \"#utility.yul\":10218:10221   */\n      dup4\n        /* \"#utility.yul\":10213:10216   */\n      dup4\n        /* \"#utility.yul\":10178:10222   */\n      tag_94\n      jump\t// in\n    tag_209:\n        /* \"#utility.yul\":10287:10305   */\n      0xffffffffffffffff\n        /* \"#utility.yul\":10279:10285   */\n      dup2\n        /* \"#utility.yul\":10276:10306   */\n      gt\n        /* \"#utility.yul\":10273:10329   */\n      iszero\n      tag_210\n      jumpi\n        /* \"#utility.yul\":10309:10327   */\n      tag_211\n      tag_77\n      jump\t// in\n    tag_211:\n        /* \"#utility.yul\":10273:10329   */\n    tag_210:\n        /* \"#utility.yul\":10353:10391   */\n      tag_212\n        /* \"#utility.yul\":10385:10389   */\n      dup3\n        /* \"#utility.yul\":10379:10390   */\n      sload\n        /* \"#utility.yul\":10353:10391   */\n      tag_42\n      jump\t// in\n    tag_212:\n        /* \"#utility.yul\":10438:10505   */\n      tag_213\n        /* \"#utility.yul\":10498:10504   */\n      dup3\n        /* \"#utility.yul\":10490:10496   */\n      dup3\n        /* \"#utility.yul\":10484:10488   */\n      dup6\n        /* \"#utility.yul\":10438:10505   */\n      tag_90\n      jump\t// in\n    tag_213:\n        /* \"#utility.yul\":10532:10533   */\n      0x00\n        /* \"#utility.yul\":10561:10563   */\n      0x1f\n        /* \"#utility.yul\":10553:10559   */\n      dup4\n        /* \"#utility.yul\":10550:10564   */\n      gt\n        /* \"#utility.yul\":10578:10579   */\n      0x01\n        /* \"#utility.yul\":10573:11205   */\n      dup2\n      eq\n      tag_215\n      jumpi\n        /* \"#utility.yul\":11249:11250   */\n      0x00\n        /* \"#utility.yul\":11266:11272   */\n      dup5\n        /* \"#utility.yul\":11263:11347   */\n      iszero\n      tag_216\n      jumpi\n        /* \"#utility.yul\":11322:11331   */\n      dup3\n        /* \"#utility.yul\":11317:11320   */\n      dup8\n        /* \"#utility.yul\":11313:11332   */\n      add\n        /* \"#utility.yul\":11300:11333   */\n      calldataload\n        /* \"#utility.yul\":11291:11333   */\n      swap1\n      pop\n        /* \"#utility.yul\":11263:11347   */\n    tag_216:\n        /* \"#utility.yul\":11373:11440   */\n      tag_217\n        /* \"#utility.yul\":11433:11439   */\n      dup6\n        /* \"#utility.yul\":11426:11431   */\n      dup3\n        /* \"#utility.yul\":11373:11440   */\n      tag_93\n      jump\t// in\n    tag_217:\n        /* \"#utility.yul\":11367:11371   */\n      dup7\n        /* \"#utility.yul\":11360:11441   */\n      sstore\n        /* \"#utility.yul\":11222:11451   */\n      pop\n        /* \"#utility.yul\":10543:11451   */\n      jump(tag_214)\n        /* \"#utility.yul\":10573:11205   */\n    tag_215:\n        /* \"#utility.yul\":10625:10629   */\n      0x1f\n        /* \"#utility.yul\":10621:10630   */\n      not\n        /* \"#utility.yul\":10613:10619   */\n      dup5\n        /* \"#utility.yul\":10609:10631   */\n      and\n        /* \"#utility.yul\":10659:10696   */\n      tag_218\n        /* \"#utility.yul\":10691:10695   */\n      dup7\n        /* \"#utility.yul\":10659:10696   */\n      tag_79\n      jump\t// in\n    tag_218:\n        /* \"#utility.yul\":10718:10719   */\n      0x00\n        /* \"#utility.yul\":10732:10947   */\n    tag_219:\n        /* \"#utility.yul\":10746:10753   */\n      dup3\n        /* \"#utility.yul\":10743:10744   */\n      dup2\n        /* \"#utility.yul\":10740:10754   */\n      lt\n        /* \"#utility.yul\":10732:10947   */\n      iszero\n      tag_221\n      jumpi\n        /* \"#utility.yul\":10832:10841   */\n      dup5\n        /* \"#utility.yul\":10827:10830   */\n      dup10\n        /* \"#utility.yul\":10823:10842   */\n      add\n        /* \"#utility.yul\":10810:10843   */\n      calldataload\n        /* \"#utility.yul\":10802:10808   */\n      dup3\n        /* \"#utility.yul\":10795:10844   */\n      sstore\n        /* \"#utility.yul\":10883:10884   */\n      0x01\n        /* \"#utility.yul\":10875:10881   */\n      dup3\n        /* \"#utility.yul\":10871:10885   */\n      add\n        /* \"#utility.yul\":10861:10885   */\n      swap2\n      pop\n        /* \"#utility.yul\":10930:10932   */\n      0x20\n        /* \"#utility.yul\":10919:10928   */\n      dup6\n        /* \"#utility.yul\":10915:10933   */\n      add\n        /* \"#utility.yul\":10902:10933   */\n      swap5\n      pop\n        /* \"#utility.yul\":10769:10773   */\n      0x20\n        /* \"#utility.yul\":10766:10767   */\n      dup2\n        /* \"#utility.yul\":10762:10774   */\n      add\n        /* \"#utility.yul\":10757:10774   */\n      swap1\n      pop\n        /* \"#utility.yul\":10732:10947   */\n      jump(tag_219)\n    tag_221:\n        /* \"#utility.yul\":10975:10981   */\n      dup7\n        /* \"#utility.yul\":10966:10973   */\n      dup4\n        /* \"#utility.yul\":10963:10982   */\n      lt\n        /* \"#utility.yul\":10960:11146   */\n      iszero\n      tag_222\n      jumpi\n        /* \"#utility.yul\":11040:11049   */\n      dup5\n        /* \"#utility.yul\":11035:11038   */\n      dup10\n        /* \"#utility.yul\":11031:11050   */\n      add\n        /* \"#utility.yul\":11018:11051   */\n      calldataload\n        /* \"#utility.yul\":11083:11131   */\n      tag_223\n        /* \"#utility.yul\":11125:11129   */\n      0x1f\n        /* \"#utility.yul\":11117:11123   */\n      dup10\n        /* \"#utility.yul\":11113:11130   */\n      and\n        /* \"#utility.yul\":11102:11111   */\n      dup3\n        /* \"#utility.yul\":11083:11131   */\n      tag_92\n      jump\t// in\n    tag_223:\n        /* \"#utility.yul\":11075:11081   */\n      dup4\n        /* \"#utility.yul\":11068:11132   */\n      sstore\n        /* \"#utility.yul\":10983:11146   */\n      pop\n        /* \"#utility.yul\":10960:11146   */\n    tag_222:\n        /* \"#utility.yul\":11192:11193   */\n      0x01\n        /* \"#utility.yul\":11188:11189   */\n      0x02\n        /* \"#utility.yul\":11180:11186   */\n      dup9\n        /* \"#utility.yul\":11176:11190   */\n      mul\n        /* \"#utility.yul\":11172:11194   */\n      add\n        /* \"#utility.yul\":11166:11170   */\n      dup9\n        /* \"#utility.yul\":11159:11195   */\n      sstore\n        /* \"#utility.yul\":10580:11205   */\n      pop\n      pop\n      pop\n        /* \"#utility.yul\":10543:11451   */\n    tag_214:\n      pop\n        /* \"#utility.yul\":10153:11457   */\n      pop\n      pop\n      pop\n        /* \"#utility.yul\":10054:11457   */\n      pop\n      pop\n      pop\n      jump\t// out\n\n    auxdata: 0xa2646970667358221220b0658a4a6a8889fa36ff2508121614e801972e805d7fee02f9cff28b1eded2f364736f6c634300081e0033\n}\n",
				"bytecode": {
					"linkReferences": {},
					"object": "6080604052348015600e575f5ffd5b50610ab58061001c5f395ff3fe608060405234801561000f575f5ffd5b506004361061004a575f3560e01c80635f21f8c21461004e578063b6a46b3b1461006a578063bc8bc2b414610086578063f745630f146100b7575b5f5ffd5b61006860048036038101906100639190610496565b6100d3565b005b610084600480360381019061007f9190610522565b610119565b005b6100a0600480360381019061009b9190610496565b6102ed565b6040516100ae9291906105f7565b60405180910390f35b6100d160048036038101906100cc9190610625565b6103ad565b005b5f81815481106100e6576100e5610682565b5b905f5260205f2090600202015f5f82015f61010191906103e8565b600182015f6101000a81549060ff0219169055505050565b5f604051806040016040528084848080601f0160208091040260200160405190810160405280939291908181526020018383808284375f81840152601f19601f8201169050808301925050505050505081526020015f1515815250908060018154018082558091505060019003905f5260205f2090600202015f909190919091505f820151815f0190816101ad91906108d9565b506020820151816001015f6101000a81548160ff02191690831515021790555050505f604051806040016040528084848080601f0160208091040260200160405190810160405280939291908181526020018383808284375f81840152601f19601f8201169050808301925050505050505081526020015f1515815250908060018154018082558091505060019003905f5260205f2090600202015f909190919091505f820151815f01908161026391906108d9565b506020820151816001015f6101000a81548160ff021916908315150217905550505061028d610425565b82828080601f0160208091040260200160405190810160405280939291908181526020018383808284375f81840152601f19601f82011690508083019250505050505050815f01819052505f816020019015159081151581525050505050565b5f81815481106102fb575f80fd5b905f5260205f2090600202015f91509050805f01805461031a90610709565b80601f016020809104026020016040519081016040528092919081815260200182805461034690610709565b80156103915780601f1061036857610100808354040283529160200191610391565b820191905f5260205f20905b81548152906001019060200180831161037457829003601f168201915b505050505090806001015f9054906101000a900460ff16905082565b5f5f84815481106103c1576103c0610682565b5b905f5260205f20906002020190508282825f0191826103e19291906109b2565b5050505050565b5080546103f490610709565b5f825580601f106104055750610422565b601f0160209004905f5260205f20908101906104219190610440565b5b50565b6040518060400160405280606081526020015f151581525090565b5b80821115610457575f815f905550600101610441565b5090565b5f5ffd5b5f5ffd5b5f819050919050565b61047581610463565b811461047f575f5ffd5b50565b5f813590506104908161046c565b92915050565b5f602082840312156104ab576104aa61045b565b5b5f6104b884828501610482565b91505092915050565b5f5ffd5b5f5ffd5b5f5ffd5b5f5f83601f8401126104e2576104e16104c1565b5b8235905067ffffffffffffffff8111156104ff576104fe6104c5565b5b60208301915083600182028301111561051b5761051a6104c9565b5b9250929050565b5f5f602083850312156105385761053761045b565b5b5f83013567ffffffffffffffff8111156105555761055461045f565b5b610561858286016104cd565b92509250509250929050565b5f81519050919050565b5f82825260208201905092915050565b8281835e5f83830152505050565b5f601f19601f8301169050919050565b5f6105af8261056d565b6105b98185610577565b93506105c9818560208601610587565b6105d281610595565b840191505092915050565b5f8115159050919050565b6105f1816105dd565b82525050565b5f6040820190508181035f83015261060f81856105a5565b905061061e60208301846105e8565b9392505050565b5f5f5f6040848603121561063c5761063b61045b565b5b5f61064986828701610482565b935050602084013567ffffffffffffffff81111561066a5761066961045f565b5b610676868287016104cd565b92509250509250925092565b7f4e487b71000000000000000000000000000000000000000000000000000000005f52603260045260245ffd5b7f4e487b71000000000000000000000000000000000000000000000000000000005f52604160045260245ffd5b7f4e487b71000000000000000000000000000000000000000000000000000000005f52602260045260245ffd5b5f600282049050600182168061072057607f821691505b602082108103610733576107326106dc565b5b50919050565b5f819050815f5260205f209050919050565b5f6020601f8301049050919050565b5f82821b905092915050565b5f600883026107957fffffffffffffffffffffffffffffffffffffffffffffffffffffffffffffffff8261075a565b61079f868361075a565b95508019841693508086168417925050509392505050565b5f819050919050565b5f6107da6107d56107d084610463565b6107b7565b610463565b9050919050565b5f819050919050565b6107f3836107c0565b6108076107ff826107e1565b848454610766565b825550505050565b5f5f905090565b61081e61080f565b6108298184846107ea565b505050565b5b8181101561084c576108415f82610816565b60018101905061082f565b5050565b601f8211156108915761086281610739565b61086b8461074b565b8101602085101561087a578190505b61088e6108868561074b565b83018261082e565b50505b505050565b5f82821c905092915050565b5f6108b15f1984600802610896565b1980831691505092915050565b5f6108c983836108a2565b9150826002028217905092915050565b6108e28261056d565b67ffffffffffffffff8111156108fb576108fa6106af565b5b6109058254610709565b610910828285610850565b5f60209050601f831160018114610941575f841561092f578287015190505b61093985826108be565b8655506109a0565b601f19841661094f86610739565b5f5b8281101561097657848901518255600182019150602085019450602081019050610951565b86831015610993578489015161098f601f8916826108a2565b8355505b6001600288020188555050505b505050505050565b5f82905092915050565b6109bc83836109a8565b67ffffffffffffffff8111156109d5576109d46106af565b5b6109df8254610709565b6109ea828285610850565b5f601f831160018114610a17575f8415610a05578287013590505b610a0f85826108be565b865550610a76565b601f198416610a2586610739565b5f5b82811015610a4c57848901358255600182019150602085019450602081019050610a27565b86831015610a695784890135610a65601f8916826108a2565b8355505b6001600288020188555050505b5050505050505056fea2646970667358221220b0658a4a6a8889fa36ff2508121614e801972e805d7fee02f9cff28b1eded2f364736f6c634300081e0033",
					"opcodes": "PUSH1 0x80 PUSH1 0x40 MSTORE CALLVALUE DUP1 ISZERO PUSH1 0xE JUMPI PUSH0 PUSH0 REVERT JUMPDEST POP PUSH2 0xAB5 DUP1 PUSH2 0x1C PUSH0 CODECOPY PUSH0 RETURN INVALID PUSH1 0x80 PUSH1 0x40 MSTORE CALLVALUE DUP1 ISZERO PUSH2 0xF JUMPI PUSH0 PUSH0 REVERT JUMPDEST POP PUSH1 0x4 CALLDATASIZE LT PUSH2 0x4A JUMPI PUSH0 CALLDATALOAD PUSH1 0xE0 SHR DUP1 PUSH4 0x5F21F8C2 EQ PUSH2 0x4E JUMPI DUP1 PUSH4 0xB6A46B3B EQ PUSH2 0x6A JUMPI DUP1 PUSH4 0xBC8BC2B4 EQ PUSH2 0x86 JUMPI DUP1 PUSH4 0xF745630F EQ PUSH2 0xB7 JUMPI JUMPDEST PUSH0 PUSH0 REVERT JUMPDEST PUSH2 0x68 PUSH1 0x4 DUP1 CALLDATASIZE SUB DUP2 ADD SWAP1 PUSH2 0x63 SWAP2 SWAP1 PUSH2 0x496 JUMP JUMPDEST PUSH2 0xD3 JUMP JUMPDEST STOP JUMPDEST PUSH2 0x84 PUSH1 0x4 DUP1 CALLDATASIZE SUB DUP2 ADD SWAP1 PUSH2 0x7F SWAP2 SWAP1 PUSH2 0x522 JUMP JUMPDEST PUSH2 0x119 JUMP JUMPDEST STOP JUMPDEST PUSH2 0xA0 PUSH1 0x4 DUP1 CALLDATASIZE SUB DUP2 ADD SWAP1 PUSH2 0x9B SWAP2 SWAP1 PUSH2 0x496 JUMP JUMPDEST PUSH2 0x2ED JUMP JUMPDEST PUSH1 0x40 MLOAD PUSH2 0xAE SWAP3 SWAP2 SWAP1 PUSH2 0x5F7 JUMP JUMPDEST PUSH1 0x40 MLOAD DUP1 SWAP2 SUB SWAP1 RETURN JUMPDEST PUSH2 0xD1 PUSH1 0x4 DUP1 CALLDATASIZE SUB DUP2 ADD SWAP1 PUSH2 0xCC SWAP2 SWAP1 PUSH2 0x625 JUMP JUMPDEST PUSH2 0x3AD JUMP JUMPDEST STOP JUMPDEST PUSH0 DUP2 DUP2 SLOAD DUP2 LT PUSH2 0xE6 JUMPI PUSH2 0xE5 PUSH2 0x682 JUMP JUMPDEST JUMPDEST SWAP1 PUSH0 MSTORE PUSH1 0x20 PUSH0 KECCAK256 SWAP1 PUSH1 0x2 MUL ADD PUSH0 PUSH0 DUP3 ADD PUSH0 PUSH2 0x101 SWAP2 SWAP1 PUSH2 0x3E8 JUMP JUMPDEST PUSH1 0x1 DUP3 ADD PUSH0 PUSH2 0x100 EXP DUP2 SLOAD SWAP1 PUSH1 0xFF MUL NOT AND SWAP1 SSTORE POP POP POP JUMP JUMPDEST PUSH0 PUSH1 0x40 MLOAD DUP1 PUSH1 0x40 ADD PUSH1 0x40 MSTORE DUP1 DUP5 DUP5 DUP1 DUP1 PUSH1 0x1F ADD PUSH1 0x20 DUP1 SWAP2 DIV MUL PUSH1 0x20 ADD PUSH1 0x40 MLOAD SWAP1 DUP2 ADD PUSH1 0x40 MSTORE DUP1 SWAP4 SWAP3 SWAP2 SWAP1 DUP2 DUP2 MSTORE PUSH1 0x20 ADD DUP4 DUP4 DUP1 DUP3 DUP5 CALLDATACOPY PUSH0 DUP2 DUP5 ADD MSTORE PUSH1 0x1F NOT PUSH1 0x1F DUP3 ADD AND SWAP1 POP DUP1 DUP4 ADD SWAP3 POP POP POP POP POP POP POP DUP2 MSTORE PUSH1 0x20 ADD PUSH0 ISZERO ISZERO DUP2 MSTORE POP SWAP1 DUP1 PUSH1 0x1 DUP2 SLOAD ADD DUP1 DUP3 SSTORE DUP1 SWAP2 POP POP PUSH1 0x1 SWAP1 SUB SWAP1 PUSH0 MSTORE PUSH1 0x20 PUSH0 KECCAK256 SWAP1 PUSH1 0x2 MUL ADD PUSH0 SWAP1 SWAP2 SWAP1 SWAP2 SWAP1 SWAP2 POP PUSH0 DUP3 ADD MLOAD DUP2 PUSH0 ADD SWAP1 DUP2 PUSH2 0x1AD SWAP2 SWAP1 PUSH2 0x8D9 JUMP JUMPDEST POP PUSH1 0x20 DUP3 ADD MLOAD DUP2 PUSH1 0x1 ADD PUSH0 PUSH2 0x100 EXP DUP2 SLOAD DUP2 PUSH1 0xFF MUL NOT AND SWAP1 DUP4 ISZERO ISZERO MUL OR SWAP1 SSTORE POP POP POP PUSH0 PUSH1 0x40 MLOAD DUP1 PUSH1 0x40 ADD PUSH1 0x40 MSTORE DUP1 DUP5 DUP5 DUP1 DUP1 PUSH1 0x1F ADD PUSH1 0x20 DUP1 SWAP2 DIV MUL PUSH1 0x20 ADD PUSH1 0x40 MLOAD SWAP1 DUP2 ADD PUSH1 0x40 MSTORE DUP1 SWAP4 SWAP3 SWAP2 SWAP1 DUP2 DUP2 MSTORE PUSH1 0x20 ADD DUP4 DUP4 DUP1 DUP3 DUP5 CALLDATACOPY PUSH0 DUP2 DUP5 ADD MSTORE PUSH1 0x1F NOT PUSH1 0x1F DUP3 ADD AND SWAP1 POP DUP1 DUP4 ADD SWAP3 POP POP POP POP POP POP POP DUP2 MSTORE PUSH1 0x20 ADD PUSH0 ISZERO ISZERO DUP2 MSTORE POP SWAP1 DUP1 PUSH1 0x1 DUP2 SLOAD ADD DUP1 DUP3 SSTORE DUP1 SWAP2 POP POP PUSH1 0x1 SWAP1 SUB SWAP1 PUSH0 MSTORE PUSH1 0x20 PUSH0 KECCAK256 SWAP1 PUSH1 0x2 MUL ADD PUSH0 SWAP1 SWAP2 SWAP1 SWAP2 SWAP1 SWAP2 POP PUSH0 DUP3 ADD MLOAD DUP2 PUSH0 ADD SWAP1 DUP2 PUSH2 0x263 SWAP2 SWAP1 PUSH2 0x8D9 JUMP JUMPDEST POP PUSH1 0x20 DUP3 ADD MLOAD DUP2 PUSH1 0x1 ADD PUSH0 PUSH2 0x100 EXP DUP2 SLOAD DUP2 PUSH1 0xFF MUL NOT AND SWAP1 DUP4 ISZERO ISZERO MUL OR SWAP1 SSTORE POP POP POP PUSH2 0x28D PUSH2 0x425 JUMP JUMPDEST DUP3 DUP3 DUP1 DUP1 PUSH1 0x1F ADD PUSH1 0x20 DUP1 SWAP2 DIV MUL PUSH1 0x20 ADD PUSH1 0x40 MLOAD SWAP1 DUP2 ADD PUSH1 0x40 MSTORE DUP1 SWAP4 SWAP3 SWAP2 SWAP1 DUP2 DUP2 MSTORE PUSH1 0x20 ADD DUP4 DUP4 DUP1 DUP3 DUP5 CALLDATACOPY PUSH0 DUP2 DUP5 ADD MSTORE PUSH1 0x1F NOT PUSH1 0x1F DUP3 ADD AND SWAP1 POP DUP1 DUP4 ADD SWAP3 POP POP POP POP POP POP POP DUP2 PUSH0 ADD DUP2 SWAP1 MSTORE POP PUSH0 DUP2 PUSH1 0x20 ADD SWAP1 ISZERO ISZERO SWAP1 DUP2 ISZERO ISZERO DUP2 MSTORE POP POP POP POP POP JUMP JUMPDEST PUSH0 DUP2 DUP2 SLOAD DUP2 LT PUSH2 0x2FB JUMPI PUSH0 DUP1 REVERT JUMPDEST SWAP1 PUSH0 MSTORE PUSH1 0x20 PUSH0 KECCAK256 SWAP1 PUSH1 0x2 MUL ADD PUSH0 SWAP2 POP SWAP1 POP DUP1 PUSH0 ADD DUP1 SLOAD PUSH2 0x31A SWAP1 PUSH2 0x709 JUMP JUMPDEST DUP1 PUSH1 0x1F ADD PUSH1 0x20 DUP1 SWAP2 DIV MUL PUSH1 0x20 ADD PUSH1 0x40 MLOAD SWAP1 DUP2 ADD PUSH1 0x40 MSTORE DUP1 SWAP3 SWAP2 SWAP1 DUP2 DUP2 MSTORE PUSH1 0x20 ADD DUP3 DUP1 SLOAD PUSH2 0x346 SWAP1 PUSH2 0x709 JUMP JUMPDEST DUP1 ISZERO PUSH2 0x391 JUMPI DUP1 PUSH1 0x1F LT PUSH2 0x368 JUMPI PUSH2 0x100 DUP1 DUP4 SLOAD DIV MUL DUP4 MSTORE SWAP2 PUSH1 0x20 ADD SWAP2 PUSH2 0x391 JUMP JUMPDEST DUP3 ADD SWAP2 SWAP1 PUSH0 MSTORE PUSH1 0x20 PUSH0 KECCAK256 SWAP1 JUMPDEST DUP2 SLOAD DUP2 MSTORE SWAP1 PUSH1 0x1 ADD SWAP1 PUSH1 0x20 ADD DUP1 DUP4 GT PUSH2 0x374 JUMPI DUP3 SWAP1 SUB PUSH1 0x1F AND DUP3 ADD SWAP2 JUMPDEST POP POP POP POP POP SWAP1 DUP1 PUSH1 0x1 ADD PUSH0 SWAP1 SLOAD SWAP1 PUSH2 0x100 EXP SWAP1 DIV PUSH1 0xFF AND SWAP1 POP DUP3 JUMP JUMPDEST PUSH0 PUSH0 DUP5 DUP2 SLOAD DUP2 LT PUSH2 0x3C1 JUMPI PUSH2 0x3C0 PUSH2 0x682 JUMP JUMPDEST JUMPDEST SWAP1 PUSH0 MSTORE PUSH1 0x20 PUSH0 KECCAK256 SWAP1 PUSH1 0x2 MUL ADD SWAP1 POP DUP3 DUP3 DUP3 PUSH0 ADD SWAP2 DUP3 PUSH2 0x3E1 SWAP3 SWAP2 SWAP1 PUSH2 0x9B2 JUMP JUMPDEST POP POP POP POP POP JUMP JUMPDEST POP DUP1 SLOAD PUSH2 0x3F4 SWAP1 PUSH2 0x709 JUMP JUMPDEST PUSH0 DUP3 SSTORE DUP1 PUSH1 0x1F LT PUSH2 0x405 JUMPI POP PUSH2 0x422 JUMP JUMPDEST PUSH1 0x1F ADD PUSH1 0x20 SWAP1 DIV SWAP1 PUSH0 MSTORE PUSH1 0x20 PUSH0 KECCAK256 SWAP1 DUP2 ADD SWAP1 PUSH2 0x421 SWAP2 SWAP1 PUSH2 0x440 JUMP JUMPDEST JUMPDEST POP JUMP JUMPDEST PUSH1 0x40 MLOAD DUP1 PUSH1 0x40 ADD PUSH1 0x40 MSTORE DUP1 PUSH1 0x60 DUP2 MSTORE PUSH1 0x20 ADD PUSH0 ISZERO ISZERO DUP2 MSTORE POP SWAP1 JUMP JUMPDEST JUMPDEST DUP1 DUP3 GT ISZERO PUSH2 0x457 JUMPI PUSH0 DUP2 PUSH0 SWAP1 SSTORE POP PUSH1 0x1 ADD PUSH2 0x441 JUMP JUMPDEST POP SWAP1 JUMP JUMPDEST PUSH0 PUSH0 REVERT JUMPDEST PUSH0 PUSH0 REVERT JUMPDEST PUSH0 DUP2 SWAP1 POP SWAP2 SWAP1 POP JUMP JUMPDEST PUSH2 0x475 DUP2 PUSH2 0x463 JUMP JUMPDEST DUP2 EQ PUSH2 0x47F JUMPI PUSH0 PUSH0 REVERT JUMPDEST POP JUMP JUMPDEST PUSH0 DUP2 CALLDATALOAD SWAP1 POP PUSH2 0x490 DUP2 PUSH2 0x46C JUMP JUMPDEST SWAP3 SWAP2 POP POP JUMP JUMPDEST PUSH0 PUSH1 0x20 DUP3 DUP5 SUB SLT ISZERO PUSH2 0x4AB JUMPI PUSH2 0x4AA PUSH2 0x45B JUMP JUMPDEST JUMPDEST PUSH0 PUSH2 0x4B8 DUP5 DUP3 DUP6 ADD PUSH2 0x482 JUMP JUMPDEST SWAP2 POP POP SWAP3 SWAP2 POP POP JUMP JUMPDEST PUSH0 PUSH0 REVERT JUMPDEST PUSH0 PUSH0 REVERT JUMPDEST PUSH0 PUSH0 REVERT JUMPDEST PUSH0 PUSH0 DUP4 PUSH1 0x1F DUP5 ADD SLT PUSH2 0x4E2 JUMPI PUSH2 0x4E1 PUSH2 0x4C1 JUMP JUMPDEST JUMPDEST DUP3 CALLDATALOAD SWAP1 POP PUSH8 0xFFFFFFFFFFFFFFFF DUP2 GT ISZERO PUSH2 0x4FF JUMPI PUSH2 0x4FE PUSH2 0x4C5 JUMP JUMPDEST JUMPDEST PUSH1 0x20 DUP4 ADD SWAP2 POP DUP4 PUSH1 0x1 DUP3 MUL DUP4 ADD GT ISZERO PUSH2 0x51B JUMPI PUSH2 0x51A PUSH2 0x4C9 JUMP JUMPDEST JUMPDEST SWAP3 POP SWAP3 SWAP1 POP JUMP JUMPDEST PUSH0 PUSH0 PUSH1 0x20 DUP4 DUP6 SUB SLT ISZERO PUSH2 0x538 JUMPI PUSH2 0x537 PUSH2 0x45B JUMP JUMPDEST JUMPDEST PUSH0 DUP4 ADD CALLDATALOAD PUSH8 0xFFFFFFFFFFFFFFFF DUP2 GT ISZERO PUSH2 0x555 JUMPI PUSH2 0x554 PUSH2 0x45F JUMP JUMPDEST JUMPDEST PUSH2 0x561 DUP6 DUP3 DUP7 ADD PUSH2 0x4CD JUMP JUMPDEST SWAP3 POP SWAP3 POP POP SWAP3 POP SWAP3 SWAP1 POP JUMP JUMPDEST PUSH0 DUP2 MLOAD SWAP1 POP SWAP2 SWAP1 POP JUMP JUMPDEST PUSH0 DUP3 DUP3 MSTORE PUSH1 0x20 DUP3 ADD SWAP1 POP SWAP3 SWAP2 POP POP JUMP JUMPDEST DUP3 DUP2 DUP4 MCOPY PUSH0 DUP4 DUP4 ADD MSTORE POP POP POP JUMP JUMPDEST PUSH0 PUSH1 0x1F NOT PUSH1 0x1F DUP4 ADD AND SWAP1 POP SWAP2 SWAP1 POP JUMP JUMPDEST PUSH0 PUSH2 0x5AF DUP3 PUSH2 0x56D JUMP JUMPDEST PUSH2 0x5B9 DUP2 DUP6 PUSH2 0x577 JUMP JUMPDEST SWAP4 POP PUSH2 0x5C9 DUP2 DUP6 PUSH1 0x20 DUP7 ADD PUSH2 0x587 JUMP JUMPDEST PUSH2 0x5D2 DUP2 PUSH2 0x595 JUMP JUMPDEST DUP5 ADD SWAP2 POP POP SWAP3 SWAP2 POP POP JUMP JUMPDEST PUSH0 DUP2 ISZERO ISZERO SWAP1 POP SWAP2 SWAP1 POP JUMP JUMPDEST PUSH2 0x5F1 DUP2 PUSH2 0x5DD JUMP JUMPDEST DUP3 MSTORE POP POP JUMP JUMPDEST PUSH0 PUSH1 0x40 DUP3 ADD SWAP1 POP DUP2 DUP2 SUB PUSH0 DUP4 ADD MSTORE PUSH2 0x60F DUP2 DUP6 PUSH2 0x5A5 JUMP JUMPDEST SWAP1 POP PUSH2 0x61E PUSH1 0x20 DUP4 ADD DUP5 PUSH2 0x5E8 JUMP JUMPDEST SWAP4 SWAP3 POP POP POP JUMP JUMPDEST PUSH0 PUSH0 PUSH0 PUSH1 0x40 DUP5 DUP7 SUB SLT ISZERO PUSH2 0x63C JUMPI PUSH2 0x63B PUSH2 0x45B JUMP JUMPDEST JUMPDEST PUSH0 PUSH2 0x649 DUP7 DUP3 DUP8 ADD PUSH2 0x482 JUMP JUMPDEST SWAP4 POP POP PUSH1 0x20 DUP5 ADD CALLDATALOAD PUSH8 0xFFFFFFFFFFFFFFFF DUP2 GT ISZERO PUSH2 0x66A JUMPI PUSH2 0x669 PUSH2 0x45F JUMP JUMPDEST JUMPDEST PUSH2 0x676 DUP7 DUP3 DUP8 ADD PUSH2 0x4CD JUMP JUMPDEST SWAP3 POP SWAP3 POP POP SWAP3 POP SWAP3 POP SWAP3 JUMP JUMPDEST PUSH32 0x4E487B7100000000000000000000000000000000000000000000000000000000 PUSH0 MSTORE PUSH1 0x32 PUSH1 0x4 MSTORE PUSH1 0x24 PUSH0 REVERT JUMPDEST PUSH32 0x4E487B7100000000000000000000000000000000000000000000000000000000 PUSH0 MSTORE PUSH1 0x41 PUSH1 0x4 MSTORE PUSH1 0x24 PUSH0 REVERT JUMPDEST PUSH32 0x4E487B7100000000000000000000000000000000000000000000000000000000 PUSH0 MSTORE PUSH1 0x22 PUSH1 0x4 MSTORE PUSH1 0x24 PUSH0 REVERT JUMPDEST PUSH0 PUSH1 0x2 DUP3 DIV SWAP1 POP PUSH1 0x1 DUP3 AND DUP1 PUSH2 0x720 JUMPI PUSH1 0x7F DUP3 AND SWAP2 POP JUMPDEST PUSH1 0x20 DUP3 LT DUP2 SUB PUSH2 0x733 JUMPI PUSH2 0x732 PUSH2 0x6DC JUMP JUMPDEST JUMPDEST POP SWAP2 SWAP1 POP JUMP JUMPDEST PUSH0 DUP2 SWAP1 POP DUP2 PUSH0 MSTORE PUSH1 0x20 PUSH0 KECCAK256 SWAP1 POP SWAP2 SWAP1 POP JUMP JUMPDEST PUSH0 PUSH1 0x20 PUSH1 0x1F DUP4 ADD DIV SWAP1 POP SWAP2 SWAP1 POP JUMP JUMPDEST PUSH0 DUP3 DUP3 SHL SWAP1 POP SWAP3 SWAP2 POP POP JUMP JUMPDEST PUSH0 PUSH1 0x8 DUP4 MUL PUSH2 0x795 PUSH32 0xFFFFFFFFFFFFFFFFFFFFFFFFFFFFFFFFFFFFFFFFFFFFFFFFFFFFFFFFFFFFFFFF DUP3 PUSH2 0x75A JUMP JUMPDEST PUSH2 0x79F DUP7 DUP4 PUSH2 0x75A JUMP JUMPDEST SWAP6 POP DUP1 NOT DUP5 AND SWAP4 POP DUP1 DUP7 AND DUP5 OR SWAP3 POP POP POP SWAP4 SWAP3 POP POP POP JUMP JUMPDEST PUSH0 DUP2 SWAP1 POP SWAP2 SWAP1 POP JUMP JUMPDEST PUSH0 PUSH2 0x7DA PUSH2 0x7D5 PUSH2 0x7D0 DUP5 PUSH2 0x463 JUMP JUMPDEST PUSH2 0x7B7 JUMP JUMPDEST PUSH2 0x463 JUMP JUMPDEST SWAP1 POP SWAP2 SWAP1 POP JUMP JUMPDEST PUSH0 DUP2 SWAP1 POP SWAP2 SWAP1 POP JUMP JUMPDEST PUSH2 0x7F3 DUP4 PUSH2 0x7C0 JUMP JUMPDEST PUSH2 0x807 PUSH2 0x7FF DUP3 PUSH2 0x7E1 JUMP JUMPDEST DUP5 DUP5 SLOAD PUSH2 0x766 JUMP JUMPDEST DUP3 SSTORE POP POP POP POP JUMP JUMPDEST PUSH0 PUSH0 SWAP1 POP SWAP1 JUMP JUMPDEST PUSH2 0x81E PUSH2 0x80F JUMP JUMPDEST PUSH2 0x829 DUP2 DUP5 DUP5 PUSH2 0x7EA JUMP JUMPDEST POP POP POP JUMP JUMPDEST JUMPDEST DUP2 DUP2 LT ISZERO PUSH2 0x84C JUMPI PUSH2 0x841 PUSH0 DUP3 PUSH2 0x816 JUMP JUMPDEST PUSH1 0x1 DUP2 ADD SWAP1 POP PUSH2 0x82F JUMP JUMPDEST POP POP JUMP JUMPDEST PUSH1 0x1F DUP3 GT ISZERO PUSH2 0x891 JUMPI PUSH2 0x862 DUP2 PUSH2 0x739 JUMP JUMPDEST PUSH2 0x86B DUP5 PUSH2 0x74B JUMP JUMPDEST DUP2 ADD PUSH1 0x20 DUP6 LT ISZERO PUSH2 0x87A JUMPI DUP2 SWAP1 POP JUMPDEST PUSH2 0x88E PUSH2 0x886 DUP6 PUSH2 0x74B JUMP JUMPDEST DUP4 ADD DUP3 PUSH2 0x82E JUMP JUMPDEST POP POP JUMPDEST POP POP POP JUMP JUMPDEST PUSH0 DUP3 DUP3 SHR SWAP1 POP SWAP3 SWAP2 POP POP JUMP JUMPDEST PUSH0 PUSH2 0x8B1 PUSH0 NOT DUP5 PUSH1 0x8 MUL PUSH2 0x896 JUMP JUMPDEST NOT DUP1 DUP4 AND SWAP2 POP POP SWAP3 SWAP2 POP POP JUMP JUMPDEST PUSH0 PUSH2 0x8C9 DUP4 DUP4 PUSH2 0x8A2 JUMP JUMPDEST SWAP2 POP DUP3 PUSH1 0x2 MUL DUP3 OR SWAP1 POP SWAP3 SWAP2 POP POP JUMP JUMPDEST PUSH2 0x8E2 DUP3 PUSH2 0x56D JUMP JUMPDEST PUSH8 0xFFFFFFFFFFFFFFFF DUP2 GT ISZERO PUSH2 0x8FB JUMPI PUSH2 0x8FA PUSH2 0x6AF JUMP JUMPDEST JUMPDEST PUSH2 0x905 DUP3 SLOAD PUSH2 0x709 JUMP JUMPDEST PUSH2 0x910 DUP3 DUP3 DUP6 PUSH2 0x850 JUMP JUMPDEST PUSH0 PUSH1 0x20 SWAP1 POP PUSH1 0x1F DUP4 GT PUSH1 0x1 DUP2 EQ PUSH2 0x941 JUMPI PUSH0 DUP5 ISZERO PUSH2 0x92F JUMPI DUP3 DUP8 ADD MLOAD SWAP1 POP JUMPDEST PUSH2 0x939 DUP6 DUP3 PUSH2 0x8BE JUMP JUMPDEST DUP7 SSTORE POP PUSH2 0x9A0 JUMP JUMPDEST PUSH1 0x1F NOT DUP5 AND PUSH2 0x94F DUP7 PUSH2 0x739 JUMP JUMPDEST PUSH0 JUMPDEST DUP3 DUP2 LT ISZERO PUSH2 0x976 JUMPI DUP5 DUP10 ADD MLOAD DUP3 SSTORE PUSH1 0x1 DUP3 ADD SWAP2 POP PUSH1 0x20 DUP6 ADD SWAP5 POP PUSH1 0x20 DUP2 ADD SWAP1 POP PUSH2 0x951 JUMP JUMPDEST DUP7 DUP4 LT ISZERO PUSH2 0x993 JUMPI DUP5 DUP10 ADD MLOAD PUSH2 0x98F PUSH1 0x1F DUP10 AND DUP3 PUSH2 0x8A2 JUMP JUMPDEST DUP4 SSTORE POP JUMPDEST PUSH1 0x1 PUSH1 0x2 DUP9 MUL ADD DUP9 SSTORE POP POP POP JUMPDEST POP POP POP POP POP POP JUMP JUMPDEST PUSH0 DUP3 SWAP1 POP SWAP3 SWAP2 POP POP JUMP JUMPDEST PUSH2 0x9BC DUP4 DUP4 PUSH2 0x9A8 JUMP JUMPDEST PUSH8 0xFFFFFFFFFFFFFFFF DUP2 GT ISZERO PUSH2 0x9D5 JUMPI PUSH2 0x9D4 PUSH2 0x6AF JUMP JUMPDEST JUMPDEST PUSH2 0x9DF DUP3 SLOAD PUSH2 0x709 JUMP JUMPDEST PUSH2 0x9EA DUP3 DUP3 DUP6 PUSH2 0x850 JUMP JUMPDEST PUSH0 PUSH1 0x1F DUP4 GT PUSH1 0x1 DUP2 EQ PUSH2 0xA17 JUMPI PUSH0 DUP5 ISZERO PUSH2 0xA05 JUMPI DUP3 DUP8 ADD CALLDATALOAD SWAP1 POP JUMPDEST PUSH2 0xA0F DUP6 DUP3 PUSH2 0x8BE JUMP JUMPDEST DUP7 SSTORE POP PUSH2 0xA76 JUMP JUMPDEST PUSH1 0x1F NOT DUP5 AND PUSH2 0xA25 DUP7 PUSH2 0x739 JUMP JUMPDEST PUSH0 JUMPDEST DUP3 DUP2 LT ISZERO PUSH2 0xA4C JUMPI DUP5 DUP10 ADD CALLDATALOAD DUP3 SSTORE PUSH1 0x1 DUP3 ADD SWAP2 POP PUSH1 0x20 DUP6 ADD SWAP5 POP PUSH1 0x20 DUP2 ADD SWAP1 POP PUSH2 0xA27 JUMP JUMPDEST DUP7 DUP4 LT ISZERO PUSH2 0xA69 JUMPI DUP5 DUP10 ADD CALLDATALOAD PUSH2 0xA65 PUSH1 0x1F DUP10 AND DUP3 PUSH2 0x8A2 JUMP JUMPDEST DUP4 SSTORE POP JUMPDEST PUSH1 0x1 PUSH1 0x2 DUP9 MUL ADD DUP9 SSTORE POP POP POP JUMPDEST POP POP POP POP POP POP POP JUMP INVALID LOG2 PUSH5 0x6970667358 0x22 SLT KECCAK256 0xB0 PUSH6 0x8A4A6A8889FA CALLDATASIZE SELFDESTRUCT 0x25 ADDMOD SLT AND EQ 0xE8 ADD SWAP8 0x2E DUP1 TSTORE PUSH32 0xEE02F9CFF28B1EDED2F364736F6C634300081E00330000000000000000000000 "
				},
				"gasEstimates": {
					"creation": {
						"codeDepositCost": "548200",
						"executionCost": "579",
						"totalCost": "548779"
					},
					"external": {
						"create(string)": "infinite",
						"delTodo(uint256)": "infinite",
						"todos(uint256)": "infinite",
						"update(uint256,string)": "infinite"
					}
				},
				"methodIdentifiers": {
					"create(string)": "b6a46b3b",
					"delTodo(uint256)": "5f21f8c2",
					"todos(uint256)": "bc8bc2b4",
					"update(uint256,string)": "f745630f"
				}
			},
			"storageLayout": {
				"storage": [
					{
						"astId": 10,
						"contract": "Todo.sol:MyTodo",
						"label": "todos",
						"offset": 0,
						"slot": "0",
						"type": "t_array(t_struct(Todo)6_storage)dyn_storage"
					}
				],
				"types": {
					"t_array(t_struct(Todo)6_storage)dyn_storage": {
						"base": "t_struct(Todo)6_storage",
						"encoding": "dynamic_array",
						"label": "struct MyTodo.Todo[]",
						"numberOfBytes": "32"
					},
					"t_bool": {
						"encoding": "inplace",
						"label": "bool",
						"numberOfBytes": "1"
					},
					"t_string_storage": {
						"encoding": "bytes",
						"label": "string",
						"numberOfBytes": "32"
					},
					"t_struct(Todo)6_storage": {
						"encoding": "inplace",
						"label": "struct MyTodo.Todo",
						"members": [
							{
								"astId": 3,
								"contract": "Todo.sol:MyTodo",
								"label": "text",
								"offset": 0,
								"slot": "0",
								"type": "t_string_storage"
							},
							{
								"astId": 5,
								"contract": "Todo.sol:MyTodo",
								"label": "completed",
								"offset": 0,
								"slot": "1",
								"type": "t_bool"
							}
						],
						"numberOfBytes": "64"
					}
				}
			},
			"userdoc": {
				"kind": "user",
				"methods": {},
				"version": 1
			}
		}
	}
}